:020000040800F2
:100000007071002069010008593200084B1E000879
:10001000553200084D090008814100080000000029
:100020000000000000000000000000007D3E00080D
:10003000090E0008000000003538000881010008A2
:100040008301000883010008830100088301000880
:100050008301000883010008830100088301000870
:100060008301000883010008830100088301000860
:100070008301000883010008830100088301000850
:100080008301000883010008390900088301000882
:10009000510900088301000883010008830100085A
:1000A0008301000883010008830100088301000820
:1000B00069410008830100088301000883010008EA
:1000C0008301000883010008830100088301000800
:1000D00083010008830100088301000883010008F0
:1000E00083010008830100088301000883010008E0
:1000F000830100088301000883010008000000005C
:10010000830100080000000083010008830100084B
:1001100083010008830100088301000883010008AF
:10012000830100088301000883010008830100089F
:1001300083010008000000000000000083010008A7
:10014000830100088301000883010008830100087F
:10015000DFF810D000F0C0FB004800474164000801
:10016000AFF30080707100200648804706480047C2
:10017000FEE7FEE7FEE7FEE7FEE7FEE7FEE7FEE757
:10018000FEE7FEE771400008510100082DE9F0414B
:100190000024061B254671F1000605DA012400271C
:1001A000D0EB070067EB0101161E73F1000605DABC
:1001B0000027D2EB0702012567EB030300F096FA54
:1001C00086460E4617469C46AC4204D00025D0EB2E
:1001D000050E65EB010624B10020D2EB000760EBB1
:1001E000030C704631463A466346BDE8F08140EA6A
:1001F00001039B0703D009E008C9121F08C0042AA5
:10020000FAD203E011F8013B00F8013B521EF9D28B
:100210007047D2B201E000F8012B491EFBD27047B3
:100220000022F6E710B513460A4604461946FFF7C2
:10023000F0FF204610BD2DE9FE4F804681EA030005
:10024000C00F0C46009021F0004123F00045B8EBB0
:100250000200A94105D24046214690461C460B4665
:10026000024623F00040104347D0270DC7F30A0091
:10027000C3F30A510290401A019040286BDAC3F38D
:10028000130040F4801B0098924620B10023D2EB6B
:10029000030A63EB0B0B01985946C0F1400250462C
:1002A00000F055FA06460D4650465946019A00F0B0
:1002B0006DFA10EB08006141002487EA115284EACC
:1002C000E7731A4340D0009A62B3019A012A4FEAB9
:1002D000075215DC001B61EB02014FF0004202EAFD
:1002E0000752CDE90042001C41F5801132462B46F1
:1002F00000F0A4FA03B0BDE8F08F40462146F9E7CC
:10030000001B61EB0201001C41F5801300185B41EA
:100310002018A2F5001747EB030140EAD570B61983
:100320006D4111E06D084FEA360645EAC0754FEAA7
:100330000752001B61EB0201001C41F580114908C6
:100340004FEA30000019514132462B4603B0BDE858
:10035000F04F00F064BA0098012240000023D0EB77
:10036000020263EBE073009821464FEAE074B8EBB9
:10037000000061EB0401E9E783F000435BE781F0F3
:10038000004158E72DE9FE4F81EA030404F00044E0
:1003900021F0004100944FF0000B23F0004350EA9D
:1003A00001045ED052EA03045BD0C3F30A54C1F3E4
:1003B0000A552C44A4F2F3340194A0FB0254C1F377
:1003C000130141F48011C3F3130343F4801301FBC1
:1003D000024400FB034E840A970A44EA815447EA28
:1003E0008357A4FB076802958D0A05FB07854FEA32
:1003F000932C04FB0C542705029D4FEA065847EA4C
:100400001637B5EB08056EEB070C870E920E47EA20
:10041000811742EA8312A7FB0201B6EB0B0164EBE2
:1004200000042B0D43EA0C335E1844EB1C50DA46F3
:100430005146E7FB0201C5F313044FEA0B3343EACD
:1004400014534FEA0432019C43EA0603A4F10C045E
:100450000294009CCDE900B400F0F0F903B0BDE8CF
:10046000F08F00200146F9E72DE9F04D81EA030401
:1004700004F0004B21F0004514464FF0000A23F031
:10048000004150EA050220D054EA01021DD0C5F314
:100490000A570246C5F31303C1F31300C1F30A560A
:1004A00040F4801543F48013A7EB0608101BD646D2
:1004B00008F2FD3873EB050002D308F1010801E0F2
:1004C00092185B41B8F1000F03DA00200146BDE845
:1004D000F08D00204FF48011064684460EE0171B75
:1004E00073EB050705D3121B63EB050306434CEAC8
:1004F000010C49084FEA300092185B4150EA0107AD
:10050000EDD152EA030012D082EA040083EA050129
:10051000084305D0101BAB4106D20122002306E0A0
:1005200000224FF0004302E06FF0010253101AEB7B
:1005300006004CEB085110EB0A0041EB0B01BDE843
:10054000F04D00F06CB9F0B4CA17CB0F50405140D9
:10055000C61841F100054FEAC372314628004FF03A
:10056000960303D0B623F0BC00F02BB9304600212F
:10057000F9E70EB5C10F80EAE0700844CA07002110
:1005800040F233438DE80E000A460B4600F056F960
:1005900003B000BD0EB540F2334102910021CDE918
:1005A00000110A460B4600F049F903B000BD10B532
:1005B00000F0004420F00040C20DC0F3160040F4EB
:1005C00000007F2A02DA0020014610BD0021962A91
:1005D00003DCC2F19602D04002E0963A00F0B7F890
:1005E000002CF2D00023D0EB030063EB010110BD1F
:1005F00070B5C1F30A5201F000450024C1F31301A4
:1006000040F2FF3341F480119A4201DA002070BDBC
:1006100040F233439A42A2F2334203DC524200F0EA
:10062000A5F800E090402C43F1D0404270BD00F0AE
:10063000004230F000400AD0C10D01F56071C0F3F6
:10064000160042EA0151C2084007114370470020DA
:100650000146704730B5041E71F1000404DB4FF011
:100660000044404264EB0101141E73F1000405DBF9
:100670001C464FF00043524263EB04038B4208BF19
:10068000824230BD30B5041E71F1000404DB4FF02E
:100690000044404264EB0101141E73F1000405DBC9
:1006A0001C464FF00043524263EB0403994208BFDB
:1006B000904230BD01F0004330B421F0004150EAD7
:1006C000010206D00A0DA2F56072C1F31301002ADF
:1006D00002DC30BC00207047440F44EAC104C10072
:1006E000E01830BC00EBC25000F062B82DE9F05FBA
:1006F0000546002092469B46884606468146402491
:100700001BE0284641464746224600F02FF8534654
:100710005A46C01A914110D311461846224600F09D
:1007200016F82D1A67EB01084F46224601200021DA
:1007300000F00DF817EB00094E41201EA4F1010452
:10074000DFDC484631462A464346BDE8F09F202A72
:1007500004DB203A00FA02F1002070479140C2F118
:10076000200320FA03F3194390407047202A04DB4A
:10077000203A21FA02F00021704721FA02F3D0401A
:10078000C2F120029140084319467047202A06DB37
:10079000CB17203A41FA02F043EAE07306E041FA4F
:1007A00002F3D040C2F1200291400843194670473D
:1007B0000029A8BF7047401C490008BF20F0010075
:1007C000704710B4B0FA80FC00FA0CF050EA010453
:1007D00004BF10BC704749B1CCF1200421FA04F4E5
:1007E00011FA0CF118BF012121430843A3EB0C01BE
:1007F000CB1D4FEA00614FEA102042BF002010BC21
:10080000704700EBC35010440029A4BF10BC7047D0
:10081000401C490008BF20F0010010BC704710B513
:10082000141E73F1000408DA401C41F10001921813
:100830005B411A4301D120F0010010BD2DE9F04DBC
:1008400092469B4611B1B1FA81F202E0B0FA80F211
:1008500020329046FFF77BFF04460F4640EA0A002D
:1008600041EA0B0153465A46084313D0114653EA56
:10087000010019D0C8F140025046FFF777FF054646
:100880000E46504659464246FFF761FF084305D0E1
:10089000012004E020463946BDE8F08D00200543E4
:1008A00046EAE0762C4337430A986305E40AA0EB56
:1008B00008000022FD0A44EA47540A3002D500200D
:1008C0000146E9E7010510196941DDE9084500190C
:1008D0006941BDE8F04DA2E7064C074D06E0E0682F
:1008E00040F0010394E8070098471034AC42F6D377
:1008F000FFF732FCD89D0008F89D000830B58C1831
:1009000010F8012B12F00F0301D110F8013B12096E
:1009100006D110F8012B03E010F8015B01F8015B30
:100920005B1EF9D101E001F8013B521EFBD1A1424F
:10093000E6D3002030BD00000348016821F0040127
:10094000016001F08DBB00000024014001F0ECB813
:1009500000F052B9134910B54FF48852A1F12400A8
:1009600005F00BFB4FF488520F49104805F005FBCA
:100970004FF488620E490F4805F0FFFA0E480F4900
:1009800090F844200A70B0F848204A80B0F84A2015
:100990008A8090F8461090F84500BDE8104003F0BA
:1009A00017B80000AC400020AC510020944000205B
:1009B000AC620020A04000209C68002024000020A1
:1009C000F0B5A3B044226946474805F087FA0028ED
:1009D0001CBF684606F01CFB444805F0C2FA50B143
:1009E00003F0CCF838B944226946404805F076FA5D
:1009F000684603F0D7F83E4805F0B3FA50B103F06B
:100A0000BDF838B944226946394805F067FA6846A6
:100A100003F0C8F8374C384DA18800291CBFE068A6
:100A2000002833D02A68A2EB000088422ED300278A
:100A3000E76001F00FFB012804D003F0B1F90120B9
:100A400002F060F82D48418841F00401418001889E
:100A500011F0800F1AD1EFF3108672B641F08001C9
:100A600001802078129700F180021198ADF84810AB
:100A700062F31700119008208DF847001397442265
:100A800011A91B4805F07FFA86F3108860880028BA
:100A900004BF23B0F0BDA1682A68511A81423CBF4F
:100AA00023B0F0BD28680028286808BF401CA0605B
:100AB000207811AC00F5E061119861F317001190F6
:100AC00001208DF8470005208DF84800204603F0EE
:100AD00069F8002804BF23B0F0BD44222146034832
:100AE00005F051FA23B0F0BD88400020944000206A
:100AF000A040002024000020080000209C68002066
:100B000010B516482DED028B92B00078B0EE608AD9
:100B100000F5F06100986C4661F31700009001A8A1
:100B200005F0A6FA04F10800B0EE480A05F0A0FAB4
:100B300008208DF80300204603F034F8002802BF97
:100B400012B0BDEC028B10BD44222146044805F0D2
:100B50001AFA12B0BDEC028B10BD00002400002078
:100B60009440002030B591B0054601F073FA012899
:100B700004D003F015F9012001F0C4FF134948889F
:100B800040F004004880088828421CBF11B030BDE6
:100B9000EFF3108472B6284308800D49097801F1FB
:100BA0008002009962F31701009108218DF803106B
:100BB000002101910291ADF80400442269460548E4
:100BC00005F0E1F984F3108811B030BD9C68002075
:100BD00024000020A0400020054A016812780A4441
:100BE00062F31701016001464422024805F0CBB9C7
:100BF00024000020A04000202DE9F041294C92B0B3
:100C00006946206810F0030F04BF12B0BDE8F08100
:100C1000254F386807F10408420D009862F3170069
:100C20000090D8F80000214D00F00F0008F10406F4
:100C3000285C8DF80300C01C800801F1040106D077
:100C40003268401E41F8042B10F0FF00F8D12068F4
:100C500040F02000206044226946154805F093F9D1
:100C60002068694610F0030F04BF12B0BDE8F081A0
:100C70003868420D009862F317000090D8F8000021
:100C800001F1040100F00F00285C8DF80300C01C86
:100C90008008DCD03268401E41F8042B10F0FF00C1
:100CA000F8D1D4E70C640040B0650040248300080C
:100CB000884000202DE9F047DFF87880D8F8006000
:100CC00006F10801B1F5204F31D8044605F02CFAA1
:100CD0000227002506EB850000F1006909F520498F
:100CE0003C2005F0D1F954F82510484605F02EFABD
:100CF00010B105F0CFF915E06D1CBD42EAD305F047
:100D0000C9F90020002F0DD906EB800101F1006127
:100D100001F5204154F8202009688A4202D1401C84
:100D2000B842F1D3D8F800000830C8F8000000201D
:100D3000BDE8F087744000204FF0E0214FF0FF3015
:100D4000C1F88001C1F88002C1F88401C1F88402B1
:100D5000C1F88801C1F88802C1F88C01C1F88C0281
:100D6000C1F89001C1F89002C1F89401C1F8940251
:100D7000C1F89801C1F89802C1F89C01C1F89C0221
:100D800004494FF4805008600348016881F30888E3
:100D900040680047140C0140004001082DE9F04173
:100DA00005F0C2F9144D154FDFF854802C464AF671
:100DB000AA263C2005F068F9204605F073F910B129
:100DC00005F068F90AE03E6004F580644445F0D31C
:100DD00005F060F92868B0F1FF3F03D04FF0FF3015
:100DE000BDE8F0813E602D1D4545F3D30549002047
:100DF0000860BDE8F081000000A00008003000405D
:100E0000004001087440002000F08EBE2DE9F04142
:100E100065244FF0006600BF06EB842000F0EEFF73
:100E2000042805D00B347B2CF6D30520BDE8F081D7
:100E3000651C04F10B07BD4209D200BF06EB8520FB
:100E400000F0DCFF0428F0D16D1CBD42F6D30B216D
:100E5000204600F073FE00281CBF0120BDE8F08191
:100E600000F06AFE0020BDE8F08100002DE9F041AD
:100E7000054665244FF00066B5B11020002206EB50
:100E80008423012103EB020CDCF80070DCF804C0C1
:100E9000FF4377EA0C0C18BF0F20491C0832802949
:100EA000F0DD0F280ED105E00121204600F046FEBE
:100EB00028B907E00121204600F040FE10B10120D2
:100EC000BDE8F081641C7B2CD6D300F035FE0221F6
:100ED000652002F0D5FF00281CBF0220BDE8F0818C
:100EE00000210448418065210170202141600020DB
:100EF000BDE8F081784000202DE9F05F0027DFF8A1
:100F00005CC3834601203E463C46B946BA468CF84F
:100F1000010065235FEAC06505EB832100200A1804
:100F2000CCF808200A18D2F8008052680830B0F5D2
:100F3000806FF4D35B1C7B2BEED3C8490020487034
:100F40004FF0650805EB882000F058FF022814BF19
:100F500001287F1C01D003280AD008F10108B8F14C
:100F60007B0FEFD33800BE4FDFF8F88248D105E0A1
:100F7000002E08BFC1464446761CEEE7002E08BF8F
:100F800065241FD0A9F15000A8FB002109096FF0CA
:100F90000A02514300EB410007EB802000F02EFFD6
:100FA00004282DD1A4F16400A8FB002109096FF0E9
:100FB0000A02514300EB41000121653002F060FF5D
:100FC00090B91DE00121204600F0B8FD10B10120CC
:100FD000BDE8F09F641C7B2CF4D300F0ADFD022132
:100FE000652002F04DFF10B10220BDE8F09F9B4943
:100FF0000020652248800A7020224A60BDE8F09FE8
:101000005FF0650605EB862000F0F8FE012825D18B
:10101000652E18BF702E12D0A6F15000A8FB00213B
:101020004FEA11116FF00A0201FB02F100EB4100DF
:1010300007EB802000F0E2FE032821D00EE0A6F1AD
:101040006400A8FB002109096FF00A02514300EB7C
:10105000410007EB802000F0D1FE88B1761C7B2E8A
:10106000D0D300BF4FF000095FF0650605EB862086
:1010700000F0C4FE022813D0032808BF34463CE029
:101080007648002101220670084602F001FBB0F507
:10109000807F16BF0C204FF0010ABDE8F09FE1E70A
:1010A000652E18BF702E12D0A6F15000A8FB0021AB
:1010B0004FEA11116FF00A0201FB02F100EB41004F
:1010C00007EB802000F09AFE03280FD015E0A6F170
:1010D0006400A8FB002109096FF00A02514300EBEC
:1010E000410007EB802000F089FE30B9B9F1000F14
:1010F0004CD15A484FF001090670761C7B2EB5D3AF
:10110000B9F1000F12D1A4F16400A8FB0021090974
:101110006FF00A02514300EB4100504965300870FE
:10112000022102F0ADFE00287FF45EAF4B4E00209E
:1011300070802020706096F80040014601EB842307
:101140004FF00062D25803F100635B686FEA020C53
:101150007CEA030207D072880830521C0831728082
:10116000B1F5806FEAD3706016E05038A8FB00211B
:1011700009096FF00A02514300EB410000F16504D8
:1011800005EB842000F03AFE032802D00A20BDE8D7
:10119000F09F70887C3070802046652C18BF702CC2
:1011A000E3D13078A0F16400A8FB00214FEA1111CF
:1011B0006FF00A0201FB02F100EB410000F165064D
:1011C00005EB8622A64236D0BBF1000F14D01023C7
:1011D0000021012002EB010CDCF80070DCF804C0F7
:1011E000FF4377EA0C0C18BF0F23401C08318028FE
:1011F000F0DD0F2B0FD107E00121304600F09EFCFF
:1012000000287FF4E4AE06E00121304600F096FCB1
:1012100000287FF4DCAEA6F16400A8FB00210909D8
:101220006FF00A02514300EB410000F1650605EB47
:101230008622A642C8D100F07FFCBAF1000F08D187
:101240000021084602F09EFF002818BF11287FF4F5
:10125000CBAE4FF00000BDE8F09F000078400020CA
:1012600000940108A38B2EBA38B50C46002819BF8C
:10127000A0F57F41B1F1FF01082038BD00210091A8
:10128000694602F0D9FA002804BF0099218038BDD0
:1012900038B50C46002819BFA0F57F41B1F1FF0118
:1012A000082038BD00210091694602F0C5FA0028E7
:1012B00004BF0099216038BD38B50C46002819BF1D
:1012C000A0F57F41B1F1FF01082038BD0021009158
:1012D000694602F0B1FA002804BF0099217038BDB8
:1012E00070B5002819BFA0F57F42B2F1FF020820B7
:1012F00070BD04460D4602F045FF112818BF70BDB1
:10130000002229462046BDE8704002F0C1B970B500
:10131000002819BFA0F57F42B2F1FF02082070BD7E
:1013200004460D4602F02EFF112818BF70BD0022A2
:1013300029462046BDE8704002F0AAB970B50028E1
:1013400019BFA0F57F42B2F1FF02082070BD04462C
:101350000D4602F017FF112818BF70BD0022294664
:101360002046BDE8704002F093B900002DE9F0413D
:10137000174F40243C60174D4FF40341284606F0B8
:1013800067FC0121284606F090FC0028F9D0284689
:1013900006F05BFCDFF8408060F30F06C8F8004001
:1013A0003C604FF40441284606F052FC01212846D7
:1013B00006F07BFC0028F9D0284606F046FCC8F869
:1013C0000040F1B261F31F208008BDE8F081000009
:1013D000140C0140003C0040100C0140704700001C
:1013E0002DE9F05FDFF89493DFEDE30A2DED028B3A
:1013F000B9F84C4001EE104AB8EE411ADFEDE03A80
:10140000E201E04E21EE231AB6EE005AD6ED031AA1
:10141000A6F1500821EE001AC1EE202A01EE102A92
:10142000B8EE411AC0EE814AF8EEE10AB0EE001AB9
:1014300020EE808AD9ED140A20EE813ADFEDD20A3F
:10144000304600F5405590ED011AD6F808C0D5F8A1
:101450002C3E21EE204ADFEDCD0A416990ED042AB1
:10146000002700EB8100BCF1090F80F07E81DFE8EE
:101470000CF005091E4D6598AEC6F800C6ED010AD0
:1014800001208AE023EE080A20EE050A01F02EF979
:1014900018EE100AB0F1804FC0F26781D5F82C0E1B
:1014A000C8F82C00B068401CB06000F05EB931EEA6
:1014B000221AB0EE608AB0EE430A86ED011A01F0FE
:1014C00015F9B3497068814200F34F81D5F82C0EAD
:1014D000D8F82C10401AB0F5005FC8BFA0F58040C6
:1014E00004DC10F5005FB8BF00F58040002808DA82
:1014F000D5F8200C002812BFC5F8207C0120C5F8C3
:10150000200C86ED018AB068401C6DE031EE221A95
:10151000B0EE608AB0EE430A86ED011A01F0E6F8FB
:101520009C4970688842C0F2208186ED018AF7608C
:10153000776186ED048AB068401C55E0B1EBC41FAA
:1015400028D2B4EEC28AF1EE10FA17DB32EE240A8A
:1015500086ED040A00EE104AB8EE400A20EE230A97
:1015600084EE001ABDEEC10A10EE101A591ACA0F05
:1015700001EB823181617069401C706196ED010A56
:1015800030EE221AB0EE430A86ED011A01F0AEF8F1
:1015900000F0EBB8481E70610520C6E9020700F0B4
:1015A000E4B885EE002AB8EEE10AB4EEC02AF1EE06
:1015B00010FA3CBF0620C6E9020750D331EE221ACA
:1015C000B0EE430A86ED011A01F090F8CDE085EE09
:1015D000002AB8EEE10AB4EEC02AF1EE10FA05D204
:1015E000F760C6ED040A0720B060BEE031EE621A73
:1015F000B0EE430A86ED011A01F078F8B5E0002953
:10160000B8BF0820F0DBB4EEC82AF1EE10FA1CD205
:1016100032EE240A86ED040A00EE104AB8EE400AC3
:1016200020EE230A84EE001ABDEEC10A10EE101A55
:10163000591ACA0F01EB82318269114401EBD17151
:10164000491081617069401E706196ED010A30EEAB
:10165000621AB0EE430A86ED011A01F047F884E001
:10166000FFE700200146BCB1002306F114089C46A8
:101670004FEA841BD8F804A01AEB000041EBEA7192
:1016800058F808AF1AEB03034CEBEA7CBBF1010BF3
:10169000F0D1C01841EB0C010023FEF777FDC5F82F
:1016A000240CB0690027C001C11700EB91404FEA3C
:1016B000A03A781E00EBC418C4F10009002004FB16
:1016C00007F3014602464FF0800C23F07E4B00BF2B
:1016D0000BEB0203403B48BF03EBC41303D4984514
:1016E00038BF03EBC91306EB830302F101029B69C8
:1016F000181841EBE371BCF1010CE9D18022002301
:10170000FEF744FD0AEB07017F29C8BF8039D5F8F1
:10171000242C07F10107821A06EB810000F54050E6
:10172000802FC0F8282CC9DB144800210180418893
:1017300021F0040141800120C5F8180C642000F05C
:1017400053FA15484FF40471044604F043FAC5F8FF
:10175000280E4FF405722146104800F063FA01206C
:1017600001F0D0F9B068401CB060F068401CF06037
:10177000BDEC028BBDE8F09F0AD723419C68002096
:10178000DB0FC940880000200000804600000000F8
:10179000DB0FC941DB0FC940A03C002000900108CD
:1017A00010B5084800244FF40071C0F8184CC0F878
:1017B000204CC0F8244C00F62840FEF731FD0248CA
:1017C000846010BD883000208800002010B51048CB
:1017D0004FF405724FF4C8310446FEF708FD4FF48C
:1017E0000471204604F0F6F90A49D1F8282E824205
:1017F00008BF10BD0020C1F8180CC1F81C0CC1F8BE
:10180000240CBDE810404FF400710348FEF708BDFA
:10181000A03C002088300020B03C00202DE9F0479B
:10182000DFF8CC82DFF8CC922DED048BD8F82000C5
:10183000401C1026C8F82000C9F80060AE4C4FF4D8
:101840000341204606F004FA0121204606F02DFA55
:101850000028F9D0204606F0F8F9A84F60F30F05EC
:101860003E60C9F800604FF40441204606F0F0F9EC
:101870000121204606F019FA0028F9D0204606F08A
:10188000E4F960F31F453E60E9B29D4E61F31F200D
:101890008008C6F82C0ED6F8201C21B143F6FF7143
:1018A000081AC6F82C0E0146964FC01107EB8000AF
:1018B00000F54050D0F8282C012000EBE110C317B0
:1018C00000EB536323F07F03C01A07EB800043F65D
:1018D0002843C05821F07F03CB1A801A584302EBEB
:1018E000E010081AD6F8241C401AB0F5804F0BDD22
:1018F000C0F10101CA1701EB924189134942002945
:10190000C4BF494200EB8130002802DA10F5804064
:10191000FCD4C6F8300E397839B1C6F8340E481EFA
:101920003870BDEC048BBDE8F08705F075F9B8F9A7
:101930000800C8F82800D8F81C00C8F82400D6F819
:10194000309ED6F8340EC6F8349EA9EB0005B5F5E6
:10195000005F0BDD6C49481BC11700EB9140801301
:1019600040420028C4BF404205EB803515F5005FBA
:1019700005DA00BF05F5804515F5005FFADB634C1D
:1019800094ED938AD4ED948A9FED619A08EE898A4A
:1019900084ED938AB0EE480A02F04EFD00EE909A74
:1019A000F8EEE00A70EEC00A10EE900A9FED591AA8
:1019B000B0F18C4F07DD00BF70EEC10A10EE900A47
:1019C000B0F18C4FF8DC10EE900AB0F1464F06D91A
:1019D00070EE810A10EE900AB0F1464FF8D894EDFF
:1019E000950A20EE090A00EE208A18EE100A84ED0E
:1019F000938AB0F18D4F0ADD94ED930A30EE410ADF
:101A000010EE100A84ED930AB0F18D4FF4DC94EDE2
:101A1000930AB5EEC00AF1EE10FA08D230EE010AD0
:101A200084ED930AB5EEC00AF1EE10FAF6D394ED08
:101A3000960A20EE090A40EE208AC4ED948AF5EE5B
:101A4000C08AF1EE10FAD8BFF1EE688A94ED970AD9
:101A5000F4EEC08AF1EE10FA3CBF9FED2F0A84ED40
:101A6000940A07F5405007F54051D0F8382ED0F8C9
:101A70003C0E521940EBE570C1F8382EC1F83C0E0F
:101A80002748D4ED930A9FED250AB0F84C004FF09B
:101A9000320220EE801A00EE900A4FF00003F8EEBA
:101AA000600A21EE201ADFED1F0A21EE201A84EDD4
:101AB000911A94ED941A84ED901A21EE001A00EE1A
:101AC000100AB8EE400A21EE000A20EE200A84ED4A
:101AD000920AB6F82C0E80B204F088FBF2EE080AE7
:101AE00080EE201A88ED111ABDEC048BBDE8F0875A
:101AF0003800002014080140003001401008014067
:101B0000883000208800002001E0FFFF883C002092
:101B100017B751380000804600000000DB0FC940B5
:101B20009C6800200000803872B60021014806F051
:101B3000DCFBFEE7002C0140704700002DE9F05F60
:101B40000F1E82464FF000051FDDDFF844804AF685
:101B5000AA264FF0006B00BF0AEB0509EFF31084D3
:101B600072B6C8F8006004F0DFFA3C2004F08CFA8A
:101B70000BEB892004F096FA04F08CFAC8F80060A8
:101B800084F310886D1CBD42E6DB0020BDE8F09FA9
:101B9000003000402DE9FF47054602AE4FF008082F
:101BA000EFF3108772B604F0BFFADFF838A0002414
:101BB0004AF6AA29CAF800903C2004F065FA315987
:101BC000281904F0C3FA10B104F064FA06E0241DE9
:101BD0004445EFD304F05EFA87F3108804B0002088
:101BE000BDE8F087003000402DE9F0410546EFF3F5
:101BF000108472B60A4F4AF6AA263E6004F094FAA0
:101C00003C2004F041FA4FF0006000EB852004F026
:101C100049FA04F03FFA3E6084F31088BDE8F08191
:101C2000003000402DE9F047164688460746EFF39E
:101C3000108572B604F078FA0024002E84BF4AF6AC
:101C4000AA29DFF834A011D9CAF800903C2004F08A
:101C50001BFA58F80410381904F078FA18B1BDE8E6
:101C6000F04704F017BA241DB442EDD304F012FA81
:101C700085F31088BDE8F087003000402DE9F05F63
:101C80005C4F82464FF0006697F8008006EB882094
:101C900000F0B4F80446584DA8F16400A5FB0021FB
:101CA00009096FF00A02514300EB410000F1650998
:101CB00006EB892000F0A2F80146A8F15000A5FB30
:101CC000003212096FF00A035A4300EB42006530FC
:101CD000BAF1000F77D0BAF1010F07D0BAF1020FB5
:101CE00002BF00294846BDE8F09F7BE04FF0200A84
:101CF000022C02D0012C34D074E07868B0F5806FEB
:101D000075D3042908BF652420D100BF06EB8420C9
:101D100000F074F8042803D00B347B2CF6D361E078
:101D2000651C04F10B0B5D4509D200BF06EB852055
:101D300000F064F8042855D16D1C5D45F6D30B21E5
:101D40002046FFF7FBFEE8BBFFF7F6FE0321404607
:101D500002F096F8B0BB0221484602F091F888BB29
:101D600035E07868B0F5806F41D3042908BF652459
:101D700020D100BF06EB842000F040F8042803D0F7
:101D80000B347B2CF6D32DE0651C04F10B0B5D4569
:101D900009D200BF06EB852000F030F8042821D1DD
:101DA0006D1C5D45F6D30B212046FFF7C7FE48B9F1
:101DB000FFF7C2FE0321404602F062F810B901218C
:101DC000484601E00EE007E002F05AF850B94846F4
:101DD000C7F804A0BDE8F09F022C08D0012C08BF72
:101DE000BDE8F09F4FF0FF30BDE8F09FFFE74046B1
:101DF000BDE8F09F78400020A38B2EBA70B4046831
:101E000045688368D0F80CC0016942698669C06979
:101E1000F64376EA00001EBF042070BC7047C8433A
:101E200070EA02001EBF032070BC7047D84370EAFE
:101E30000C001EBF022070BC7047E04370EA050032
:101E400014BF0120002070BC7047FFF76DBE00007A
:101E5000224810B5016C224C491C01642079F128FC
:101E600008BF042032D00ADC012808BF02202DD090
:101E7000022808BF012029D0032807D028E0F22833
:101E800008BF082022D0FF2815D021E0EFF31080F2
:101E900072B60021DFF84CC00A460B46CCF8381E5B
:101EA000CCF83C1E1049C1E91C230022C1E91822CC
:101EB00080F310880CE0208850B110F4704020802E
:101EC00006D1608820F00400608001E000F01AFE76
:101ED000A08800F47F40A080002010BDF03E0020CC
:101EE0009C68002088300020403F00202DE9F05FF2
:101EF0002DED048BEFF3108972B69FED4B8ADFF85E
:101F00002C8198ED141A98ED150AC1EE000A20EE06
:101F1000080ADFED478AB0EE682A9FED469ADFF89F
:101F200018A1B0EE681AF0EE491A0AF1900001F01B
:101F30005BFB98ED141A98ED160AB0EE682AF0EEE5
:101F4000491AC1EE000A20EE080AB0EE681A0AF13A
:101F5000AC0001F049FB0AF58475A5F5AC7B374C64
:101F6000DBF80800411E0029C4BF01260F460EDD24
:101F70003046FEF7FEFA95ED001B53EC112BFEF7F1
:101F800001FA0835761CE4E802017F1EF0D198EDD5
:101F90001A0AD8ED1D0AB8F8B40042F2107130EEFA
:101FA000209A081A00EE100A9FED251A0AF1C800BF
:101FB000F8EEC00AB7EE000A00EE810AD8ED190A61
:101FC00080EE891A60EE001AC8EE210A60EE801ACF
:101FD00081EE810AB0EE681ADFED1A1AB0EE412ADE
:101FE00001F002FBB8F8B600DFED170A00EE100AA8
:101FF0009FED171AB8EE400A20EE200A8AED390A42
:102000009FED120AD8ED190A29EE000A60EE810A46
:1020100080EE201A8BED0F1A89F31088BDEC048B2B
:102020000020BDE8F09F0000D77109459C680020A2
:102030000000000017B75138403F00202068002002
:102040000AD7233C6F128339CDCCCC3DDB0FC9407E
:10205000000080460148007870470000F33E0020F1
:102060002DE9F041984C2DED048B2078002804BF19
:10207000BDEC048BBDE8F081944DA878401CC0B243
:10208000A8700A2824BF0020A8709148008800EE9C
:10209000100AB8EE400ADFED8F0A20EE200ADFEDCD
:1020A0008E0A20EE200AD4ED010A9FED8C1A00EE74
:1020B000810A84ED010A9FED8A1A20EE010ADFED04
:1020C000890A894820EE200A84ED020A00688749BF
:1020D00080B2B1F90010401A00EE100AB8EEC00A42
:1020E000DFED830A834820EE200A84ED030A0068AE
:1020F000814980B2B1F90010401A01EE900A7F4880
:10210000F8EEE11A61EEA01AC4ED041A00687C49E9
:1021100080B2B1F90010401A02EE100AB8EEC22ADD
:1021200062EE200AC4ED050A84ED060A31EEE00AEB
:1021300020EE010A84ED070AFFF770FB714E96ED61
:10214000910A03F019F9F0EE400A96ED910AB0EE0B
:10215000608A03F0CFF8D4ED061A94ED072A21EE39
:10216000801A22EE000A02EE081A01EEC80A84ED77
:10217000081A84ED090ADFED640A94ED0A2A61EE7B
:10218000201A9FED621A20EE200A42EE011AC4EDD9
:102190000A1AD4ED0B0A00EE810A84ED0B0AA87826
:1021A00000284FD1FFF7E2F800EE100A584F5948C7
:1021B000B8EEC00A87ED100A0068002818BF03F0C7
:1021C00067FB55485649574AD0ED000A5348C4EDBD
:1021D0003E0A90ED000A84ED3F0A94ED3D1A71EE3F
:1021E000600AC5ED120A94ED161A31EE400A85ED2B
:1021F000130A94ED3A1A61EE200A94ED3B1A41EE6F
:10220000000A94ED3C0A30EE800A10EE100A85EDCB
:10221000110A884206D210EE100A9042C8BFB3EEEF
:102220000E0A05DC10EE100A884228BFBBEE0E0A2B
:1022300085ED110AD7ED190A80EE201A84ED151AE2
:1022400005F01AFA94F88D0010F0040F37D094EDD1
:10225000021A94ED0A0A9FED349AF1EE410A94EDC8
:10226000158AF0EE601AB1EE400AF0EE492AB0EE9F
:10227000412A04F1900001F0C4F994ED021AF0EE45
:10228000408A94ED0B0AF1EE410AF0EE492AF0EE95
:10229000601A38EE400AB0EE412A04F1AC0001F0B9
:1022A000B0F9F0EE400A96ED911A96ED920ADFED44
:1022B0001F1A00EE211AB0EE680A00F017FABDEC02
:1022C000048BBDE8F0810000403F0020F03E00207C
:1022D0001E00002063A6CC3C226CF83EEFC9033FF1
:1022E0003ACD133F3333733F3C24014018000020A4
:1022F000C00DDC3C402401401A0000203C28014075
:102300001C000020883C0020CDCC4C3ECDCC4C3F66
:102310009C6800204C000020500000207C00002021
:102320000000F0C10000F0410000000017B7513874
:10233000104810B5104990ED2E0A81ED0B0A90ED72
:102340002F0A81ED0C0A90ED300A81ED0D0A90ED17
:10235000310A81ED0E0AFFF7C9FD09489FED070A12
:1023600080ED200A9FED070A80ED1F0ABDE81040AE
:1023700004F0F2BD9C680020F03E00200000C8423E
:10238000403F002000401C4570B5BE4DBE482DEDBD
:10239000088B29690268511ADFEDBC8ABC4C0A29F6
:1023A0007DD301680029016808BF491C2961218883
:1023B00051B111F0800F07D111F47041218003D188
:1023C000618821F004016180B249D5ED0A0A91EDDE
:1023D000901A21EE200AB5EEC00AF1EE10FAD8BF2D
:1023E00021EE600AD4ED290AF4EEC00AF1EE10FAEB
:1023F0007DDDA96951B10068401AB4F8A81088427F
:1024000009D3608840F01000608004E00168002972
:102410006ED1D9E0A861A04EB08800EE100AB8EEE7
:10242000400A9FED9E8A60EE080ADFED9D9A80EEDD
:10243000A90A9FED9C9AF7EE00AA20EE091A38EE41
:10244000400AC1EE000A9FED98AA9FED98BA80EE6F
:10245000890A02F029F80BEE00AA8AEE8A0ADFED5B
:10246000940A944930EE600A10EE100A84ED0D0AC9
:102470008842C4BF0820FEF775FB70888E4A00EEC4
:10248000100A0020F8EE400A80EEA90A20EE080AA1
:1024900060EE090A38EE401A80EE810A00E05CE046
:1024A00002EBC001D1ED010A91ED031AB4EEE00A8E
:1024B000F1EE10FA76D8B4EEC10AF1EE10FA71DB43
:1024C00070EE602A71EE600A02EBC000D0ED001AD7
:1024D00082EEA00A90ED022A72EE610A40EE201A06
:1024E000764911EE900AC4ED0E1A884201E063E0CD
:1024F00068E0C4BF1020FEF735FB94ED070AB5EE87
:10250000C00AF1EE10FAD8BFB1EE400AD4ED180AB5
:1025100094ED191A00EEC10AB5EEC00AF1EE10FAF8
:10252000D8BFC5ED088A0FDDD5ED080A30EE800A68
:1025300085ED080AD4ED200AF4EEC00AF1EE10FA97
:102540003CBF4020FEF70EFB5D48D0F8300E00EE99
:10255000100AB8EEC00A84ED0F0A94F8D3100029CF
:1025600004BFBDEC088B70BD4FF0E0226869936931
:10257000C01A44BF6FF07F431844DFF848C10023FE
:10258000CCFB00308311A3EBE070B0F5FA7F3CBFC9
:10259000BDEC088B70BD9069F0EE680A68610D298A
:1025A0005CD200E013E0DFE801F0592023272B3252
:1025B000363E59464D545700618821F01001618024
:1025C000016809B1006825E70068401C22E7401C4B
:1025D000CD28FFF463AF10EE100A3B498842CCBF10
:1025E000DFED3A1ADFED3A1A7AE7D4ED070A35E063
:1025F0003848D0ED150A31E03748D0ED000A2DE01B
:102600003648008800EE100AF8EE400A26E034480A
:1026100090ED000A04E03348B0F9000000EE100A23
:10262000F8EEC00A1AE03048B0F9000000EE100AD7
:10263000F8EEC00A12E0B4F8CC0000EE100AF8EE92
:10264000400A0BE0B4F8CE0000EE100AF8EE400AA3
:1026500004E0D4ED0F0A01E0D4ED100A687848B127
:102660000020687095ED070ABDEC088BBDE870404E
:10267000FEF746BA01206870C5ED070ABDEC088B6D
:1026800070BD0000F03E00200800002000000000A7
:102690009C680020883C00201E00002033335340FB
:1026A00000F07F4500401C460FCF5B3B2CBB8439BC
:1026B000339388430000AA42348300080000164385
:1026C000883000208988888800E9364900005CC28B
:1026D00000001643403F002050000020480000202A
:1026E000E83E0020180000201A00002010B59B4C86
:1026F000F7EE082A2DED048BF0EE401AB0EE418A79
:1027000094ED012A82EE820A61EE801A20EE800AA0
:10271000C4ED0C1A84ED0D0AB0EE480A02F02CFE4E
:10272000F0EE408AB0EE480A02F0E4FDD4ED0C1A57
:10273000F0EE400A94ED0D1A21EEA08A08EEC18A4F
:1027400061EEA88A40EE818A9FED859A28EE080AFC
:1027500008EEA80AF0EE400AB1EEE00AB4EE400A34
:10276000F1EE10FA1CBFB0EE600A01F0B9FFB5EE51
:10277000C09AF1EE10FA98BF9FED7A9A10EE100A07
:10278000794988427EDB00BFB4EEC90AF1EE10FA47
:1027900005DDC9EE000A28EE208A68EEA08A9FEDCA
:1027A000731A9FED730A40F6B830DFED720AF5EE4A
:1027B000C08AF1EE10FA46DBDFED6F1AB5EEC08A83
:1027C000F1EE10FA1EDB28EEA01AB4EEC18AF1EE8B
:1027D00010FA7DD308EEE08A68EE000AFCEEE00A0B
:1027E00010EE901A68EEA10A401A20EE800ABCEEA4
:1027F000C00A10EE103AC01AC0F34F02501881B24E
:10280000C81883E028EE811AB4EEC18AF1EE10FAFE
:1028100063D228EEA11A21EE001ABCEEC11A11EE05
:10282000103AB1EE481A08EEE01AC01A21EE000A7A
:10283000BCEEC00A10EE102A801AC0F34F01C8186F
:1028400080B2024447E0DFED4D1AB5EEC08AF1EEEA
:1028500010FA20DB28EE811AB4EEC18AF1EE10FAEC
:1028600056D328EEA11A08EEA08A21EE001A28EE0F
:10287000000ABCEEC11ABCEEC00A11EE101A10EE2E
:10288000103A00E067E0401AC01AC0F34F02D018B7
:1028900080B2014455E028EEA01AB4EEC18AF1EEF0
:1028A00010FA35D218EEA08A68EE000AFCEEE00AB3
:1028B00010EE902A68EEA10A801A20EE800ABCEE83
:1028C000C00A10EE101A401AC0F34F00014400E095
:1028D00003E089B20A4492B234E0B0EE481A18EE2E
:1028E000A08A08EEA01A21EE001A28EE000ABCEE1B
:1028F000C11ABCEEC00A11EE103A10EE102AC01A2E
:10290000801AC0F34F01881882B2D01880B219E043
:10291000B1EE481A08EEE08A08EEE01A21EE001A3D
:1029200028EE000ABCEEC11ABCEEC00A11EE101A65
:1029300010EE103A401AC01AC0F34F0001448AB298
:10294000D11889B20E4B1A601A1F1160111F08604E
:10295000BDEC048B10BD9FED0B0A15E7403F002036
:102960000C9E523F0C9E52BFFFE6DB2E3ACD13BFAA
:1029700000803B453ACD133F3ACD933F3ACD93BFCC
:102980003C2C0140FFE6DB2E054890F86C00002847
:1029900018BFB1EE400A034880ED140A70470000EA
:1029A0009C680020403F00200D4880ED020A90F80E
:1029B0006C10002918BFB1EE400A0A490122002319
:1029C000C1ED0B0A0A705031C1F88430438823F0FE
:1029D0000803438081ED140A81F844207047000009
:1029E0009C680020F03E00202048DFED211A21499C
:1029F00090ED171A21EE211AD1ED0A1A61EE211A73
:102A0000B1EE611AB4EEC10AF1EE10FACCBFB0EE2D
:102A1000402AB0EE412AB4EEE12AF1EE10FAC8BF26
:102A2000B0EE610A06DCB4EEC10AF1EE10FAD8BFCE
:102A3000B0EE410A80ED030A90F86C20002A18BF1E
:102A4000B1EE400AC1ED0C0AC1ED0D0A01220A7077
:102A500009490023C1F88430438823F008034380E8
:102A600081ED130A81F84420704700009C68002023
:102A700000008046F03E0020403F0020124890F8C1
:102A80006C1090ED020A002918BFB1EE400AD0ED9B
:102A90002E0A0E49C1ED0B0AD0ED2F0AC1ED0C0A2A
:102AA000D0ED300AC1ED0D0AD0ED310AC1ED0E0AAC
:102AB000418821F0080141800548012180ED140A78
:102AC00080F84410002070479C680020F03E0020F1
:102AD000403F002009480A4990ED2E0A81ED0B0A7B
:102AE00090ED2F0A81ED0C0A90ED300A81ED0D0A70
:102AF00090ED310A002081ED0E0A70479C6800209D
:102B0000F03E002000B51949002283B001281FD0F3
:102B1000022820D004281BD008281EBF6FF009000F
:102B200003B000BD42F2030003218DF80010694696
:102B300000F024FC0EA142F202000968019101A9F3
:102B400000F052FC0B490120086003B0002000BDDA
:102B500048708A70F9E7084B1A809B79002B08BFF0
:102B60006FF00100F4D103B000BD0000F33E00207F
:102B7000010000004C0000209C6800200249012058
:102B800081F8440070470000403F0020214890ED4C
:102B90001E1AD0ED040AB1EE410AF4EEC00AF1EEBD
:102BA00010FACCBFF0EE601AF0EE401AF4EEC11A43
:102BB000F1EE10FAC8BFB0EE410A06DCF4EEC00A2E
:102BC000F1EE10FAC8BFB0EE600A80ED040A90F88A
:102BD0006C10002918BFB1EE400AD0ED2E0A0E4944
:102BE000C1ED0B0AD0ED2F0AC1ED0C0AD0ED300A71
:102BF000C1ED0D0AD0ED310AC1ED0E0A418821F078
:102C0000080141800548012180ED120A80F8441036
:102C1000002070479C680020F03E0020403F0020CC
:102C20002548DFED260A264990ED170A20EE200AF6
:102C3000D1ED0A0A20EE201AD0ED030AB1EE410AC6
:102C4000F4EEC00AF1EE10FACCBFF0EE601AF0EE2E
:102C5000401AF4EEC11AF1EE10FAC8BFB0EE410A04
:102C600006DCF4EEC00AF1EE10FAC8BFB0EE600A5E
:102C700080ED030A90F86C20002A18BFB1EE400ADC
:102C8000D0ED2E0AC1ED0B0AD0ED2F0AC1ED0C0AD2
:102C9000D0ED300AC1ED0D0AD0ED310AC1ED0E0ABA
:102CA000418821F0080141800648012180ED130A86
:102CB00080F84410002070479C6800200000804687
:102CC000F03E0020403F0020014890F84C00704743
:102CD000486800200248002180F84C1001657047C8
:102CE0004868002000B52DED088BF0EE428A30EEEA
:102CF000602AB0EE438A30EEC03AB0EE629AB5EE8A
:102D0000C02A95B0F1EE10FAD8BFB0EE432A12EE09
:102D1000100A7C498842BFBF4FF0FF3015B0BDECB0
:102D2000088B00BD13EE100AC00F14BFFFEE002A7F
:102D3000F7EE002ACDED002A22EE802A22EE810A4B
:102D400022EEA11A22EEA03A8DED012AB5EEC01AAC
:102D50008DED023AF1EE10FA8DED030A8DED041AB5
:102D60003FBF6FF0010015B0BDEC088B00BDDFED7B
:102D7000661AF0EE000AB5EEC00A68EE209AF1EE8F
:102D800010FA18D260EE403A8DED088AC3EEA92AF7
:102D9000F1EE403A83EE884ACDED092A8DED0A4ADC
:102DA0008DED0B2A8DED0C0A32EE220A8DED010A13
:102DB000CDED031A23E0B4EEE80AF1EE10FAD8BF25
:102DC000CDED0A1A1BDD60EE002AF1EE481ACDEDBA
:102DD000081A48EEE82AC2EEA91A70EE682AC2EE76
:102DE000883ACDED091ACDED0A3A8DED0B2A8DED1D
:102DF0000C0A32EE210A8DED010ACDED038A9DED1C
:102E0000030A69EE20BA21EE01AA20EE00BA9DED78
:102E1000010A39EE081A73EE40AA2BEE880A20EE5A
:102E20002A0A09EE0A0A08EE0B0AC0EE010AF5EEBC
:102E3000C00AF1EE10FA3FBF6FF0020015B0BDEC12
:102E4000088B00BDB1EEE00AB4EE400AF1EE10FAD4
:102E50001CBFB0EE600A01F043FCB4EEE80AF1EEEC
:102E600010FA4CDCDDED031AF4EEC01AF1EE10FAA4
:102E7000DDBF9DED041AB4EEC01AF1EE10FA6FF04A
:102E80000300C2BF15B0BDEC088B00BD60EE000AA8
:102E900070EE611A30EE411A002070EECB2A5422F7
:102EA000694682EEAB2A70EECA2AC2EEA90A8DEDFF
:102EB0000D2A3AEEC22ACDED0F0A72EE600A81EEBB
:102EC000892ACDED0E0AC1EE081A8DED102A80EE8A
:102ED000801ACDED121A8DED111A8DED070A8DEDC8
:102EE000059A8DED068A149001208DF84C00074854
:102EF000FDF77DF915B00020BDEC088B00BDB0EEEC
:102F0000680AAFE7BD37863500000000486800203A
:102F1000534B93F84CC0BCF1000F08BF704710B47E
:102F2000D3F850C000EE10CA0CF10104B8EE400A0C
:102F3000DFED4C0A1C6593ED0A2A60EE201AF6EECE
:102F4000002AB4EEE12AF1EE10FA10DD93ED0B0A3F
:102F5000D3ED0C0A93ED081A00EEA10A21EE222A05
:102F600061EEA12A41EE210A02EE220A63E093ED0E
:102F7000103ADFF8ECC072EE030A9CED010AF4EEA1
:102F8000E10AF1EE10FA10DD71EEC21AD3ED030A78
:102F900093ED051A00EEA10A21EE222A61EEA12A84
:102FA00041EE210A02EE220A45E093ED114ADFF8D4
:102FB000B0C09FED2D1A70EE843A9CED0D0ADCED49
:102FC000010AF4EEE13A30EE800ADCED070AF1EE98
:102FD00010FA06DD71EEC21A71EEC31A00EEA10AF4
:102FE00029E0D3ED124A73EEA43AF4EEE13AF1EEA1
:102FF00010FA18DD31EEC21AD3ED0E1A31EE431A73
:1030000030EE210AD3ED061A31EE441A21EEA22A3F
:1030100000EE810A61EE012A41EEC10AB1EE611AA9
:1030200002EE620A07E093ED020AD3ED040A4FF0C4
:10303000000C83F84CC0D3ED001A21EE800A80ED1D
:10304000000A93ED000A20EE200A81ED000A93EDBC
:10305000000A20EE010A82ED000A10BC7047000051
:10306000486800206F12033A0000000030EEC02ACA
:10307000F4EEC00AF1EE10FA02DDC2EE011A09E028
:1030800024BF9FED0C1AF0EE411A03D2B1EE411AA3
:10309000C2EE011A084800210165012180F84C1098
:1030A00080ED051AC0ED101A80ED030AC0ED040A88
:1030B000704700000000000048680020134991F8A4
:1030C0004C20002A08BF70470A6D00EE102A531CDE
:1030D000DFED0F0AB8EE400A0B6520EE200AD1EDB5
:1030E000100AF4EEC00AF1EE10FADDBFD1ED040AC9
:1030F000002281F84C20D1ED030AC4BF91ED051ADE
:1031000041EE000AC0ED000A704700004868002048
:103110006F12033A30EEC04A9FED2A2AF4EEC00A3D
:10312000B1EE403AF1EE10FA0ADDB5EEC00AF1EE6A
:1031300010FA1DDAF5EEC00AF1EE10FA08D920E017
:1031400026D2F5EEC00AF1EE611AF1EE10FA08DBB4
:10315000C4EE212AB0EE421AF0EE603AB0EE413AE7
:103160001EE0B5EEC00AB1EE411AF1EE10FA08D831
:1031700084EE013AF0EE421AF0EE403AF0EE612AA7
:103180000EE0C3EE212AF0EE423A80EE813A07E0EB
:10319000F0EE421AF0EE612AB0EE611AB0EE613A3A
:1031A000094800210165012180F84C10C0ED122A68
:1031B00080ED103AC0ED073A00F10C0181EC040AF1
:1031C0007047000000000000486800201E4A92F886
:1031D0004C30002B08BF7047136D00EE103A03F11E
:1031E000010CDFED1A0AB8EE400AC2F850C060EEDA
:1031F000200A92ED120AB4EEE00AF1EE10FAC4BF12
:1032000092ED031A92ED060A0EDC92ED101A30EEE2
:10321000011AB4EEE01AF1EE10FA08DD70EEC00A01
:1032200092ED071A92ED050A00EE201A06E092EDE3
:10323000041A9FED070A002382F84C3080ED001A33
:1032400081ED000A70470000486800206F12033AC1
:1032500000000000FEF768BCFEF766BC70B5184EB3
:103260003D20708002F0F4FC0020FDF745FE7088E0
:1032700000240028CCBF134D70BD00BF05EB041027
:10328000417A11F0040F15D0017A012904D00229E6
:1032900007D004290AD00DE041680088FEF70CF839
:1032A00008E041680088FDF7DFFF03E0416800881F
:1032B000FDF7EEFF7088641C8442DFDB70BD000008
:1032C00070400020A489000830B50C46014600205B
:1032D00020608025084602F09BFE00281CBF417A32
:1032E00011F0010F2ED0017A012906D0022909D050
:1032F00003290FD0042918D024E040684F25007816
:1033000020701FE041684B250978217040684078A3
:10331000607017E041684725097821704168497855
:10332000617040688078A0700CE04168432509789E
:10333000217041684978617041688978A17040685E
:10334000C078E070284630BD0B4810B590F8D20028
:10335000EE281CBF4FF0FF3010BDFEF77BFE0128AA
:103360001CBF0120FFF7CEFB02F072FC0020FDF72E
:103370007DFD002010BD00009C68002070B50E4649
:10338000802502F045FE04001CBF607A10F0020F99
:1033900026D0207A012823D16068317802788A42C9
:1033A00017D00170607A10F0040F12D02088FDF75A
:1033B000C5FF10F0FF0F05D010F4807F18BFFDF798
:1033C00025FD0DE0602510F4807F18BFFDF71EFD80
:1033D00000E06025E06818B18047002818BF80250C
:1033E00000203060284670BD2DE9F0470E4680462B
:1033F000802502F00DFE04460027A8F50050703825
:1034000009D0002C1CBF607A10F0020F6FD0207A18
:10341000022879D09CE05048DFF840914FF0010835
:10342000B0F82C0E308089F80080002C1CBF607A28
:1034300010F0020F26D0207A022823D1606831884C
:1034400002888A4217D00180607A10F0040F12D0EF
:103450002088FDF745FF10F0FF0F05D010F4807FA6
:1034600018BFFDF7D3FC0DE0602510F4807F18BF76
:10347000FDF7CCFC00E06025E06818B1804700282B
:1034800018BF8025376042F2710002F0C1FD0400D0
:10349000334890ED100ABCEEC00A10EE100A81B25B
:1034A00031801CBF607A10F0020F16D0207A0228FB
:1034B00013D1606802888A421BD00180607A10F0C4
:1034C000040F16D02088FDF70BFF10F0FF0F07D078
:1034D00010F4807F18BFFDF799FC602D10D109E032
:1034E000602510F4807F18BFFDF790FC02E02FE00C
:1034F0000AE06025E06818B18047002818BF8025E1
:10350000376089F8018024E06068318802888A4247
:1035100017D00180607A10F0040F12D02088FDF7D8
:10352000DFFE10F0FF0F05D010F4807F18BFFDF70D
:103530006DFC0DE0602510F4807F18BFFDF766FC80
:1035400000E06025E06818B18047002818BF80259A
:1035500037602846BDE8F0878830002070400020A2
:103560009C68002070B50E46802502F051FD0400D5
:103570001CBF607A10F0020F26D0207A042823D1D5
:103580006068316802688A4217D00160607A10F082
:10359000040F12D02088FDF7BAFE10F0FF0F05D0FF
:1035A00010F4807F18BFFDF731FC0DE0602510F4AA
:1035B000807F18BFFDF72AFC00E06025E06818B1A5
:1035C0008047002818BF802500203060284670BD45
:1035D0009FED040A80ED040A80ED050A80ED060ADD
:1035E000704700000000000080ED000A20EEA10AF4
:1035F00080ED010A81EE210A80ED020A80ED032AA6
:103600007047B0EE403A90ED000A90ED014AF6EEB8
:10361000004A60EE033A20EE044A90ED050A31EECE
:10362000631A30EE030A60EE244A90ED040A04EEB9
:10363000240A80ED040AB4EEC10AF1EE10FAC4BF08
:1036400080ED041AB0EE410A0ADC70EEE30AB4EE33
:10365000E00AF1EE10FAD8BFB0EE600A80ED040A7D
:1036600030EE230A30EE220AB4EEC20AF1EE10FA6E
:10367000C8BFB0EE420A04DCB4EEE10AF1EE10FA83
:1036800002D380ED053A7047B0EE610AF9E7000019
:103690002DE9F84F4FF000075FEA02098A46054618
:1036A00000970CBF02200120FEF7E8FA0446B0F1B3
:1036B000FF3F04BF0420BDE8F88F5C4E2020B9F125
:1036C000000F77803470706005D10121204600F032
:1036D000D7FB002843D1564FA4F15000A7FB00218F
:1036E00009096FF00A02514300EB410000F1650443
:1036F0004FF0006808EB8420FEF780FB022809D019
:1037000004280ED0B9F1010F0CBF03280A2027D0DE
:10371000BDE8F88F4FF00401204600F0B1FB00280F
:1037200078D1A4F15000A7FB002109096FF00A022B
:10373000514300EB410000F1650408EB8420FEF7E3
:103740005DFB032805D00428EBD0B9F1010F07D0A9
:103750003CE00421204600F093FB0028E1D059E032
:103760003478D6F80430202000EB84224FF000613A
:10377000895802F100625268C94371EA020107D018
:1037800071880830491C08337180B0F5806FEBD325
:103790004FF00009C6F80430A4F15000A7FB002147
:1037A00009096FF00A02514300EB410000F1650482
:1037B00008EB8420FEF722FB032807D1708809F16B
:1037C00001097C307080B9F1160FE5D351462846C7
:1037D00000F0D8FCF0B9708803282ABF841E0124A9
:1037E000652C0DD2AC4208D0A0B2694600F024F896
:1037F00098B1072818BFBDE8F88F641C652CF1D379
:103800000221307800F03CFB002804BF4FF48070A8
:10381000BDE8F88F0220BDE8F88FA0B2009900F053
:10382000B1FC0028E9D0BDE8F88F00007840002006
:10383000A38B2EBAFEF778B92DE9F34F824683B0F9
:103840000020FEF71BFA0746B0F1FF3F02BF03203E
:1038500005B0BDE8F08F4FF0006B0BEB87284046BA
:10386000FEF7CCFA4FF0000942E000BF08EB06007B
:1038700005684468E84370EA040024D0A8B25045C3
:1038800021D18DF80040210A8DF80110210C8DF80E
:1038900002108DF80400210E000A8DF803108DF837
:1038A00005000621684602F06BF96FF30F052A0C3C
:1038B00042EA094189B2814205D10498046005B009
:1038C0000020BDE8F08F083E202ECFD20E49A7F190
:1038D0005000A1FB002109096FF00A02514300EBDF
:1038E000410000F165070BEB87284046FEF786FA9A
:1038F00002281ABF032804284FF47E76B6D005B0FC
:103900004FF00700BDE8F08FA38B2EBA2DE9F05FD2
:103910000024DFF8AC802746264625460121404694
:1039200004F073FC0121404604F072FC0028F9D039
:103930000121404604F069FCDFF88890DFF888B088
:1039400009F1040A0121404604F062FC012810D16B
:103950000121404604F059FCD9F8000017FA80F71D
:10396000DAF8000016FA80F6DBF8000015FA80F5A8
:10397000641C402CE6DB97FBF4F096FBF4F102B2FA
:1039800095FBF4F3114809B21BB202804180838099
:103990000020A2F25152B2F57A7F88BF4FF0FF307B
:1039A000A1F25151B1F57A7F88BF4FF0FF30A3F2F9
:1039B0005151B1F57A7F88BF4FF0FF30BDE8F09FDD
:1039C000002C01403C2401403C280140180000200C
:1039D0002DE9F04F99B0B8B1012803BF05204FF091
:1039E000090A814604201CBF4FF00A0A814681B1B2
:1039F000012914D0022901D0032916D00A27042650
:103A00004FF00108354615E0082082464FF00609C0
:103A1000EDE74FF004080A27464645460AE00A2724
:103A200004264FF00208354604E0082703264FF02D
:103A300001080225129004204D4C0D9002212046D1
:103A400001F0B3FE204601F0EFFC206840F4004096
:103A50002060206810F4004FFBD14649086810F040
:103A6000020FFBD00121424801F0C9FE4FF0010BCB
:103A700000248DF820B08DF821B00D988DF81840F5
:103A8000401E8DF81900AAF101008DF81A00A9F165
:103A900001008DF81C408DF81B008DF81DB01298A8
:103AA0008DF81E40ADF822008DF81FB006A93048F1
:103AB00001F0C4FD04208DF800B08DF845008DF8AC
:103AC00001B08DF844008DF802B0109410A8CDE933
:103AD0000104781E8DF81100701E8DF81200681E0A
:103AE0008DF810000394ADF814806946204801F069
:103AF000B5FCADF85440ADF85AB01C2001F07CFC88
:103B00000A20ADF85600ADF84C40ADF850408DF8A5
:103B10005CB0ADF85840ADF84E40ADF8524013A837
:103B200001F012FD0021124801F048FE0121104869
:103B300001F044FE02210E4801F040FE0E480168EB
:103B400011F0030F07D0016841F020010160016806
:103B500011F0030FF7D10221054801F02BFE0022DE
:103B60001146142003F092F919B00020BDE8F08F3F
:103B700000640040046400400C6400400848016890
:103B800011F0806F04BF016811F0006F05D100686B
:103B900010F0805F04BF01207047002070470000D4
:103BA000086400403D490A6812F0806F18BF002188
:103BB00064D0090101F1804303F5C043D3F88015B7
:103BC00001F00101C3F880150288002141EA425149
:103BD000C3F88015026800214FF0080CBCEB126F8F
:103BE00028BF110E2FD24FF00C0CBCEB126F28BF68
:103BF000092128D24FF0100CBCEB126F28BF0A210C
:103C000021D24FF0140CBCEB126F28BF0B211AD23B
:103C10004FF0180CBCEB126F28BF0C2113D24FF0E1
:103C2000200CBCEB126F28BF0D210CD24FF0300CD2
:103C3000BCEB126F28BF0E2105D24FF0400CBCEB3D
:103C4000126F28BF0F2141F0A002C3F88425144A47
:103C500000F10400515CC91C890807D050F8042BFE
:103C6000C3F88825491E11F0FF01F7D1D3F880056C
:103C700040F00100C3F88005002070470A6812F088
:103C8000006F18BF012194D1096811F0805F14BF43
:103C900002214FF0FF308CD17047000008640040D3
:103CA0001483000810B5FFF77DFF002818BF10BD72
:103CB000012001F0BFFF002010BD000010B54FF043
:103CC000E0206FF07F4141610021816105210161A8
:103CD0002F4C0421204601F032FA0421204601F045
:103CE0005CFA204601F0B5F90A2001F0A3FF204656
:103CF00001F056F90121204601F0BFFA04212046C7
:103D000001F04BFA0421204601F030FA214C204604
:103D100001F09FF90A2001F08DFF204601F040F9E3
:103D2000201501F07FFF1C4C204604F069FA0121A8
:103D3000204604F0E3FA194840F2DC510160001F0C
:103D40000160001F016000221146204604F05EF968
:103D500000220121204604F059F9002202212046C8
:103D600004F054F900221146204603F0DCFF002243
:103D70000121204603F0D7FF00220221204603F054
:103D8000D2FF2046BDE81040012104F0AEBA000089
:103D90000024014000280140002C01403C2C01403F
:103DA00010B5174C00221146204604F02FF90022CE
:103DB0000121204604F02AF900220221204604F0C5
:103DC00025F900221146204603F0ADFF0022012113
:103DD000204603F0A8FF00220221204603F0A3FFA3
:103DE0000121204604F011FA0121204604F010FAC6
:103DF0000028F9D02046BDE81040012104F005BAA2
:103E0000002C01401B4910B540F2DC500860091F2E
:103E10000860091F0860184C0121204604F0F5F9DC
:103E20000121204604F0F4F90028F9D001212046B0
:103E300004F0EBF901220021204604F0E7F801220A
:103E40001146204604F0E2F801220221204604F047
:103E5000DDF804220021204603F065FF0422012141
:103E6000204603F060FF20460422BDE810400221F6
:103E700003F059BF3C2C0140002C0140FDF754BE1B
:103E80002DE9F0414FF0006202EB802C1C4A1F4DDF
:103E900002EB80281B4AC4B202EB80271A4A012990
:103EA00002EB802606D002290DD0032913D0042965
:103EB00019D022E04FF0AA3213466046FDF76AFEA1
:103EC000C0B92C7019E04FF0AA3213464046FDF7F6
:103ED00061FE78B9F5E74FF0AA3213463846FDF790
:103EE00059FE38B909E04FF0AA3213463046FDF7C3
:103EF00051FE10B10220BDE8F0810020BDE8F08144
:103F00000800000810000008180000087840002091
:103F10002DE9F04104462DED068B9FED4D8B90ED84
:103F2000061B90ED040B53EC112B51EC100BFCF71E
:103F300082F994ED021B94ED000B41EC190B53EC4C
:103F4000112B51EC100BFCF79DFB9CBFB0EE490A06
:103F5000F0EE690A0AD994ED000B53EC182B51ECE2
:103F6000100BFCF777FB94ED040B07D8B0EE481A62
:103F7000F0EE681ABDEC068BBDE8F08153EC102B17
:103F800051EC190BFCF7F8F994ED021B94ED000BC2
:103F900041EC1A0B53EC112B51EC100BFCF764FAAB
:103FA0009FED2D8B53EC182BFCF7ECF90F460546D3
:103FB00047EC100B00F050F99FED291B51EC100B52
:103FC00053EC112BFCF7DBF99FED270B41EC190BA0
:103FD00053EC102B51EC1A0BFCF7D4F9884648EC43
:103FE000100B064653EC192B51EC100BFCF7CAF9D9
:103FF00094ED040B53EC102BFCF71DF941EC190B5D
:1040000047EC105B00F008FBB0EE40AAF0EE60AAAF
:1040100094ED020B51EC180B53EC102BFCF724FA27
:1040200041EC110B48EC106B53EC112B51EC100BC5
:10403000FCF7A8F953EC1A2BFCF7A4F9B0EE490AE7
:10404000F0EE690ABDEC068B41EC110BBDE8F08186
:10405000000000000000000000000060FB2109409B
:10406000000000000000F03F000000000000E03F02
:104070003948016841F4700101603848016841F035
:104080000101016000214160C162016821F4102139
:1040900021F0A85101604FF47F018160016821F493
:1040A000802101600268002142F4803202604FF6F4
:1040B000FF730268491C12F4003F01D19942F8D104
:1040C000016811F4003F45D025490A6822F0070233
:1040D00042F003020A604168416041684160416802
:1040E00041F480614160416821F4701121F0005178
:1040F0004160416841F4541141F000514160C16A8E
:10410000184A1140C162C16A41F0190141F4843179
:10411000C162016841F080610160016811F0006FC7
:10412000FBD0016841F080710160016811F0007FEF
:10413000FBD0416821F003014160416841F0020178
:104140004160416811F0080FFBD000214FF0006082
:1041500002F0F8BEFEE7000088ED00E0001002402B
:104160000020024000F0FEBF4FF080416FF00100E0
:10417000086102480168491C01607047080000207E
:10418000FDF7D2BC2DE9F041254E05460C4670885E
:10419000002740F2545182B0884222BF112002B061
:1041A000BDE8F0810120FDF769FDB0F1FF3F02BFDE
:1041B000032002B0BDE8F0814FF0006101EB8028E0
:1041C00054EA050014D08DF80040200A8DF8010053
:1041D000200C8DF80200200E8DF803008DF804509D
:1041E000280A8DF805000621684601F0C9FC07463B
:1041F000706845EA074240442346FDF7CBFC00289F
:104200001EBF022002B0BDE8F08170680830706007
:104210007088401C708002B00020BDE8F081000072
:104220007840002003B401984100009850EAC12072
:1042300018BF04204A0D18BF40F0010040F2FF7281
:10424000B2EB515F08BF40F00200012808BF052013
:1042500002B070470000000010B52F499FED2C1BE5
:104260002DED020B84B0059820F000408842D8BFA5
:104270009DED040B2DDD2949884209D1049840B9F0
:104280004FF0010000F086FE00F03EFE06B010BDCB
:1042900005DB9DED040B00F02BFE06B010BD68465B
:1042A0009DED040B00F03CFA10F0030004BF9DEDFF
:1042B000021B9DED000B0CD001280ED09DED021BC2
:1042C0009DED000B022817D0012000F079FD06B00B
:1042D00010BD00F041FC06B010BD9DED021B9DED30
:1042E000000B012000F06CFD51EC100B81F000413F
:1042F00006B041EC100B10BD00F02EFC51EC100B81
:1043000081F0004106B041EC100B10BD0000000030
:104310000000000000000000FB21E93F0000F07FEA
:104320002DE9F0412DED020B9FED3D0B2DED028BA4
:104330009FED3D8BDDE90254C4F30A50A0F2FF3635
:10434000142E37DA002E18DA53EC102B9DED020BE9
:1043500051EC100BFBF76FFF53EC182BFCF792F9A5
:1043600057D2002CA4BF0024254652DA24F0004086
:10437000284318BF2E4C4CD01AE02E4820FA06F7DE
:1043800004EA070028431FD053EC102B9DED020BCD
:1043900051EC100BFBF74FFF53EC182BFCF772F9A5
:1043A00037D2002C03DA4FF48010F0400444BC43B1
:1043B00000252EE0332E07DCA6F114004FF0FF316C
:1043C00021FA00F73D4206D19DED020BBDEC028BB8
:1043D00002B0BDE8F08153EC102B9DED020B51ECC7
:1043E000100BFBF7CCFF53EC182BFCF74BF910D25A
:1043F000002C0DDA142E08BF641C09D0C6F134005D
:10440000012101FA00F02844A84238BF641C054687
:10441000BD43CDE902549DED020BD7E7000000003B
:104420009C7500883CE4377E00000000000000001E
:104430000000F0BFFFFF0F0010EE100AC0F3C751DD
:104440007F391729A8BF7047DFED140A002970EEE5
:10445000200A0DDAF5EEC00AF1EE10FA1ADD002896
:10446000A8BF002016DAB0F1004F18BF0C4811E0C9
:104470000C4ACA40104208BF7047F5EEC00AF1EE80
:1044800010FA07DD002804DA4FF4000323FA01F1E3
:104490000844904300EE100A70470000CAF24971C8
:1044A000000080BFFFFF7F0010EE100A10B5002350
:1044B000A0F50001B1F1FE4F67D200BF00F5002169
:1044C0006FF07E0202EBE15CC1F302524FF07E51CD
:1044D00001EB025100EE901AA0EBCC5003EB0C0163
:1044E00000EE100A51EA020036D030EE601A70EE8B
:1044F000200A9FED3D2A3E4881EE200A9FED3B1A9F
:1045000060EE000A00EE821A60EE201A61EE810A67
:10451000784401EE101A00EB82009FED362AB8EEC7
:10452000C11AD0ED001A344841EE021A784401EE67
:10453000101A00EB8200B8EEC11A90ED002ADFEDF0
:104540002F2A01EE222AB0EE001A72EE200A40EE67
:10455000010A31EEA00A10BDF7EE000A9FED291AFC
:1045600030EE600ADFED260A00EE201ADFED260AA3
:1045700060EE001A40EE010A9FED241A00EE201AA8
:1045800061EE810A30EE200A10BD4FF07F41B1EBA1
:10459000400F03D2BDE8104000F0E0BCB0F1FF4F87
:1045A00008BF10BDB5EEC00AF1EE10FA06D2012028
:1045B00000F0F0FCBDE8104000F0D4BCB5EEC00A3D
:1045C000F1EE10FA07D1022000F0E4FC00F0BCFC90
:1045D000B1EE400A10BDDFED0E0A6FF0160320EEBB
:1045E000200A10EE100A69E766F1CC3EAAAA2A3F1B
:1045F000645700000070313F68570000F4FD053833
:1046000021ED423E0A1180BEC1ABAA3EFFFFFFBEB4
:104610000000004B0000000010B52F499FED2C1B3F
:104620002DED020B84B0059820F000408842DCBFDD
:1046300000209DED040B32DD2849884209D1049801
:1046400040B94FF0010000F0A5FC00F05DFC06B0A1
:1046500010BD05DB9DED040B00F04AFC06B010BD5B
:1046600068469DED040B00F05BF810F0030011D0DC
:10467000012818D09DED021B9DED000B02281AD0D9
:1046800000F06AFA51EC100B81F0004106B041ECE9
:10469000100B10BD9DED021B9DED000B012000F0E5
:1046A0008FFB06B010BD9DED021B9DED000B00F0D1
:1046B00053FA06B010BD012000F082FB51EC100B44
:1046C00081F0004106B041EC100B10BD000000006D
:1046D0000000000000000000FB21E93F0000F07F27
:1046E00010B52DED028BB1EEC08A18EE100A20F045
:1046F0000040C0F1FF40C00F0AD010EE100A20F0B9
:104700000040C0F1FF40C00F04BF012000F042FC98
:10471000B0EE480ABDEC028B10BD000000000000A6
:104720002DE9F14F04462DED020B2DED088B8AB0DB
:104730009FEDE70B80ED020B139EE74826F0004546
:1047400085420ADC9DED120B002084ED000B0AB0BF
:10475000BDEC088B03B0BDE8F08FE0489FEDE0AB07
:104760009FEDE1BBA84247DDE14F9FEDE39B9FED4D
:10477000E48B9DED120B53EC1A2B51EC100B002E19
:104780001CDDFBF7F9FD41EC100BBD4208D053ECEA
:104790001B2B51EC100BFBF7EFFDC4E900010BE004
:1047A00053EC192B51EC100BFBF7E6FD53EC182BD7
:1047B000FBF7E2FDC4E900010120C8E7FBF73BFD80
:1047C00041EC100BBD4208D053EC1B2B51EC100BED
:1047D000FBF731FDC4E900010BE053EC192B51EC60
:1047E000100BFBF728FD53EC182BFBF724FDC4E955
:1047F00000014FF0FF30AAE7C348A84279DB9DEDE6
:10480000120B51EC100B01F05DFB41EC180B9FED0E
:10481000C00B53EC102BFBF7B5FD9FEDBF1B53EC0A
:10482000112BFBF708FDFBF7E3FE0746FBF7A1FEA4
:1048300041EC190B53EC1A2BFBF7A4FD53EC182B8E
:10484000FBF79DFD41EC180B53EC1B2B51EC190BA6
:10485000FBF798FDDFF8C8A241EC100B4FEA1558A2
:104860000125FA4453EC102B51EC180BFBF784FD97
:10487000032DC4E900013DD0C1F30A5005EB4511F9
:10488000A8EB00001139814234DA0AEB051BB0EEC7
:1048900048AA9BED000BF0EE68AA53EC102B51ECEC
:1048A000190BFBF76FFD41EC1B0B51EC1A0B53EC92
:1048B0001B2BFBF761FD41EC180B51EC1A0B53EC71
:1048C000182BFBF759FD53EC1B2BFBF755FD9BED0C
:1048D000020B41EC1A0B53EC102B51EC190BFBF7AC
:1048E00051FD53EC1A2BFBF747FD41EC100B6D1CEF
:1048F000B8E70EE0002EA8BF3846BFF628AF94ED0B
:10490000000B51EC100B81F00041C4E9000178422A
:104910001DE7C6F3130040F4801EC6F30A50A0F250
:10492000F530471100F01F05C5F12000DDF848B053
:1049300008900020069007900520EC467949002D4C
:1049400007EB0002794408BF51F8221009D051F852
:10495000223001EB8201AB404A68089922FA01F14A
:104960001943A1FB0E26A1FB0B131A449A4234BF34
:104970000123002303EB06080CEB8003D3E901A617
:104980000E448E4234BF0121002192448A4411B169
:10499000924502D903E0924501D2012100E00021B5
:1049A000C3E901A641444CF82010011EA0F101000A
:1049B000C4DC029800F10050850F0298DDE903671E
:1049C0008000DDF81480FBF7D4FD41EC1A0B304673
:1049D000FBF7E0FD9FED541B53EC112BFBF7D2FCD2
:1049E00041EC1B0B3846FBF7D5FD9FED511B53ECFB
:1049F000112BFBF7C7FC41EC180B4046FBF7CAFD37
:104A00009FED4D1B53EC112BFBF7BCFC41EC190B3C
:104A100051EC180B53EC192BFBF70DFC53EC1B2B33
:104A2000FBF709FC53EC1A2BFBF705FCCDE9080159
:104A3000002008909DED080B53EC1A2B51EC100B45
:104A4000FBF79AFC53EC1B2BFBF796FC53EC182B53
:104A5000FBF792FC53EC192BFBF791FC9FED381BF5
:104A600053EC112BFBF78EFC9FED370B41EC180B31
:104A700053EC102B9DED080B51EC100BFBF782FC57
:104A800053EC182BFBF7D7FB9FED310B41EC180BC8
:104A900053EC102B9DED080B51EC100BFBF772FC47
:104AA00053EC182BFBF7C7FB41EC100B139810F0DD
:104AB000004F06D06D4251EC100B81F0004141ECEB
:104AC000100B284684ED000B41E6000000000000BA
:104AD0000000000000000000FB21E93F7CD90240FB
:104AE00000004054FB21F93F3163621A61B4D03DAC
:104AF000FB21F93F000000000000601A61B4D03DC6
:104B00007370032E8A19A33BFB213941000000007A
:104B100083C8C96D305FE43F000000000000E03F43
:104B200082540000D0530000000000000000103E3E
:104B3000000000000000103C000000000000103ADF
:104B4000182D4454FB21F93D3326A611460B113C88
:104B500000000054FB21F93D10B52DED040B2DEDA7
:104B6000088B82B0B0EE419AF0EE619A0B9820F07B
:104B700000449FED4BABB4F1795F11DA9DED0A0B68
:104B800051EC100BFBF734FD002801BFB0EE4A0AD0
:104B9000F0EE6A0A02B0BDEC088B04BF04B010BD91
:104BA0009DED0A0B53EC102B51EC100BFBF7EAFBBD
:104BB00041EC180B3C480621B0EE480AF0EE680ABA
:104BC000784400F081F853EC182B51EC100BFBF7F4
:104BD000D9FB9DED0A0B41EC1B0B53EC192B51EC4F
:104BE000100BFBF7CFFB41EC190B53EC1B2B51ECDB
:104BF000180BFBF7C7FB53EC192BFBF7BDFB9FED25
:104C00002C0B41EC190B53EC102B51EC180BFBF750
:104C1000B9FB41EC100B2848844210DA53EC192BF5
:104C200051EC100BFBF7A8FB53EC1A2BFBF7A7FB7F
:104C300041EC100B02B0BDEC088B04B010BD1F4856
:104C4000A042BCBF9FED1E1B8DED001B06DBA4F533
:104C500000100190002000909DED001B51EC100B06
:104C600053EC112BFBF788FB9DED000B41EC180B6F
:104C700053EC102B51EC1A0BFBF77EFB41EC1A0B9B
:104C800053EC192B51EC180BFBF776FB53EC1A2B5A
:104C9000FBF775FB41EC100BCCE7000000000000B7
:104CA000000000000000F03FF45000000000000091
:104CB000000000000000E03F3333D33F0000E93F35
:104CC000000000000000D23F70B504462DED028BBD
:104CD0004D1E00EBC500B0EE408AF0EE608A90ED0C
:104CE000000B35F0060017D053EC182B51EC100BCD
:104CF000FBF748FB41EC100B6D1E04EBC50090ED7B
:104D0000001B51EC100B53EC112BFBF794FA41EC08
:104D1000100B35F00600E7D1022D36D0042D1CD043
:104D2000062D1CBFBDEC028B70BD53EC182B51EC53
:104D3000100BFBF727FB94ED0A1B53EC112BFBF731
:104D40007AFA53EC182BFBF71DFB94ED081B53EC80
:104D5000112BFBF770FA41EC100B53EC182B51ECB4
:104D6000100BFBF70FFB94ED061B53EC112BFBF71D
:104D700062FA53EC182BFBF705FB94ED040B53EC94
:104D8000102BFBF758FA41EC100B53EC182B51EC9D
:104D9000100BFBF7F7FA94ED021B53EC112BFBF70A
:104DA0004AFA53EC182BFBF7EDFA94ED001B53EC89
:104DB000112BFBF740FABDEC028B41EC100B70BDE0
:104DC00031B504462DED040B2DED0A8BB0EE41BA42
:104DD000F0EE61BA0B989DED0A0B20F00040B0F1A7
:104DE000795F0DDA51EC100BFFF71CFA042808BFAD
:104DF00000F09AF89DED0A0BBDEC0A8B05B030BDB2
:104E000053EC102B51EC100BFBF7BCFA41EC180BD8
:104E10009DED0A0B53EC182B51EC100BFBF7B2FA7B
:104E200041EC190B2C48B0EE480AF0EE680A052157
:104E30007844FFF749FF9FED2ACBB0EE40AAF0EE91
:104E400060AA9CB353EC1C2B51EC190BFBF79AFA9C
:104E500041EC1C0B53EC1A2B51EC190BFBF792FA9B
:104E60009FED210B41EC190B53EC102B51EC1B0B5C
:104E7000FBF788FA53EC192BFBF77EFA53EC182B4F
:104E8000FBF780FA53EC1B2BFBF776FA53EC1C2B49
:104E9000FBF772FA9DED0A1B53EC112BFBF76FFA2F
:104EA000BDEC0A8B05B041EC100B30BDFFE753ECB5
:104EB0001A2B51EC180BFBF765FA53EC1C2BFBF784
:104EC000BAF953EC192BFBF75DFA9DED0A1B53EC75
:104ED000112BFBF7B0F9E3E77C4F00000000000066
:104EE000495555555555C5BF000000000000E03F2D
:104EF00010B553EC102B51EC100BFBF79CF941EC67
:104F0000100B10BD000000009FED050B10B553EC19
:104F1000102B51EC100BFBF7A7FA41EC100B10BD56
:104F200000000000000000009FED050B10B553ECE1
:104F3000102B51EC100BFBF725FA41EC100B10BDB8
:104F40000000000000000010DFED030AB7EE001AB9
:104F500081EE200A704700000000000030EE000AD9
:104F600070470000DFED020A80EEA00A70470000E3
:104F70000000000002E008C8121F08C1002AFAD190
:104F800070477047002001E001C1121F002AFBD1C9
:104F9000704700000149086070470000844000200D
:104FA000816841F008018160816811F0080FFBD130
:104FB000816841F004018160816811F0040FFBD128
:104FC00070471205A2F5801201290CD0022918BFE2
:104FD0007047816B21F44011816302F44011826BB0
:104FE000114381637047C16A21F47001C16202F408
:104FF0007001C26A1143C16270470029816814BF01
:1050000041F4006121F400618160704710B5A0F5A2
:105010009230B0F180400DD0B0F5806F18BF10BD58
:1050200040F20A3002F019FBBDE8104040F20A30AD
:1050300002F004BB40F2093002F00FFBBDE8104063
:1050400040F2093002F0FABA816841F4807181605F
:105050007047816811F0010F18BF7047816841F0F7
:10506000010181607047002A01F001020DD01AB1E0
:10507000826842F48012826011F0020F1ABF8168C8
:1050800041F400417047816070471AB1826822F490
:105090008012826011F0020F1CBF816821F4004170
:1050A000F1D1704701290AD0022918BF70478168E1
:1050B00021F4E0418160816811438160704781681B
:1050C00021F460218160816811438160704710B4D0
:1050D000D0F838C0846BCCF3015CA1EB0C01C91C87
:1050E00001EB81014FF01F0C0CFA01FC24EA0C0CBF
:1050F00002FA01F141EA0C01816307210A2A0CD26C
:10510000D0F810C002EB420291402CEA010103FAF0
:1051100002F21143016110BC7047122A24BF10BC77
:105120007047D0F80CC00A3A02EB420291402CEAD8
:10513000010103FA02F21143C16010BC704711F083
:10514000010F03D0426822F04002426011F0020FCA
:1051500003D0426822F02002426011F0040F08BF21
:105160007047416821F080014160704711F0010FE4
:1051700003D0426842F04002426011F0020F03D0B7
:10518000426842F02002426011F0040F08BF7047ED
:10519000416841F0800141607047026822EA0101E4
:1051A0000160704704490A6822F470220A600A68A4
:1051B00010430860704700000424014010B44FF011
:1051C0001F0C06290CD2446B01EB81010CFA01FC87
:1051D00024EA0C0C02FA01F141EA0C0141631EE0E1
:1051E0000C290DD2046B891F01EB81010CFA01FC23
:1051F00024EA0C0C02FA01F141EA0C0101630EE011
:1052000010290CD2C46A0C3901EB81010CFA01FCA3
:1052100024EA0C0C02FA01F141EA0C01C1620721F7
:105220000A2A0CD2D0F810C002EB420291402CEABC
:10523000010103FA02F21143016110BC7047122A06
:1052400024BF10BC7047D0F80CC00A3A02EB4202EF
:1052500091402CEA010103FA02F21143C16010BC33
:105260007047D0F8802022F44052C0F88020D0F857
:1052700080201143C0F88010704711F0010F03D057
:10528000826842F48002826011F0020F08BF70470A
:10529000816841F4001181607047002A01F4807236
:1052A00014D01AB1426842F48072426011F4806FE7
:1052B00003D0426842F48062426011F0020F1ABFCC
:1052C000816841F002017047816070471AB14268FD
:1052D00022F48072426011F4806F03D0426822F49D
:1052E0008062426011F0020F1CBF816821F0020150
:1052F000EAD170479FED1D1AF5EE000A40EE010A53
:10530000BDEEE00AF5EEC00A10EE100AF1EE10FA5A
:1053100038BF401E00EE100AB8EEC00A30EEC00AD8
:10532000DFED130A20EE200ABCEEC01A11EE100ABF
:1053300080B2B0F5007F24BF002030EE600A00EE9E
:10534000900A0C49F7EE001AF8EE600A01EB8000B3
:1053500090ED011A70EE600A90ED000A71EEE01A0D
:1053600021EE800A00EE810A7047000083F9223E98
:1053700000000044748D0008DFED1C0AB5EEC00A81
:1053800060EE200ABDEEE01A11EE100AF1EE10FAFE
:1053900038BF401E00EE100AB8EEC00A30EEC00A58
:1053A000DFED130A20EE200ABCEEC01A11EE100A3F
:1053B00080B2B0F5007F24BF002030EE600A00EE1E
:1053C000900A0C49F7EE001AF8EE600A01EB800033
:1053D00090ED011A70EE600A90ED000A71EEE01A8D
:1053E00021EE800A00EE810A7047000083F9223E18
:1053F00000000044748D00080A490A6842F0010266
:105400000A600A6822F47C520A600A684FF47C53EE
:1054100003EA002010430860086820F001000860DB
:10542000704700000066004010B5A0F18041B1F562
:10543000C84109D040F21A4002F00FF9BDE810400F
:1054400040F21A4002F0FAB840F2194002F005F9B1
:10545000BDE8104040F2194002F0F0B810B44FF629
:10546000FF7200296DD0036823F002030360036814
:1054700043F001030360436813F0010F03D1002AD6
:1054800018BF521EF7D1426812F0010F59D00A7CA2
:105490004FF0E06303EA02624B7C4FF4702C0CEA9D
:1054A00003431A438B7C4FF4E00C0CEA03531A437A
:1054B0008B8A5B1EC3F309031A43C262D1E902322D
:1054C0001A434B78012B0CBF22F0040242F0040275
:1054D0008B78012B18BF22F0100316D00978012910
:1054E0000CBF43F0010123F001010162016821F0CA
:1054F000010101604FF6FF71426812F0010F1BD0ED
:10550000002918BF491EF7D11BE042F010034A687A
:10551000BAB192F800C04FF4FE440CF0200C4CEAF3
:10552000030392F804C052790CF07F0C04EA0222C3
:105530004CEA02028262D1E700291EBF012010BCA2
:105540007047002010BC704730B4817A364B01227E
:1055500002FA01F11A6842F001021A60DFF8CCC0C9
:10556000DCF800208A43CCF80020C489304AE4B932
:1055700014688C431460C48845882404C5EA040474
:105580004589ED0005F1804505F5C045C5F8404663
:10559000848805882404C5EA04044589ED0005F1E2
:1055A000804505F5C045C5F84446C489012C1CD189
:1055B00014680C431460028844881204C4EA02028E
:1055C0004489E40004F1804404F5C044C4F8402652
:1055D0008288C4881204C4EA02024489E40004F107
:1055E000804404F5C044C4F844268489114A002C40
:1055F00014680CBF8C430C43146004890E4A002CC1
:1056000014680CBF8C430C431460007C012804D147
:10561000DCF800000843CCF80000186820F0010016
:10562000186030BC70470000006600401C660040F7
:105630000C66004004660040146600402DE9F0014D
:1056400003684FF6FF724FF0000C23F00203036073
:10565000036843F001030360436813F0010F03D1B3
:10566000002A18BF521EF7D1426812F0010F08BF7E
:105670004FF0000C6CD0036A4FF0F85713F0010F95
:105680004FF470264FF4E0554FF4E0044FF4C0425D
:105690005FD04B7807EA03630F7843EA87778B780C
:1056A00006EA034605EA8313334347EA0305CB784A
:1056B00004EA035402EA83224B8922435B1E2A43F5
:1056C000C3F309031A43C2610A79012A02680CBFB5
:1056D00042F0800222F0800202604A79012A0268C8
:1056E0000CBF42F0400222F0400202608A79012A97
:1056F00002680CBF42F0200222F020020260CA7948
:10570000012A02680CBF22F0100242F0100202606F
:105710000A7A012A02680CBF42F0080222F008024D
:105720000260497A012901680CBF41F0040121F0AF
:1057300004010160016821F0010101604FF6FF7171
:10574000426812F0010F28D0002918BF491EF7D176
:1057500027E043F00103036291F8018007EA08673C
:1057600091F8008047EA88788F7806EA074605EACC
:105770008715354348EA0506CD7804EA055402EA60
:10578000852222434C893243641EC4F30904224318
:10579000C26123F00102026296E7002918BF4FF0B0
:1057A000010C6046BDE8F0017047426922EA010140
:1057B00041617047426911434161704769B10129F4
:1057C00014D0022918BF7047816841F4000181603C
:1057D000816811F4000FFBD17047816841F08001AE
:1057E0008160816811F0800FFBD17047816841F4BE
:1057F00000418160816811F4004FFBD170470023A4
:105800004FF6FF72012904D0022917D0042925D0B0
:1058100039E0016821F002010160016841F00101F5
:105820000160416811F0010F03D1002A18BF521E18
:10583000F7D1406810F0010F27D023E0016821F074
:1058400003010160416811F0030F1CBF002A521EC2
:10585000F8D1406810F0030F17D113E0016821F070
:1058600001010160016841F002010160416811F02D
:10587000020F03D1002A18BF521EF7D1406810F062
:10588000020F02D00123184670470023FBE70000F7
:105890002DE9F0472DED088B82B09FED958A9FEDA5
:1058A000969B9FED97BB9FED98AB994C51EC1A0BD3
:1058B00094ED000B53EC102BFAF764FD41EC100B48
:1058C000FEF7AAFE9FED941B53EC102B51EC110B2D
:1058D000FAF758FD53EC192BFAF7ADFCFAF7EAFE8C
:1058E00094ED000B814653EC102B51EC1A0BFAF798
:1058F00049FD41EC100BFEF78FFE9FED891B53EC29
:10590000102B51EC110BFAF73DFDFAF7D3FE804650
:105910008548864E4FF0010A80F800A0B6F90800CD
:10592000F1690027824D884208BFB76309D0B06B88
:10593000401CB0630A2804D94FF48070FBF712F9B9
:1059400057E09FED7D0BDFED7EAA706BB7EE00AAEE
:10595000062822BF02B0BDEC088BBDE8F087DFE867
:1059600000F003194858608376486946B0F82C0E59
:10597000ADF8000042F27000FDF736FDB76486F81E
:1059800003A00420706384ED009B02B0BDEC088B83
:10599000BDE8F08794ED001B53EC102B51EC110B7C
:1059A000FAF749FC41EC100B84ED000BC5F8F490BC
:1059B000C5F85880C5ED3AAA85ED3C8A85ED3BAA2D
:1059C0009FED611B53EC112BFAF75CFE3CBF0220EC
:1059D000706394ED000B9FED5E1B51EC100B53ECCC
:1059E000112BFAF74FFE3CBF85ED3A8A85ED3B8AD5
:1059F000CBE7776185ED3D8A85ED168A85ED3A8A9C
:105A000085ED3C8A85ED3B8A84ED009B0120776320
:105A1000BBE785ED3A8A84ED009B85ED3B8A776391
:105A2000B3E794ED001B53EC102B51EC110BFAF77C
:105A300002FC41EC100B53EC1B2B84ED000BFAF72E
:105A400021FEA2D2B069FAF7F2FD9FED430BC4E943
:105A5000040184ED060B84ED009B9FED410B84ED6A
:105A6000020BC6F834A090E794ED001B53EC102B0A
:105A700051EC110BFAF7DFFBC4E900012448FEF7F3
:105A800047FA3948B0EE418AF0EE618A80ED480B62
:105A900080ED4A8B51EC100BFAF70CFEC5F8F400C0
:105AA00051EC180BFAF706FEA865C5ED3AAA85ED8C
:105AB0003BAA94ED021B94ED000B53EC112B51EC1F
:105AC000100BFAF7DFFD3FF660AF84ED009B03207B
:105AD0007063B069FAF7ABFD9FED250BC4E90401D3
