:020000040800F2
:100000001871002069010008F5300008071D00087C
:10001000F1300008E1070008F53D0008000000008D
:10002000000000000000000000000000513C00083B
:10003000D50C000800000000093600088101000806
:100040008301000883010008830100088301000880
:100050008301000883010008830100088301000870
:100060008301000883010008830100088301000860
:100070008301000883010008830100088301000850
:100080008301000883010008CD07000883010008F0
:10009000E5070008830100088301000883010008C8
:1000A0008301000883010008830100088301000820
:1000B000DD3D00088301000883010008830100087A
:1000C0008301000883010008830100088301000800
:1000D00083010008830100088301000883010008F0
:1000E00083010008830100088301000883010008E0
:1000F000830100088301000883010008000000005C
:10010000830100080000000083010008830100084B
:1001100083010008830100088301000883010008AF
:10012000830100088301000883010008830100089F
:1001300083010008000000000000000083010008A7
:10014000830100088301000883010008830100087F
:10015000DFF810D000F00AFB00480047B953000850
:10016000AFF300801871002006488047064800471A
:10017000FEE7FEE7FEE7FEE7FEE7FEE7FEE7FEE757
:10018000FEE7FEE7E53C0008510100082DE9F041DB
:100190000024061B254671F1000605DA012400271C
:1001A000D0EB070067EB0101161E73F1000605DABC
:1001B0000027D2EB0702012567EB030300F0C8F923
:1001C00086460E4617469C46AC4204D00025D0EB2E
:1001D000050E65EB010624B10020D2EB000760EBB1
:1001E000030C704631463A466346BDE8F08140EA6A
:1001F00001039B0703D009E008C9121F08C0042AA5
:10020000FAD203E011F8013B00F8013B521EF9D28B
:100210007047D2B201E000F8012B491EFBD27047B3
:100220000022F6E710B513460A4604461946FFF7C2
:10023000F0FF204610BD2DE9FE4F804681EA030005
:10024000C00F0C46009021F0004123F00045B8EBB0
:100250000200A94105D24046214690461C460B4665
:10026000024623F00040104347D0270DC7F30A0091
:10027000C3F30A510290401A019040286BDAC3F38D
:10028000130040F4801B0098924620B10023D2EB6B
:10029000030A63EB0B0B01985946C0F1400250462C
:1002A00000F087F906460D4650465946019A00F07F
:1002B0009FF910EB08006141002487EA115284EA9B
:1002C000E7731A4340D0009A62B3019A012A4FEAB9
:1002D000075215DC001B61EB02014FF0004202EAFD
:1002E0000752CDE90042001C41F5801132462B46F1
:1002F00000F0D6F903B0BDE8F08F40462146F9E79B
:10030000001B61EB0201001C41F5801300185B41EA
:100310002018A2F5001747EB030140EAD570B61983
:100320006D4111E06D084FEA360645EAC0754FEAA7
:100330000752001B61EB0201001C41F580114908C6
:100340004FEA30000019514132462B4603B0BDE858
:10035000F04F00F096B90098012240000023D0EB46
:10036000020263EBE073009821464FEAE074B8EBB9
:10037000000061EB0401E9E783F000435BE781F0F3
:10038000004158E72DE9FE4F81EA030404F00044E0
:1003900021F0004100944FF0000B23F0004350EA9D
:1003A00001045ED052EA03045BD0C3F30A54C1F3E4
:1003B0000A552C44A4F2F3340194A0FB0254C1F377
:1003C000130141F48011C3F3130343F4801301FBC1
:1003D000024400FB034E840A970A44EA815447EA28
:1003E0008357A4FB076802958D0A05FB07854FEA32
:1003F000932C04FB0C542705029D4FEA065847EA4C
:100400001637B5EB08056EEB070C870E920E47EA20
:10041000811742EA8312A7FB0201B6EB0B0164EBE2
:1004200000042B0D43EA0C335E1844EB1C50DA46F3
:100430005146E7FB0201C5F313044FEA0B3343EACD
:1004400014534FEA0432019C43EA0603A4F10C045E
:100450000294009CCDE900B400F022F903B0BDE89D
:10046000F08F00200146F9E7F0B4CA17CB0F5040D7
:100470005140C61841F100054FEAC37231462800C9
:100480004FF0960303D0B623F0BC00F0CCB8304652
:100490000021F9E70EB5C10F80EAE0700844CA07F1
:1004A000002140F233438DE80E000A460B4600F06F
:1004B000F7F803B000BD0EB540F2334102910021C0
:1004C000CDE900110A460B4600F0EAF803B000BD82
:1004D00010B500F0004420F00040C20DC0F316003B
:1004E00040F400007F2A02DA0020014610BD0021FE
:1004F000962A03DCC2F19602D04002E0963A00F060
:1005000058F8002CF2D00023D0EB030063EB01017C
:1005100010BD70B5C1F30A5201F000450024C1F3CB
:10052000130140F2FF3341F480119A4201DA0020B6
:1005300070BD40F233439A42A2F2334203DC52428E
:1005400000F046F800E090402C43F1D0404270BDEE
:100550002DE9F05F0546002092469B4688460646F8
:10056000814640241BE0284641464746224600F08B
:100570002FF853465A46C01A914110D311461846D7
:10058000224600F016F82D1A67EB01084F46224666
:100590000120002100F00DF817EB00094E41201E4C
:1005A000A4F10104DFDC484631462A464346BDE853
:1005B000F09F202A04DB203A00FA02F10020704765
:1005C0009140C2F1200320FA03F319439040704791
:1005D000202A04DB203A21FA02F00021704721FA98
:1005E00002F3D040C2F120029140084319467047FF
:1005F000202A06DBCB17203A41FA02F043EAE073E7
:1006000006E041FA02F3D040C2F1200291400843D3
:10061000194670470029A8BF7047401C490008BF11
:1006200020F00100704710B4B0FA80FC00FA0CF022
:1006300050EA010404BF10BC704749B1CCF120045A
:1006400021FA04F411FA0CF118BF012121430843E7
:10065000A3EB0C01CB1D4FEA00614FEA102042BF13
:10066000002010BC704700EBC35010440029A4BF09
:1006700010BC7047401C490008BF20F0010010BCAE
:10068000704710B5141E73F1000408DA401C41F1E4
:10069000000192185B411A4301D120F0010010BD06
:1006A0002DE9F04D92469B4611B1B1FA81F202E07C
:1006B000B0FA80F220329046FFF77BFF04460F46E7
:1006C00040EA0A0041EA0B0153465A46084313D058
:1006D000114653EA010019D0C8F140025046FFF715
:1006E00077FF05460E46504659464246FFF761FFE2
:1006F000084305D0012004E020463946BDE8F08DCE
:100700000020054346EAE0762C4337430A98630508
:10071000E40AA0EB08000022FD0A44EA47540A302C
:1007200002D500200146E9E7010510196941DDE91C
:10073000084500196941BDE8F04DA2E730B5041E37
:1007400071F1000404DB4FF00044404264EB01010E
:10075000141E73F1000405DB1C464FF000435242A7
:1007600063EB0403994208BF904230BD064C074D2D
:1007700006E0E06840F0010394E807009847103471
:10078000AC42F6D3FFF7E8FC748B0008948B0008AA
:1007900030B58C1810F8012B12F00F0301D110F8AE
:1007A000013B120906D110F8012B03E010F8015BA0
:1007B00001F8015B5B1EF9D101E001F8013B521E1B
:1007C000FBD1A142E6D3002030BD00000348016800
:1007D00021F00401016001F0AFBB000000240140E2
:1007E00001F000B900F06EB9134910B54FF488520A
:1007F000A1F1240004F07DFB4FF488520F4910480A
:1008000004F077FB4FF488620E490F4804F071FB47
:100810000E480F4990F844200A70B0F848204A80EA
:10082000B0F84A208A8090F8461090F84500BDE85C
:10083000104002F0B7BF0000844000208451002027
:100840006C40002084620020784000204468002032
:100850001C000020F0B5A3B044226946474804F0CC
:10086000F9FA00281CBF684605F056FB444804F01E
:1008700034FB50B103F06CF838B944226946404863
:1008800004F0E8FA684603F077F83E4804F025FBE8
:1008900050B103F05DF838B944226946394804F094
:1008A000D9FA684603F068F8374C384DA18800291A
:1008B0001CBFE068002833D02A68A2EB0000884201
:1008C0002ED30027E76001F031FB012804D003F0AC
:1008D00051F9012002F084F82D48418841F00401CB
:1008E0004180018811F0800F1AD1EFF3108672B6A3
:1008F00041F0800101802078129700F18002119868
:10090000ADF8481062F31700119008208DF84700E9
:100910001397442211A91B4804F0F1FA86F31088BA
:100920006088002804BF23B0F0BDA1682A68511A6E
:1009300081423CBF23B0F0BD28680028286808BF6A
:10094000401CA060207811AC00F5E061119861F3C3
:100950001700119001208DF8470005208DF8480000
:10096000204603F009F8002804BF23B0F0BD44225C
:100970002146034804F0C3FA23B0F0BD60400020D4
:100980006C400020784000201C0000200400002063
:100990004468002010B516482DED028B92B0007807
:1009A000B0EE608A00F5F06100986C4661F31700C4
:1009B000009001A804F018FB04F10800B0EE480A0A
:1009C00004F012FB08208DF80300204602F0D4FF4B
:1009D000002802BF12B0BDEC028B10BD442221469C
:1009E000044804F08CFA12B0BDEC028B10BD00007C
:1009F0001C0000206C4000200B4800B5007891B02E
:100A000000F5E0610098442261F317000090012096
:100A10008DF8030000208DF804006946034804F0B7
:100A20006EFA11B000BD00001C00002078400020CC
:100A300030B591B0054601F079FA012804D003F0F1
:100A400099F8012001F0CCFF1349488840F00400D8
:100A50004880088828421CBF11B030BDEFF31084D5
:100A600072B6284308800D49097801F18002009987
:100A700062F31701009108218DF803100021019104
:100A80000291ADF8040044226946054804F037FAA3
:100A900084F3108811B030BD446800201C00002091
:100AA00078400020054A016812780A4462F3170171
:100AB000016001464422024804F021BA1C000020D3
:100AC000784000202DE9F041294C92B06946206819
:100AD00010F0030F04BF12B0BDE8F081254F386855
:100AE00007F10408420D009862F317000090D8F84F
:100AF0000000214D00F00F0008F10406285C8DF87D
:100B00000300C01C800801F1040106D03268401EB9
:100B100041F8042B10F0FF00F8D1206840F02000CD
:100B2000206044226946154804F0E9F920686946C6
:100B300010F0030F04BF12B0BDE8F0813868420D19
:100B4000009862F317000090D8F8000001F104014A
:100B500000F00F00285C8DF80300C01C8008DCD07A
:100B60003268401E41F8042B10F0FF00F8D1D4E7A2
:100B70000C640040B0650040E07100086040002057
:100B80002DE9F047DFF87880D8F8006006F1080119
:100B9000B1F5204F31D8044604F082FA022700252F
:100BA00006EB850000F1006909F520493C2004F0BE
:100BB00027FA54F82510484604F084FA10B104F0DE
:100BC00025FA15E06D1CBD42EAD304F01FFA00209F
:100BD000002F0DD906EB800101F1006101F52041E4
:100BE00054F8202009688A4202D1401CB842F1D34F
:100BF000D8F800000830C8F800000020BDE8F087F1
:100C00004C4000204FF0E0214FF0FF30C1F8800150
:100C1000C1F88002C1F88401C1F88402C1F88801DA
:100C2000C1F88802C1F88C01C1F88C02C1F89001AA
:100C3000C1F89002C1F89401C1F89402C1F898017A
:100C4000C1F89802C1F89C01C1F89C0204494FF414
:100C5000805008600348016881F3088840680047B5
:100C6000140C0140004001082DE9F04104F018FA8D
:100C7000144D154FDFF854802C464AF6AA263C2026
:100C800004F0BEF9204604F0C9F910B104F0BEF931
:100C90000AE03E6004F580644445F0D304F0B6F900
:100CA0002868B0F1FF3F03D04FF0FF30BDE8F0817E
:100CB0003E602D1D4545F3D3054900200860BDE881
:100CC000F081000000A00008003000400040010852
:100CD0004C40002000F086BE2DE9F04165244FF025
:100CE000006600BF06EB842000F0E6FF042805D074
:100CF0000B347B2CF6D30520BDE8F081651C04F194
:100D00000B07BD4209D200BF06EB852000F0D4FFDF
:100D10000428F0D16D1CBD42F6D30B21204600F013
:100D20006BFE00281CBF0120BDE8F08100F062FED0
:100D30000020BDE8F08100002DE9F0410546652462
:100D40004FF00066B5B11020002206EB842301218C
:100D500003EB020CDCF80070DCF804C0FF4377EA18
:100D60000C0C18BF0F20491C08328029F0DD0F2819
:100D70000ED105E00121204600F03EFE28B907E033
:100D80000121204600F038FE10B10120BDE8F081BD
:100D9000641C7B2CD6D300F02DFE0221652002F0CE
:100DA00059FF00281CBF0220BDE8F0810021044843
:100DB000418065210170202141600020BDE8F08163
:100DC000504000202DE9F05F0027DFF85CC3834628
:100DD00001203E463C46B946BA468CF801006523E0
:100DE0005FEAC06505EB832100200A18CCF80820D3
:100DF0000A18D2F8008052680830B0F5806FF4D33A
:100E00005B1C7B2BEED3C849002048704FF065086F
:100E100005EB882000F050FF022814BF01287F1C3A
:100E200001D003280AD008F10108B8F17B0FEFD3F5
:100E30003800BE4FDFF8F88248D105E0002E08BF29
:100E4000C1464446761CEEE7002E08BF65241FD03D
:100E5000A9F15000A8FB002109096FF00A025143D3
:100E600000EB410007EB802000F026FF04282DD185
:100E7000A4F16400A8FB002109096FF00A025143A4
:100E800000EB41000121653002F0E4FE90B91DE065
:100E90000121204600F0B0FD10B10120BDE8F09F17
:100EA000641C7B2CF4D300F0A5FD0221652002F028
:100EB000D1FE10B10220BDE8F09F9B4900206522C1
:100EC00048800A7020224A60BDE8F09F5FF0650606
:100ED00005EB862000F0F0FE012825D1652E18BF15
:100EE000702E12D0A6F15000A8FB00214FEA11117C
:100EF0006FF00A0201FB02F100EB410007EB8020DA
:100F000000F0DAFE032821D00EE0A6F16400A8FB71
:100F1000002109096FF00A02514300EB410007EB81
:100F2000802000F0C9FE88B1761C7B2ED0D300BF94
:100F30004FF000095FF0650605EB862000F0BCFE6F
:100F4000022813D0032808BF34463CE0764800212D
:100F500001220670084602F085FAB0F5807F16BFC0
:100F60000C204FF0010ABDE8F09FE1E7652E18BFA5
:100F7000702E12D0A6F15000A8FB00214FEA1111EB
:100F80006FF00A0201FB02F100EB410007EB802049
:100F900000F092FE03280FD015E0A6F16400A8FB34
:100FA000002109096FF00A02514300EB410007EBF1
:100FB000802000F081FE30B9B9F1000F4CD15A48C1
:100FC0004FF001090670761C7B2EB5D3B9F1000FE6
:100FD00012D1A4F16400A8FB002109096FF00A02F4
:100FE000514300EB4100504965300870022102F086
:100FF00031FE00287FF45EAF4B4E00207080202031
:10100000706096F80040014601EB84234FF00062C7
:10101000D25803F100635B686FEA020C7CEA0302BA
:1010200007D072880830521C08317280B1F5806F89
:10103000EAD3706016E05038A8FB002109096FF070
:101040000A02514300EB410000F1650405EB8420E6
:1010500000F032FE032802D00A20BDE8F09F70881D
:101060007C3070802046652C18BF702CE3D130781E
:10107000A0F16400A8FB00214FEA11116FF00A02F1
:1010800001FB02F100EB410000F1650605EB862251
:10109000A64236D0BBF1000F14D01023002101204E
:1010A00002EB010CDCF80070DCF804C0FF4377EAC7
:1010B0000C0C18BF0F23401C08318028F0DD0F2BCB
:1010C0000FD107E00121304600F096FC00287FF4A4
:1010D000E4AE06E00121304600F08EFC00287FF4EB
:1010E000DCAEA6F16400A8FB002109096FF00A023A
:1010F000514300EB410000F1650605EB8622A64254
:10110000C8D100F077FCBAF1000F08D100210846E1
:1011100002F072FE002818BF11287FF4CBAE4FF00A
:101120000000BDE8F09F000050400020009401083E
:10113000A38B2EBA38B50C46002819BFA0F57F4105
:10114000B1F1FF01082038BD00210091694602F08D
:101150005DFA002804BF0099218038BD38B50C46DF
:10116000002819BFA0F57F41B1F1FF01082038BD6B
:1011700000210091694602F049FA002804BF009955
:10118000216038BD38B50C46002819BFA0F57F4155
:10119000B1F1FF01082038BD00210091694602F03D
:1011A00035FA002804BF0099217038BD70B50028B9
:1011B00019BFA0F57F42B2F1FF02082070BD0446BE
:1011C0000D4602F019FE112818BF70BD00222946F5
:1011D0002046BDE8704002F045B970B5002819BF3F
:1011E000A0F57F42B2F1FF02082070BD04460D4613
:1011F00002F002FE112818BF70BD002229462046C9
:10120000BDE8704002F02EB970B5002819BFA0F5F6
:101210007F42B2F1FF02082070BD04460D4602F085
:10122000EBFD112818BF70BD002229462046BDE8FD
:10123000704002F017B900002DE9F041174F40242B
:101240003C60174D4FF40341284605F05FFC012137
:10125000284605F088FC0028F9D0284605F053FC04
:10126000DFF8408060F30F06C8F800403C604FF4A0
:101270000441284605F04AFC0121284605F073FC8C
:101280000028F9D0284605F03EFCC8F80040F1B22D
:1012900061F31F208008BDE8F0810000140C0140BC
:1012A000003C0040100C0140704700002DE9F05F49
:1012B000DFF89493DFEDE30A2DED028BB9F84C4093
:1012C00001EE104AB8EE411ADFEDE03AE201E04EDD
:1012D00021EE231AB6EE005AD6ED031AA6F1300815
:1012E00021EE001AC1EE202A01EE102AB8EE411AB2
:1012F000C0EE814AF8EEE10AB0EE001A20EE808AD4
:10130000D9ED140A20EE813ADFEDD20A304600F51D
:10131000405590ED011AD6F808C0D5F82C3E21EEC4
:10132000204ADFEDCD0A416990ED042A002700EB49
:101330008100BCF1090F80F07E81DFE80CF0050927
:101340001E4D6598AEC6F800C6ED010A01208AE080
:1013500023EE080A20EE050A01F036F918EE100A0D
:10136000B0F1804FC0F26781D5F82C0EC8F8180094
:10137000B068401CB06000F05EB931EE221AB0EEE9
:10138000608AB0EE430A86ED011A01F01DF9B349F7
:101390007068814200F34F81D5F82C0ED8F81810F0
:1013A000401AB0F5005FC8BFA0F5804004DC10F51E
:1013B000005FB8BF00F58040002808DAD5F8200C9F
:1013C000002812BFC5F8207C0120C5F8200C86ED4E
:1013D000018AB068401C6DE031EE221AB0EE608ADE
:1013E000B0EE430A86ED011A01F0EEF89C497068F0
:1013F0008842C0F2208186ED018AF760776186ED30
:10140000048AB068401C55E0B1EBC41F28D2B4EE8A
:10141000C28AF1EE10FA17DB32EE240A86ED040AD6
:1014200000EE104AB8EE400A20EE230A84EE001ABD
:10143000BDEEC10A10EE101A591ACA0F01EB823123
:1014400081617069401C706196ED010A30EE221ACC
:10145000B0EE430A86ED011A01F0B6F800F0EBB8E1
:10146000481E70610520C6E9020700F0E4B885EE69
:10147000002AB8EEE10AB4EEC02AF1EE10FA3CBF41
:101480000620C6E9020750D331EE221AB0EE430A15
:1014900086ED011A01F098F8CDE085EE002AB8EE4D
:1014A000E10AB4EEC02AF1EE10FA05D2F760C6EDFB
:1014B000040A0720B060BEE031EE621AB0EE430AC3
:1014C00086ED011A01F080F8B5E00029B8BF0820C8
:1014D000F0DBB4EEC82AF1EE10FA1CD232EE240A88
:1014E00086ED040A00EE104AB8EE400A20EE230A08
:1014F00084EE001ABDEEC10A10EE101A591ACA0F76
:1015000001EB82318269114401EBD1714910816193
:101510007069401E706196ED010A30EE621AB0EEFD
:10152000430A86ED011A01F04FF884E0FFE700203E
:101530000146BCB1002306F114089C464FEA841B07
:10154000D8F804A01AEB000041EBEA7158F808AF94
:101550001AEB03034CEBEA7CBBF1010BF0D1C01892
:1015600041EB0C010023FEF711FEC5F8240CB06915
:101570000027C001C11700EB91404FEAA03A781E46
:1015800000EBC418C4F10009002004FB07F3014676
:1015900002464FF0800C23F07E4B00BF0BEB0203A2
:1015A000403B48BF03EBC41303D4984538BF03EB5B
:1015B000C91306EB830302F101029B69181841EB82
:1015C000E371BCF1010CE9D180220023FEF7DEFDBE
:1015D0000AEB07017F29C8BF8039D5F8242C07F111
:1015E0000107821A06EB810000F54050802FC0F8F9
:1015F000282CC9DB144800210180418821F0040116
:1016000041800120C5F8180C642000F04BFA154801
:101610004FF40471044603F0A5FAC5F8280E4FF400
:1016200005722146104800F05BFA012001F0D8F95C
:10163000B068401CB060F068401CF060BDEC028BEC
:10164000BDE8F09F0AD7234144680020DB0FC94062
:10165000600000200000804600000000DB0FC94150
:10166000DB0FC940783C00200090010810B5084805
:1016700000244FF40071C0F8184CC0F8204CC0F89A
:10168000244C00F62840FEF7CBFD0248846010BDD4
:10169000603000206000002010B510484FF4057243
:1016A0004FF4C8310446FEF7A2FD4FF40471204602
:1016B00003F058FA0A49D1F8282E824208BF10BD1B
:1016C0000020C1F8180CC1F81C0CC1F8240CBDE8AE
:1016D00010404FF400710348FEF7A2BD783C002093
:1016E00060300020883C00202DE9F047DFF8BC8204
:1016F000DFF8BC922DED048BD8F81400401C1024A8
:10170000C8F81400C9F80040AA4E4FF4034130460F
:1017100005F0FCF90121304605F025FA0028F9D042
:10172000304605F0F0F9A44F60F30F053C60C9F8AE
:1017300000404FF40441304605F0E8F901213046FD
:1017400005F011FA0028F9D0304605F0DCF960F315
:101750001F453C60E9B2994E61F31F208008C6F82E
:101760002C0ED6F8201C21B143F6FF71081AC6F8DA
:101770002C0E934FC11107EB810101F54051D1F8B7
:10178000282C012101EBE011CB1701EB536323F06F
:101790007F03C91A07EB810143F62843C95820F09B
:1017A0007F03C31A891A594302EBE111401AD6F894
:1017B000241C401AB0F5804F0BDDC0F10101CA179F
:1017C00001EB9241891349420029C4BF494200EB11
:1017D0008130002803DA00BF10F58040FCD4C6F841
:1017E000300E397839B1C6F8340E481E3870BDEC69
:1017F000048BBDE8F08704F0CBF9D6F8309ED6F81C
:10180000340EC6F8349EA9EB0005B5F5005F0BDD7C
:101810006C49481BC11700EB9140801340420028DF
:10182000C4BF404205EB803515F5005F05DA00BF07
:1018300005F5804515F5005FFADB634C94ED930ADE
:1018400094ED948ADFED618A08EE280A84ED930A0C
:10185000B0EE409A02F0ACFB00EE909AF8EEE00A8F
:1018600070EEC00A10EE900A9FED591AB0F18C4F3D
:1018700007DD00BF70EEC10A10EE900AB0F18C4F88
:10188000F8DC10EE900AB0F1464F06D970EE810AEE
:1018900010EE900AB0F1464FF8D894ED950A20EE7C
:1018A000280A00EE209A19EE100A84ED939AB0F1FE
:1018B0008D4F0ADD94ED930A30EE410A10EE100AC6
:1018C00084ED930AB0F18D4FF4DC94ED930AB5EEFC
:1018D000C00AF1EE10FA08D230EE010A84ED930A44
:1018E000B5EEC00AF1EE10FAF6D394ED960A20EEAA
:1018F000280A00EE208A84ED948AB5EEC08AF1EEC3
:1019000010FAD8BFB1EE488A94ED970AB4EEC08AB7
:10191000F1EE10FA3CBF9FED2F0A84ED940A07F513
:10192000405007F54052D0F8381ED0F83C0E491907
:1019300040EBE570C2F8381EC2F83C0E2748D4EDE3
:10194000930A9FED250AB0F84C004FF0320220EECA
:10195000801A00EE900A4FF00003F8EE600A21EEC4
:10196000201ADFED1F0A21EE201A84ED911A94ED62
:10197000941A84ED901A21EE001A00EE100AB8EEC7
:10198000400A21EE000A20EE200A84ED920AB6F801
:101990002C0E80B203F0E6FBF2EE080A80EE201A6D
:1019A00088ED0B1ABDEC048BBDE8F08730000020F9
:1019B0001408014000300140100801406030002050
:1019C0006000002001E0FFFF603C002017B75138A5
:1019D0000000804600000000DB0FC9404468002082
:1019E0000000803872B60021014805F0DCFBFEE7FC
:1019F000002C0140704700002DE9F05F0F1E824669
:101A00004FF000051FDDDFF844804AF6AA264FF0AC
:101A1000006B00BF0AEB0509EFF3108472B6C8F83B
:101A2000006003F03DFB3C2003F0EAFA0BEB892059
:101A300003F0F4FA03F0EAFAC8F8006084F31088BF
:101A40006D1CBD42E6DB0020BDE8F09F0030004089
:101A50002DE9FF47054602AE4FF00808EFF3108767
:101A600072B603F01DFBDFF838A000244AF6AA295D
:101A7000CAF800903C2003F0C3FA3159281903F04A
:101A800021FB10B103F0C2FA06E0241D4445EFD358
:101A900003F0BCFA87F3108804B00020BDE8F0879B
:101AA000003000402DE9F0410546EFF3108472B696
:101AB0000A4F4AF6AA263E6003F0F2FA3C2003F0F1
:101AC0009FFA4FF0006000EB852003F0A7FA03F0C7
:101AD0009DFA3E6084F31088BDE8F081003000403C
:101AE0002DE9F047164688460746EFF3108572B693
:101AF00003F0D6FA0024002E84BF4AF6AA29DFF8A4
:101B000034A011D9CAF800903C2003F079FA58F8B3
:101B10000410381903F0D6FA18B1BDE8F04703F005
:101B200075BA241DB442EDD303F070FA85F3108822
:101B3000BDE8F087003000402DE9F05F5C4F824641
:101B40004FF0006697F8008006EB882000F0B4F8AC
:101B50000446584DA8F16400A5FB002109096FF067
:101B60000A02514300EB410000F1650906EB8920B0
:101B700000F0A2F80146A8F15000A5FB00321209BE
:101B80006FF00A035A4300EB42006530BAF1000FD0
:101B900077D0BAF1010F07D0BAF1020F02BF0029C6
:101BA0004846BDE8F09F7BE04FF0200A022C02D0AF
:101BB000012C34D074E07868B0F5806F75D30429B7
:101BC00008BF652420D100BF06EB842000F074F824
:101BD000042803D00B347B2CF6D361E0651C04F1A0
:101BE0000B0B5D4509D200BF06EB852000F064F8C1
:101BF000042855D16D1C5D45F6D30B212046FFF717
:101C0000FBFEE8BBFFF7F6FE0321404602F022F898
:101C1000B0BB0221484602F01DF888BB35E0786869
:101C2000B0F5806F41D3042908BF652420D100BFDF
:101C300006EB842000F040F8042803D00B347B2C02
:101C4000F6D32DE0651C04F10B0B5D4509D200BFF6
:101C500006EB852000F030F8042821D16D1C5D458D
:101C6000F6D30B212046FFF7C7FE48B9FFF7C2FEA7
:101C70000321404601F0EEFF10B90121484601E082
:101C80000EE007E001F0E6FF50B94846C7F804A0AF
:101C9000BDE8F09F022C08D0012C08BFBDE8F09FE2
:101CA0004FF0FF30BDE8F09FFFE74046BDE8F09FF2
:101CB00050400020A38B2EBA70B404684568836836
:101CC000D0F80CC0016942698669C069F64376EABA
:101CD00000001EBF042070BC7047C84370EA0200B9
:101CE0001EBF032070BC7047D84370EA0C001EBFB3
:101CF000022070BC7047E04370EA050014BF012069
:101D0000002070BC7047FFF76DBE0000294830B45A
:101D10008388294903F0FF0C0022BCF1030F1ED079
:101D200006DCBCF1010F0AD0BCF1020F11D03AE081
:101D3000BCF1F10F32D0BCF1FF0F24D033E00280B0
:101D400084794FF0020C002C1CBF81F801C08A700E
:101D500029E04FF0010C81F801C08A7023E0EFF315
:101D6000108172B60022154D14469446C5F8382EDF
:101D7000C5F83C2E124AC2E91C4C0024C2E91844A2
:101D800081F310880FE0018869B111F4704101807E
:101D900009D1418821F00401418004E04FF0040C96
:101DA00081F801C08A7003F47F41818030BC00203B
:101DB0007047000044680020CB3E002060300020C7
:101DC000183F00202DE9F05F2DED048BEFF3108913
:101DD00072B69FED4B8ADFF82C8198ED141A98EDBE
:101DE000150AC1EE000A20EE080ADFED478AB0EEC0
:101DF000682A9FED469ADFF818A1B0EE681AF0EE57
:101E0000491A0AF1900001F0D9FA98ED141A98EDE8
:101E1000160AB0EE682AF0EE491AC1EE000A20EE6A
:101E2000080AB0EE681A0AF1AC0001F0C7FA0AF528
:101E30008475A5F5AC7B374CDBF80800411E002902
:101E4000C4BF01260F460EDD3046FEF723FB95ED9D
:101E5000001B53EC112BFEF795FA0835761CE4E8CD
:101E600002017F1EF0D198ED1A0AD8ED1D0AB8F8CC
:101E7000B40042F2107130EE209A081A00EE100AF7
:101E80009FED251A0AF1C800F8EEC00AB7EE000A65
:101E900000EE810AD8ED190A80EE891A60EE001A68
:101EA000C8EE210A60EE801A81EE810AB0EE681A4F
:101EB000DFED1A1AB0EE412A01F080FAB8F8B60048
:101EC000DFED170A00EE100A9FED171AB8EE400A70
:101ED00020EE200A8AED390A9FED120AD8ED190A80
:101EE00029EE000A60EE810A80EE201A8BED0F1AAF
:101EF00089F31088BDEC048B0020BDE8F09F000042
:101F0000D7710945446800200000000017B7513818
:101F1000183F0020C86700200AD7233C6F1283397E
:101F2000CDCCCC3DDB0FC940000080460148007895
:101F300070470000CB3E002070B5964C2DED048B11
:101F40002078002804BFBDEC048B70BD924DA878AA
:101F5000401CC0B2A8700A2824BF0020A8708F4877
:101F6000008800EE100AB8EE400ADFED8D0A20EE80
:101F7000200ADFED8C0A20EE200AD4ED010A9FED45
:101F80008A1A00EE810A84ED010ADFED881A20EE3C
:101F9000210ADFED870A874820EE200A84ED020A35
:101FA0000068854980B2B1F90010401A00EE100AAD
:101FB000B8EEC00ADFED810A814820EE200A84EDE8
:101FC000030A00687F4980B2B1F90010401A01EE9F
:101FD000100A7D48B8EEC11A21EE201A84ED041AC9
:101FE00000687A4980B2B1F90010401A02EE100A76
:101FF000B8EEC22A62EE200AC4ED050A84ED060A94
:1020000031EE600A20EE210A84ED070AFFF76CFB2F
:102010006F4E96ED910A02F0EFFAF0EE400A96ED5F
:10202000910AB0EE608A02F0A5FA94ED062AD4ED8A
:10203000071A22EE001A21EE800A01EE881A02EE3B
:10204000480A84ED081A84ED090ADFED620A94ED6E
:102050000A2A61EE201A9FED601A20EE200A42EE55
:10206000011AC4ED0A1AD4ED0B0A00EE810A84EDC0
:102070000B0AA878002849D1FFF7DEF800EE100A15
:1020800056495748B8EEC00A574A584B81ED100AD6
:10209000D0ED000A5348C4ED3E0A90ED000A84EDED
:1020A0003F0A94ED3D1A71EE600AC5ED110A94EDF8
:1020B000161A31EE400A85ED120A94ED3A1A61EED5
:1020C000200A94ED3B1A41EE000A94ED3C0A30EEF2
:1020D000800A10EE100A85ED100A904206D210EE2A
:1020E000100A9842C8BFB3EE0E0A05DC10EE100AC3
:1020F000904228BFBBEE0E0A85ED100AD1ED190AF9
:1021000080EE201A84ED151A04F014FA94F88D006C
:1021100010F0040F04BFBDEC048B70BD94ED158A64
:1021200094ED021A94ED0A0ADFED318AF1EE410ACC
:10213000B1EE400AF0EE682AB0EE412AF0EE601AE5
:1021400004F1900001F047F994ED021AB0EE409AC4
:1021500094ED0B0AF1EE410AF0EE682A38EE400ADF
:10216000B0EE412AF0EE601A04F1AC0001F033F950
:10217000F0EE400A96ED911A96ED920ADFED1D1AE7
:1021800000EE211AB0EE490A00F01EFABDEC048BF5
:1021900070BD0000183F0020C83E0020160000203F
:1021A00063A6CC3C226CF83EEFC9033F3ACD133F07
:1021B0003333733F3C24014010000020C00DDC3C51
:1021C00040240140120000203C280140140000205F
:1021D000603C0020CDCC4C3ECDCC4C3F4468002030
:1021E000400000205C0000200000F0C10000F04131
:1021F0000000000017B75138104810B5104990ED95
:102200002E0A81ED0B0A90ED2F0A81ED0C0A90ED5C
:10221000300A81ED0D0A90ED310A81ED0E0AFFF7CB
:10222000D1FD09489FED070A80ED200A9FED070ABE
:1022300080ED1F0ABDE8104003F012BE4468002084
:10224000C83E00200000C842183F002000401C4546
:1022500070B5C24DC2482DED088B29690268511A2C
:102260009FEDC09AC04C0A297DD3016800290168FE
:1022700008BF491C2961218851B111F0800F07D195
:1022800011F47041218003D1618821F00401618043
:10229000B649D5ED0A0A91ED901A21EE200AB5EE65
:1022A000C00AF1EE10FAD8BF21EE600AD4ED290A77
:1022B000F4EEC00AF1EE10FA7DDDA96951B10068B3
:1022C000401AB4F8A810884209D3608840F0100082
:1022D000608004E0016800296ED1E1E0A861A44EAD
:1022E000B08800EE100AB8EE400A9FEDA28A60EEB8
:1022F000080ADFEDA19A80EEA90ADFEDA08AF7EEC9
:1023000000AA20EE281A38EE400AC1EE000A9FED1E
:102310009CAA9FED9CBA80EEA80A01F081FE0BEE0C
:1023200000AA8AEE8A0ADFED980A984930EE600A20
:1023300010EE100A84ED0D0A8842C4BF0820FEF793
:1023400077FB7088924900EE100A0020F8EE400AF0
:1023500080EEA90A20EE080A60EE280A38EE401A3C
:1023600080EE810A00E064E001EBC002D2ED010AD8
:1023700092ED031AB4EEE00AF1EE10FA7ED8B4EE54
:10238000C10AF1EE10FA79DB70EE602A71EE600A94
:1023900001EBC000D0ED001A82EEA00A90ED022AF7
:1023A00072EE610A40EE201A7A4911EE900AC4EDED
:1023B0000E1A884201E06BE070E0C4BF1020FEF707
:1023C00037FB94ED070AB5EEC00AF1EE10FAD8BF5C
:1023D000B1EE400AD4ED180A94ED191A00EEC10AC4
:1023E000B5EEC00AF1EE10FAD8BF85ED089A0FDD00
:1023F000D5ED080A30EE800A85ED080AD4ED200AF2
:10240000F4EEC00AF1EE10FA3CBF4020FEF710FBDC
:102410006148D0F8300E00EE100AB8EEC00A84ED24
:102420000F0AFEF709FF00EE100AB8EEC00A84EDAD
:10243000100A94F8D310002904BFBDEC088B70BDBE
:102440004FF0E02268699369C01A44BF6FF07F4380
:102450001844DFF848C10023CCFB00308311A3EB04
:10246000E070B0F5FA7F3CBFBDEC088B70BD9069A1
:10247000F0EE490A68610D295CD200E013E0DFE864
:1024800001F0592023272B32343A40464D5457004F
:10249000618821F010016180016809B100681DE7C1
:1024A0000068401C1AE7401CCD28FFF45BAF10EE1B
:1024B000100A3B498842CCBFDFED3A1ADFED3A1AE9
:1024C00072E7D4ED070A35E03848D0ED150A31E05F
:1024D0003748D0ED000A2DE03648008800EE100A9B
:1024E000F8EE400A26E034480CE03448B0F9000029
:1024F00000EE100A08E03248B0F9000000EE100AC1
:1025000002E0304890ED000AF8EEC00A12E0B4F89C
:10251000CC0000EE100AF8EE400A0BE0B4F8CE0052
:1025200000EE100AF8EE400A04E0D4ED0F0A01E0D4
:10253000D4ED100A687848B10020687095ED070A5C
:10254000BDEC088BBDE87040FEF724BA012068702E
:10255000C5ED070ABDEC088B70BD0000C83E002029
:10256000040000200000000044680020603C0020BF
:10257000160000203333534000F07F4500401C46D6
:102580000FCF5B3B2CBB8439339388430000AA42B6
:10259000F0710008000016436030002089888888A8
:1025A00000E9364900005CC200001643183F0020D5
:1025B000400000203C000020C03E00201000002011
:1025C000120000205000002010B59B4CF7EE082AA6
:1025D0002DED048BF0EE401AB0EE418A94ED012A05
:1025E00082EE820A61EE801A20EE800AC4ED0C1A97
:1025F00084ED0D0AB0EE480A01F0FEFFF0EE408ACD
:10260000B0EE480A01F0B6FFD4ED0C1AF0EE400A25
:1026100094ED0D1A21EEA08A08EEC18A61EEA88A17
:1026200040EE818A9FED859A28EE080A08EEA80AF6
:10263000F0EE400AB1EEE00AB4EE400AF1EE10FA14
:102640001CBFB0EE600A01F0A1FDB5EEC09AF1EE3C
:1026500010FA98BF9FED7A9A10EE100A79498842D5
:102660007EDB00BFB4EEC90AF1EE10FA05DDC9EE5B
:10267000000A28EE208A68EEA08A9FED731A9FED6B
:10268000730A40F6B830DFED720AF5EEC08AF1EE5B
:1026900010FA46DBDFED6F1AB5EEC08AF1EE10FAE4
:1026A0001EDB28EEA01AB4EEC18AF1EE10FA7DD33B
:1026B00008EEE08A68EE000AFCEEE00A10EE901ADE
:1026C00068EEA10A401A20EE800ABCEEC00A10EEA5
:1026D000103AC01AC0F34F02501881B2C81883E0F4
:1026E00028EE811AB4EEC18AF1EE10FA63D228EE18
:1026F000A11A21EE001ABCEEC11A11EE103AB1EE89
:10270000481A08EEE01AC01A21EE000ABCEEC00A10
:1027100010EE102A801AC0F34F01C81880B202448C
:1027200047E0DFED4D1AB5EEC08AF1EE10FA20DB7E
:1027300028EE811AB4EEC18AF1EE10FA56D328EED3
:10274000A11A08EEA08A21EE001A28EE000ABCEEBB
:10275000C11ABCEEC00A11EE101A10EE103A00E0D9
:1027600067E0401AC01AC0F34F02D01880B201448B
:1027700055E028EEA01AB4EEC18AF1EE10FA35D277
:1027800018EEA08A68EE000AFCEEE00A10EE902A2D
:1027900068EEA10A801A20EE800ABCEEC00A10EE94
:1027A000101A401AC0F34F00014400E003E089B260
:1027B0000A4492B234E0B0EE481A18EEA08A08EE4D
:1027C000A01A21EE001A28EE000ABCEEC11ABCEED7
:1027D000C00A11EE103A10EE102AC01A801AC0F387
:1027E0004F01881882B2D01880B219E0B1EE481AB1
:1027F00008EEE08A08EEE01A21EE001A28EE000A40
:10280000BCEEC11ABCEEC00A11EE101A10EE103A5E
:10281000401AC01AC0F34F0001448AB2D11889B2DD
:102820000E4B1A601A1F1160111F0860BDEC048B5B
:1028300010BD9FED0B0A15E7183F00200C9E523F7C
:102840000C9E52BFFFE6DB2E3ACD13BF00803B4506
:102850003ACD133F3ACD933F3ACD93BF3C2C014044
:10286000FFE6DB2E054890F86C00002818BFB1EE9B
:10287000400A034880ED140A7047000044680020B5
:10288000183F00200D4880ED020A90F86C100029D6
:1028900018BFB1EE400A0A4901220023C1ED0B0A1C
:1028A0000A705031C1F88430438823F00803438014
:1028B00081ED140A81F8442070470000446800202C
:1028C000C83E00202048DFED211A214990ED171A5B
:1028D00021EE211AD1ED0A1A61EE211AB1EE611A28
:1028E000B4EEC10AF1EE10FACCBFB0EE402AB0EE61
:1028F000412AB4EEE12AF1EE10FAC8BFB0EE610A47
:1029000006DCB4EEC10AF1EE10FAD8BFB0EE410A0F
:1029100080ED030A90F86C20002A18BFB1EE400A3F
:10292000C1ED0C0AC1ED0D0A01220A70094900230C
:10293000C1F88430438823F00803438081ED130AF3
:1029400081F8442070470000446800200000804661
:10295000C83E0020183F0020124890F86C1090EDFF
:10296000020A002918BFB1EE400AD0ED2E0A0E4926
:10297000C1ED0B0AD0ED2F0AC1ED0C0AD0ED300AE3
:10298000C1ED0D0AD0ED310AC1ED0E0A418821F0EA
:10299000080141800548012180ED140A80F84410A7
:1029A0000020704744680020C83E0020183F0020E7
:1029B00009480A4990ED2E0A81ED0B0A90ED2F0A85
:1029C00081ED0C0A90ED300A81ED0D0A90ED310A8F
:1029D000002081ED0E0A704744680020C83E0020A8
:1029E0000B49002201280FD0022805D0042818BF67
:1029F0006FF0090008D07047064B1A809B79002BB6
:102A000004BF6FF00100704748708A700020704763
:102A1000CB3E0020446800200249012081F8440098
:102A200070470000183F0020214890ED1E1AD0ED9D
:102A3000040AB1EE410AF4EEC00AF1EE10FACCBF7E
:102A4000F0EE601AF0EE401AF4EEC11AF1EE10FA50
:102A5000C8BFB0EE410A06DCF4EEC00AF1EE10FA8F
:102A6000C8BFB0EE600A80ED040A90F86C1000292F
:102A700018BFB1EE400AD0ED2E0A0E49C1ED0B0A87
:102A8000D0ED2F0AC1ED0C0AD0ED300AC1ED0D0AD0
:102A9000D0ED310AC1ED0E0A418821F008014180D4
:102AA0000548012180ED120A80F84410002070478B
:102AB00044680020C83E0020183F00202548DFED74
:102AC000260A264990ED170A20EE200AD1ED0A0ABF
:102AD00020EE201AD0ED030AB1EE410AF4EEC00A4E
:102AE000F1EE10FACCBFF0EE601AF0EE401AF4EE00
:102AF000C11AF1EE10FAC8BFB0EE410A06DCF4EEDE
:102B0000C00AF1EE10FAC8BFB0EE600A80ED030A09
:102B100090F86C20002A18BFB1EE400AD0ED2E0AC2
:102B2000C1ED0B0AD0ED2F0AC1ED0C0AD0ED300A31
:102B3000C1ED0D0AD0ED310AC1ED0E0A418821F038
:102B4000080141800648012180ED130A80F84410F5
:102B5000002070474468002000008046C83E0020E6
:102B6000183F0020014890F84C007047F0670020A3
:102B70000248002180F84C1001657047F067002082
:102B800000B52DED088BF0EE428A30EE602AB0EEF3
:102B9000438A30EEC03AB0EE629AB5EEC02A95B0E4
:102BA000F1EE10FAD8BFB0EE432A12EE100A7C49BB
:102BB0008842BFBF4FF0FF3015B0BDEC088B00BDA1
:102BC00013EE100AC00F14BFFFEE002AF7EE002A22
:102BD000CDED002A22EE802A22EE810A22EEA11AF1
:102BE00022EEA03A8DED012AB5EEC01A8DED023A23
:102BF000F1EE10FA8DED030A8DED041A3FBF6FF070
:102C0000010015B0BDEC088B00BDDFED661AF0EEDB
:102C1000000AB5EEC00A68EE209AF1EE10FA18D25A
:102C200060EE403A8DED088AC3EEA92AF1EE403AF3
:102C300083EE884ACDED092A8DED0A4A8DED0B2AE7
:102C40008DED0C0A32EE220A8DED010ACDED031A4C
:102C500023E0B4EEE80AF1EE10FAD8BFCDED0A1A7F
:102C60001BDD60EE002AF1EE481ACDED081A48EEA1
:102C7000E82AC2EEA91A70EE682AC2EE883ACDEDB3
:102C8000091ACDED0A3A8DED0B2A8DED0C0A32EEC4
:102C9000210A8DED010ACDED038A9DED030A69EE4F
:102CA00020BA21EE01AA20EE00BA9DED010A39EE0C
:102CB000081A73EE40AA2BEE880A20EE2A0A09EEC3
:102CC0000A0A08EE0B0AC0EE010AF5EEC00AF1EEA0
:102CD00010FA3FBF6FF0020015B0BDEC088B00BDCD
:102CE000B1EEE00AB4EE400AF1EE10FA1CBFB0EE0D
:102CF000600A01F04BFAB4EEE80AF1EE10FA4CDC8F
:102D0000DDED031AF4EEC01AF1EE10FADDBF9DED11
:102D1000041AB4EEC01AF1EE10FA6FF00300C2BF4D
:102D200015B0BDEC088B00BD60EE000A70EE611AB4
:102D300030EE411A002070EECB2A5422694682EE12
:102D4000AB2A70EECA2AC2EEA90A8DED0D2A3AEE20
:102D5000C22ACDED0F0A72EE600A81EE892ACDED0E
:102D60000E0AC1EE081A8DED102A80EE801ACDED04
:102D7000121A8DED111A8DED070A8DED059A8DED64
:102D8000068A149001208DF84C000748FDF72FFAB1
:102D900015B00020BDEC088B00BDB0EE680AAFE7AF
:102DA000BD37863500000000F0670020534B93F8D4
:102DB0004CC0BCF1000F08BF704710B4D3F850C02E
:102DC00000EE10CA0CF10104B8EE400ADFED4C0A27
:102DD0001C6593ED0A2A60EE201AF6EE002AB4EE86
:102DE000E12AF1EE10FA10DD93ED0B0AD3ED0C0A97
:102DF00093ED081A00EEA10A21EE222A61EEA12A23
:102E000041EE210A02EE220A63E093ED103ADFF868
:102E1000ECC072EE030A9CED010AF4EEE10AF1EE59
:102E200010FA10DD71EEC21AD3ED030A93ED051A04
:102E300000EEA10A21EE222A61EEA12A41EE210A2A
:102E400002EE220A45E093ED114ADFF8B0C09FED93
:102E50002D1A70EE843A9CED0D0ADCED010AF4EEB9
:102E6000E13A30EE800ADCED070AF1EE10FA06DDF9
:102E700071EEC21A71EEC31A00EEA10A29E0D3ED79
:102E8000124A73EEA43AF4EEE13AF1EE10FA18DDCC
:102E900031EEC21AD3ED0E1A31EE431A30EE210A8A
:102EA000D3ED061A31EE441A21EEA22A00EE810A71
:102EB00061EE012A41EEC10AB1EE611A02EE620A28
:102EC00007E093ED020AD3ED040A4FF0000C83F8FB
:102ED0004CC0D3ED001A21EE800A80ED000A93ED7C
:102EE000000A20EE200A81ED000A93ED000A20EE90
:102EF000010A82ED000A10BC70470000F067002054
:102F00006F12033A0000000030EEC02AF4EEC00A4F
:102F1000F1EE10FA02DDC2EE011A09E024BF9FEDC6
:102F20000C1AF0EE411A03D2B1EE411AC2EE011AA8
:102F3000084800210165012180F84C1080ED051A38
:102F4000C0ED101A80ED030AC0ED040A70470000BE
:102F500000000000F0670020134991F84C20002A7F
:102F600008BF70470A6D00EE102A531CDFED0F0AF0
:102F7000B8EE400A0B6520EE200AD1ED100AF4EEFF
:102F8000C00AF1EE10FADDBFD1ED040A002281F88B
:102F90004C20D1ED030AC4BF91ED051A41EE000AA1
:102FA000C0ED000A70470000F06700206F12033A7E
:102FB00030EEC04A9FED2A2AF4EEC00AB1EE403A44
:102FC000F1EE10FA0ADDB5EEC00AF1EE10FA1DDAE4
:102FD000F5EEC00AF1EE10FA08D920E026D2F5EE9F
:102FE000C00AF1EE611AF1EE10FA08DBC4EE212AF4
:102FF000B0EE421AF0EE603AB0EE413A1EE0B5EEA5
:10300000C00AB1EE411AF1EE10FA08D884EE013A86
:10301000F0EE421AF0EE403AF0EE612A0EE0C3EE16
:10302000212AF0EE423A80EE813A07E0F0EE421AB1
:10303000F0EE612AB0EE611AB0EE613A0948002163
:103040000165012180F84C10C0ED122A80ED103A84
:10305000C0ED073A00F10C0181EC040A7047000052
:1030600000000000F06700201E4A92F84C30002B50
:1030700008BF7047136D00EE103A03F1010CDFED4D
:103080001A0AB8EE400AC2F850C060EE200A92ED6B
:10309000120AB4EEE00AF1EE10FAC4BF92ED031A80
:1030A00092ED060A0EDC92ED101A30EE011AB4EE23
:1030B000E01AF1EE10FA08DD70EEC00A92ED071A80
:1030C00092ED050A00EE201A06E092ED041A9FED3B
:1030D000070A002382F84C3080ED001A81ED000AC7
:1030E00070470000F06700206F12033A00000000F4
:1030F000FEF778BCFEF776BC70B5184E3D207080A8
:1031000001F06EFD0020FDF75DFE708800240028B0
:10311000CCBF134D70BD00BF05EB0410417A11F018
:10312000040F15D0017A012904D0022907D00429FF
:103130000AD00DE041680088FEF724F808E04168F5
:103140000088FDF7F7FF03E041680088FEF706F806
:103150007088641C8442DFDB70BD000048400020A2
:103160006078000830B50C460146002020608025BC
:10317000084601F009FF00281CBF417A11F0010F39
:103180002ED0017A012906D0022909D003290FD0B7
:10319000042918D024E040684F25007820701FE0F3
:1031A00041684B250978217040684078607017E0CD
:1031B0004168472509782170416849786170406805
:1031C0008078A0700CE0416843250978217041683F
:1031D0004978617041688978A1704068C078E07072
:1031E000284630BD0B4810B590F8D200EE281CBF21
:1031F0004FF0FF3010BDFEF799FE01281CBF0120E3
:10320000FFF7EEFB01F0ECFC0020FDF795FD002040
:1032100010BD00004468002070B50E46802501F006
:10322000B3FE04001CBF607A10F0020F26D0207A93
:10323000012823D16068317802788A4217D0017062
:10324000607A10F0040F12D02088FDF7DDFF10F037
:10325000FF0F05D010F4807F18BFFDF73DFD0DE096
:10326000602510F4807F18BFFDF736FD00E0602573
:10327000E06818B18047002818BF80250020306022
:10328000284670BD2DE9F0410E460746802501F025
:103290007BFE044601202549A7F50052703A04D070
:1032A000A7F50052713A06D00EE0214AB2F82C2E52
:1032B0003280087008E01F4A92ED100ABCEEC00A86
:1032C00010EE102A32804870002C1CBF607A10F07B
:1032D000020F26D0207A022823D160683188028824
:1032E0008A4217D00180607A10F0040F12D0208833
:1032F000FDF75CFF10F0FF0F05D010F4807F18BFC2
:10330000FDF7EAFC0DE0602510F4807F18BFFDF7A3
:10331000E3FC00E06025E06818B18047002818BF92
:103320008025002030602846BDE8F081484000201C
:10333000603000204468002070B50E46802501F002
:1033400023FE04001CBF607A10F0020F26D0207A02
:10335000042823D16068316802688A4217D001606E
:10336000607A10F0040F12D02088FDF736FF10F0BD
:10337000FF0F05D010F4807F18BFFDF7ADFC0DE006
:10338000602510F4807F18BFFDF7A6FC00E06025E3
:10339000E06818B18047002818BF80250020306001
:1033A000284670BD9FED040A80ED040A80ED050AF1
:1033B00080ED060A704700000000000080ED000A62
:1033C00020EEA10A80ED010A81EE210A80ED020AB9
:1033D00080ED032A7047B0EE403A90ED000A90ED80
:1033E000014AF6EE004A60EE033A20EE044A90ED00
:1033F000050A31EE631A30EE030A60EE244A90EDBE
:10340000040A04EE240A80ED040AB4EEC10AF1EEC7
:1034100010FAC4BF80ED041AB0EE410A0ADC70EE67
:10342000E30AB4EEE00AF1EE10FAD8BFB0EE600A9B
:1034300080ED040A30EE230A30EE220AB4EEC20A0E
:10344000F1EE10FAC8BFB0EE420A04DCB4EEE10AB5
:10345000F1EE10FA02D380ED053A7047B0EE610A42
:10346000F9E700002DE9F84F4FF000075FEA020985
:103470008A46054600970CBF02200120FEF75CFB40
:103480000446B0F1FF3F04BF0420BDE8F88F5C4E56
:103490002020B9F1000F77803470706005D10121D0
:1034A000204600F0D7FB002843D1564FA4F150002E
:1034B000A7FB002109096FF00A02514300EB41000C
:1034C00000F165044FF0006808EB8420FEF7F4FB80
:1034D000022809D004280ED0B9F1010F0CBF03282F
:1034E0000A2027D0BDE8F88F4FF00401204600F0F5
:1034F000B1FB002878D1A4F15000A7FB00210909F5
:103500006FF00A02514300EB410000F1650408EB43
:103510008420FEF7D1FB032805D00428EBD0B9F1B5
:10352000010F07D03CE00421204600F093FB002867
:10353000E1D059E03478D6F80430202000EB842222
:103540004FF00061895802F100625268C94371EA84
:10355000020107D071880830491C08337180B0F52A
:10356000806FEBD34FF00009C6F80430A4F150008F
:10357000A7FB002109096FF00A02514300EB41004B
:1035800000F1650408EB8420FEF796FB032807D1C1
:10359000708809F101097C307080B9F1160FE5D30C
:1035A0005146284600F028FCF0B9708803282ABF4D
:1035B000841E0124652C0DD2AC4208D0A0B269460D
:1035C00000F024F898B1072818BFBDE8F88F641CF4
:1035D000652CF1D30221307800F03CFB002804BFB9
:1035E0004FF48070BDE8F88F0220BDE8F88FA0B2DC
:1035F000009900F001FC0028E9D0BDE8F88F000038
:1036000050400020A38B2EBAFEF7ECB92DE9F34F02
:10361000824683B00020FEF78FFA0746B0F1FF3FE5
:1036200002BF032005B0BDE8F08F4FF0006B0BEB3D
:1036300087284046FEF740FB4FF0000942E000BFFC
:1036400008EB060005684468E84370EA040024D0EB
:10365000A8B2504521D18DF80040210A8DF8011003
:10366000210C8DF802108DF80400210E000A8DF84F
:1036700003108DF805000621684601F049FA6FF342
:103680000F052A0C42EA094189B2814205D104980A
:10369000046005B00020BDE8F08F083E202ECFD298
:1036A0000E49A7F15000A1FB002109096FF00A02A1
:1036B000514300EB410000F165070BEB87284046C2
:1036C000FEF7FAFA02281ABF032804284FF47E7680
:1036D000B6D005B04FF00700BDE8F08FA38B2EBA2F
:1036E0002DE9F05F0024DFF8AC802746264625460A
:1036F0000121404603F0E7FC0121404603F0E6FCCF
:103700000028F9D00121404603F0DDFCDFF8889065
:10371000DFF888B009F1040A0121404603F0D6FC25
:10372000012810D10121404603F0CDFCD9F800005A
:1037300017FA80F7DAF8000016FA80F6DBF80000D6
:1037400015FA80F5641C402CE6DB97FBF4F096FB41
:10375000F4F102B295FBF4F3114809B21BB20280F6
:10376000418083800020A2F25152B2F57A7F88BF57
:103770004FF0FF30A1F25151B1F57A7F88BF4FF081
:10378000FF30A3F25151B1F57A7F88BF4FF0FF307F
:10379000BDE8F09F002C01403C2401403C28014042
:1037A000100000202DE9F04F99B0B8B1012803BFF7
:1037B00005204FF0090A814604201CBF4FF00A0A79
:1037C000814681B1012914D0022901D0032916D0E4
:1037D0000A2704264FF00108354615E008208246E6
:1037E0004FF00609EDE74FF004080A274646454624
:1037F0000AE00A2704264FF00208354604E00827AD
:1038000003264FF001080225129004204D4C0D9024
:103810000221204601F009F9204600F045FF20680A
:1038200040F400402060206810F4004FFBD146496E
:10383000086810F0020FFBD00121424801F01FF987
:103840004FF0010B00248DF820B08DF821B00D98B9
:103850008DF81840401E8DF81900AAF101008DF86E
:103860001A00A9F101008DF81C408DF81B008DF89D
:103870001DB012988DF81E40ADF822008DF81FB0D3
:1038800006A9304801F01AF804208DF800B08DF830
:1038900045008DF801B08DF844008DF802B0109409
:1038A00010A8CDE90104781E8DF81100701E8DF866
:1038B0001200681E8DF810000394ADF8148069465C
:1038C000204800F00BFFADF85440ADF85AB01C2072
:1038D00000F0D2FE0A20ADF85600ADF84C40ADF82D
:1038E00050408DF85CB0ADF85840ADF84E40ADF8A2
:1038F000524013A800F068FF0021124801F09EF822
:103900000121104801F09AF802210E4801F096F8C2
:103910000E48016811F0030F07D0016841F0200143
:103920000160016811F0030FF7D10221054801F091
:1039300081F800221146142002F02CFA19B0002060
:10394000BDE8F08F00640040046400400C64004057
:103950000848016811F0806F04BF016811F0006F22
:1039600005D1006810F0805F04BF0120704700207F
:1039700070470000086400403D490A6812F0806FFB
:1039800018BF002164D0090101F1804303F5C04351
:10399000D3F8801501F00101C3F8801502880021D9
:1039A00041EA4251C3F88015026800214FF0080C2B
:1039B000BCEB126F28BF110E2FD24FF00C0CBCEBDA
:1039C000126F28BF092128D24FF0100CBCEB126FE8
:1039D00028BF0A2121D24FF0140CBCEB126F28BF74
:1039E0000B211AD24FF0180CBCEB126F28BF0C2120
:1039F00013D24FF0200CBCEB126F28BF0D210CD25C
:103A00004FF0300CBCEB126F28BF0E2105D24FF0E7
:103A1000400CBCEB126F28BF0F2141F0A002C3F88D
:103A20008425144A00F10400515CC91C890807D0A0
:103A300050F8042BC3F88825491E11F0FF01F7D177
:103A4000D3F8800540F00100C3F8800500207047DE
:103A50000A6812F0006F18BF012194D1096811F0B3
:103A6000805F14BF02214FF0FF308CD170470000FF
:103A700008640040D071000810B5FFF77DFF0028F2
:103A800018BF10BD012001F09DF8002010BD0000FE
:103A900010B54FF0E0206FF07F414161002181615E
:103AA000052101612F4C0421204600F088FC0421EF
:103AB000204600F0B2FC204600F00BFC0A2001F08A
:103AC00081F8204600F0ACFB0121204600F015FDF6
:103AD0000421204600F0A1FC0421204600F086FCD1
:103AE000214C204600F0F5FB0A2001F06BF820463F
:103AF00000F096FB201501F05DF81C4C204603F009
:103B0000DDFA0121204603F057FB194840F2DC5151
:103B10000160001F0160001F016000221146204665
:103B200003F0D2F900220121204603F0CDF9002252
:103B30000221204603F0C8F900221146204603F076
:103B400050F800220121204603F04BF80022022108
:103B5000204603F046F82046BDE81040012103F05E
:103B600022BB00000024014000280140002C01403D
:103B70003C2C014010B5174C00221146204603F0A2
:103B8000A3F900220121204603F09EF90022022120
:103B9000204603F099F900221146204603F021F84F
:103BA00000220121204603F01CF8002202212046B9
:103BB00003F017F80121204603F085FA0121204681
:103BC00003F084FA0028F9D02046BDE81040012116
:103BD00003F079BA002C01401B4910B540F2DC50CB
:103BE0000860091F0860091F0860184C0121204661
:103BF00003F069FA0121204603F068FA0028F9D0A1
:103C00000121204603F05FFA01220021204603F043
:103C10005BF901221146204603F056F901220221E8
:103C2000204603F051F904220021204602F0D9FF7A
:103C300004220121204602F0D4FF20460422BDE8E0
:103C40001040022102F0CDBF3C2C0140002C01406D
:103C5000FDF7C8BE2DE9F0414FF0006202EB802C69
:103C60001C4A1F4D02EB80281B4AC4B202EB80277E
:103C70001A4A012902EB802606D002290DD0032919
:103C800013D0042919D022E04FF0AA32134660461F
:103C9000FDF7DEFEC0B92C7019E04FF0AA321346D2
:103CA0004046FDF7D5FE78B9F5E74FF0AA32134646
:103CB0003846FDF7CDFE38B909E04FF0AA32134679
:103CC0003046FDF7C5FE10B10220BDE8F0810020AE
:103CD000BDE8F08108000008100000081800000886
:103CE000504000203948016841F4700101603848B3
:103CF000016841F00101016000214160C162016879
:103D000021F4102121F0A85101604FF47F0181605E
:103D1000016821F4802101600268002142F48032B0
:103D200002604FF6FF730268491C12F4003F01D194
:103D30009942F8D1016811F4003F45D025490A683D
:103D400022F0070242F003020A60416841604168C4
:103D50004160416841F480614160416821F4701123
:103D600021F000514160416841F4541141F000518B
:103D70004160C16A184A1140C162C16A41F019012B
:103D800041F48431C162016841F0806101600168E1
:103D900011F0006FFBD0016841F080710160016893
:103DA00011F0007FFBD0416821F0030141604168C0
:103DB00041F002014160416811F0080FFBD0002181
:103DC0004FF0006002F042B8FEE7000088ED00E02E
:103DD000001002400020024000F0FEBF4FF0804182
:103DE0006FF00100086102480168491C01607047DA
:103DF00004000020FDF7F6BD2DE9F041254E0546F3
:103E00000C467088002740F2545182B0884222BF8D
:103E1000112002B0BDE8F0810120FDF78DFEB0F168
:103E2000FF3F02BF032002B0BDE8F0814FF0006108
:103E300001EB802854EA050014D08DF80040200AD8
:103E40008DF80100200C8DF80200200E8DF8030083
:103E50008DF80450280A8DF805000621684600F008
:103E600057FE0746706845EA074240442346FDF77F
:103E7000EFFD00281EBF022002B0BDE8F08170688F
:103E8000083070607088401C708002B00020BDE86F
:103E9000F0810000504000202DE9F0412DED020B93
:103EA0009FED3D0B2DED028B9FED3D8BDDE9025427
:103EB000C4F30A50A0F2FF36142E37DA002E18DAB7
:103EC00053EC102B9DED020B51EC100BFCF7B3F9EA
:103ED00053EC182BFCF732FC57D2002CA4BF002463
:103EE000254652DA24F00040284318BF2E4C4CD00F
:103EF0001AE02E4820FA06F704EA070028431FD0EC
:103F000053EC102B9DED020B51EC100BFCF793F9C9
:103F100053EC182BFCF712FC37D2002C03DA4FF4C9
:103F20008010F0400444BC4300252EE0332E07DC13
:103F3000A6F114004FF0FF3121FA00F73D4206D1FF
:103F40009DED020BBDEC028B02B0BDE8F08153EC9D
:103F5000102B9DED020B51EC100BFCF710FA53ECFB
:103F6000182BFCF7EBFB10D2002C0DDA142E08BF37
:103F7000641C09D0C6F13400012101FA00F0284484
:103F8000A84238BF641C0546BD43CDE902549DEDEF
:103F9000020BD7E7000000009C7500883CE4377EE8
:103FA00000000000000000000000F0BFFFFF0F0055
:103FB00010EE100AC0F3C7517F391729A8BF704708
:103FC000DFED140A002970EE200A0DDAF5EEC00AC2
:103FD000F1EE10FA1ADD0028A8BF002016DAB0F1C1
:103FE000004F18BF0C4811E00C4ACA40104208BFED
:103FF0007047F5EEC00AF1EE10FA07DD002804DA8A
:104000004FF4000323FA01F10844904300EE100A34
:1040100070470000CAF24971000080BFFFFF7F00B7
:1040200010EE100A10B50023A0F50001B1F1FE4F0B
:1040300067D200BF00F500216FF07E0202EBE15C69
:10404000C1F302524FF07E5101EB025100EE901A83
:10405000A0EBCC5003EB0C0100EE100A51EA020079
:1040600036D030EE601A70EE200A9FED3D2A3E48B1
:1040700081EE200A9FED3B1A60EE000A00EE821AE4
:1040800060EE201A61EE810A784401EE101A00EB0E
:1040900082009FED362AB8EEC11AD0ED001A3448DE
:1040A00041EE021A784401EE101A00EB8200B8EEDD
:1040B000C11A90ED002ADFED2F2A01EE222AB0EE80
:1040C000001A72EE200A40EE010A31EEA00A10BD7D
:1040D000F7EE000A9FED291A30EE600ADFED260A9E
:1040E00000EE201ADFED260A60EE001A40EE010A0B
:1040F0009FED241A00EE201A61EE810A30EE200AAC
:1041000010BD4FF07F41B1EB400F03D2BDE810402E
:1041100000F064B8B0F1FF4F08BF10BDB5EEC00AA3
:10412000F1EE10FA06D2012000F074F8BDE810405C
:1041300000F058B8B5EEC00AF1EE10FA07D102202F
:1041400000F068F800F040F8B1EE400A10BDDFED75
:104150000E0A6FF0160320EE200A10EE100A69E72F
:1041600066F1CC3EAAAA2A3FA84A00000070313F5F
:10417000AC4A0000F4FD053821ED423E0A1180BE34
:10418000C1ABAA3EFFFFFFBE0000004B10B52DEDF6
:10419000028BB1EEC08A18EE100A20F00040C0F188
:1041A000FF40C00F0AD010EE100A20F00040C0F10E
:1041B000FF40C00F04BF012000F02CF8B0EE480A09
:1041C000BDEC028B10BD0000DFED030AB7EE001A54
:1041D00081EE200A704700000000000030EE000A67
:1041E00070470000DFED020A80EEA00A7047000071
:1041F0000000000002E008C8121F08C1002AFAD11E
:1042000070477047002001E001C1121F002AFBD156
:104210007047000001490860704700005C400020C2
:10422000816841F008018160816811F0080FFBD1BD
:10423000816841F004018160816811F0040FFBD1B5
:1042400070471205A2F5801201290CD0022918BF6F
:104250007047816B21F44011816302F44011826B3D
:10426000114381637047C16A21F47001C16202F495
:104270007001C26A1143C16270470029816814BF8E
:1042800041F4006121F400618160704710B5A0F530
:104290009230B0F180400DD0B0F5806F18BF10BDE6
:1042A00040F20A3002F037F9BDE8104040F20A301F
:1042B00002F022B940F2093002F02DF9BDE81040B9
:1042C00040F2093002F018B9816841F480718160D0
:1042D0007047816811F0010F18BF7047816841F085
:1042E000010181607047002A01F001020DD01AB16E
:1042F000826842F48012826011F0020F1ABF816856
:1043000041F400417047816070471AB1826822F41D
:104310008012826011F0020F1CBF816821F40041FD
:10432000F1D1704701290AD0022918BF704781686E
:1043300021F4E041816081681143816070478168A8
:1043400021F460218160816811438160704710B45D
:10435000D0F838C0846BCCF3015CA1EB0C01C91C14
:1043600001EB81014FF01F0C0CFA01FC24EA0C0C4C
:1043700002FA01F141EA0C01816307210A2A0CD2F9
:10438000D0F810C002EB420291402CEA010103FA7E
:1043900002F21143016110BC7047122A24BF10BC05
:1043A0007047D0F80CC00A3A02EB420291402CEA66
:1043B000010103FA02F21143C16010BC704711F011
:1043C000010F03D0426822F04002426011F0020F58
:1043D00003D0426822F02002426011F0040F08BFAF
:1043E0007047416821F080014160704711F0010F72
:1043F00003D0426842F04002426011F0020F03D045
:10440000426842F02002426011F0040F08BF70477A
:10441000416841F0800141607047026822EA010171
:104420000160704704490A6822F470220A600A6831
:1044300010430860704700000424014010B44FF09E
:104440001F0C06290CD2446B01EB81010CFA01FC14
:1044500024EA0C0C02FA01F141EA0C0141631EE06E
:104460000C290DD2046B891F01EB81010CFA01FCB0
:1044700024EA0C0C02FA01F141EA0C0101630EE09E
:1044800010290CD2C46A0C3901EB81010CFA01FC31
:1044900024EA0C0C02FA01F141EA0C01C162072185
:1044A0000A2A0CD2D0F810C002EB420291402CEA4A
:1044B000010103FA02F21143016110BC7047122A94
:1044C00024BF10BC7047D0F80CC00A3A02EB42027D
:1044D00091402CEA010103FA02F21143C16010BCC1
:1044E0007047D0F8802022F44052C0F88020D0F8E5
:1044F00080201143C0F88010704711F0010F03D0E5
:10450000826842F48002826011F0020F08BF704797
:10451000816841F4001181607047002A01F48072C3
:1045200014D01AB1426842F48072426011F4806F74
:1045300003D0426842F48062426011F0020F1ABF59
:10454000816841F002017047816070471AB142688A
:1045500022F48072426011F4806F03D0426822F42A
:104560008062426011F0020F1CBF816821F00201DD
:10457000EAD170479FED1D1AF5EE000A40EE010AE0
:10458000BDEEE00AF5EEC00A10EE100AF1EE10FAE8
:1045900038BF401E00EE100AB8EEC00A30EEC00A66
:1045A000DFED130A20EE200ABCEEC01A11EE100A4D
:1045B00080B2B0F5007F24BF002030EE600A00EE2C
:1045C000900A0C49F7EE001AF8EE600A01EB800041
:1045D00090ED011A70EE600A90ED000A71EEE01A9B
:1045E00021EE800A00EE810A7047000083F9223E26
:1045F00000000044307C0008DFED1C0AB5EEC00A64
:1046000060EE200ABDEEE01A11EE100AF1EE10FA8B
:1046100038BF401E00EE100AB8EEC00A30EEC00AE5
:10462000DFED130A20EE200ABCEEC01A11EE100ACC
:1046300080B2B0F5007F24BF002030EE600A00EEAB
:10464000900A0C49F7EE001AF8EE600A01EB8000C0
:1046500090ED011A70EE600A90ED000A71EEE01A1A
:1046600021EE800A00EE810A7047000083F9223EA5
:1046700000000044307C00080A490A6842F0010248
:104680000A600A6822F47C520A600A684FF47C537C
:1046900003EA002010430860086820F00100086069
:1046A000704700000066004010B5A0F18041B1F5F0
:1046B000C84109D040F21A4001F02DFFBDE810407A
:1046C00040F21A4001F018BF40F2194001F023FFF8
:1046D000BDE8104040F2194001F00EBF10B44FF693
:1046E000FF7200296DD0036823F0020303600368A2
:1046F00043F001030360436813F0010F03D1002A64
:1047000018BF521EF7D1426812F0010F59D00A7C2F
:104710004FF0E06303EA02624B7C4FF4702C0CEA2A
:1047200003431A438B7C4FF4E00C0CEA03531A4307
:104730008B8A5B1EC3F309031A43C262D1E90232BA
:104740001A434B78012B0CBF22F0040242F0040202
:104750008B78012B18BF22F0100316D0097801299D
:104760000CBF43F0010123F001010162016821F057
:10477000010101604FF6FF71426812F0010F1BD07A
:10478000002918BF491EF7D11BE042F010034A6808
:10479000BAB192F800C04FF4FE440CF0200C4CEA81
:1047A000030392F804C052790CF07F0C04EA022251
:1047B0004CEA02028262D1E700291EBF012010BC30
:1047C0007047002010BC704730B4817A364B01220C
:1047D00002FA01F11A6842F001021A60DFF8CCC057
:1047E000DCF800208A43CCF80020C489304AE4B9C0
:1047F00014688C431460C48845882404C5EA040402
:104800004589ED0005F1804505F5C045C5F84046F0
:10481000848805882404C5EA04044589ED0005F16F
:10482000804505F5C045C5F84446C489012C1CD116
:1048300014680C431460028844881204C4EA02021B
:104840004489E40004F1804404F5C044C4F84026DF
:104850008288C4881204C4EA02024489E40004F194
:10486000804404F5C044C4F844268489114A002CCD
:1048700014680CBF8C430C43146004890E4A002C4E
:1048800014680CBF8C430C431460007C012804D1D5
:10489000DCF800000843CCF80000186820F00100A4
:1048A000186030BC70470000006600401C66004085
:1048B0000C66004004660040146600402DE9F001DB
:1048C00003684FF6FF724FF0000C23F00203036001
:1048D000036843F001030360436813F0010F03D141
:1048E000002A18BF521EF7D1426812F0010F08BF0C
:1048F0004FF0000C6CD0036A4FF0F85713F0010F23
:104900004FF470264FF4E0554FF4E0044FF4C042EA
:104910005FD04B7807EA03630F7843EA87778B7899
:1049200006EA034605EA8313334347EA0305CB78D7
:1049300004EA035402EA83224B8922435B1E2A4382
:10494000C3F309031A43C2610A79012A02680CBF42
:1049500042F0800222F0800202604A79012A026855
:104960000CBF42F0400222F0400202608A79012A24
:1049700002680CBF42F0200222F020020260CA79D5
:10498000012A02680CBF22F0100242F010020260FD
:104990000A7A012A02680CBF42F0080222F00802DB
:1049A0000260497A012901680CBF41F0040121F03D
:1049B00004010160016821F0010101604FF6FF71FF
:1049C000426812F0010F28D0002918BF491EF7D104
:1049D00027E043F00103036291F8018007EA0867CA
:1049E00091F8008047EA88788F7806EA074605EA5A
:1049F0008715354348EA0506CD7804EA055402EAEE
:104A0000852222434C893243641EC4F309042243A5
:104A1000C26123F00102026296E7002918BF4FF03D
:104A2000010C6046BDE8F0017047426922EA0101CD
:104A300041617047426911434161704769B1012981
:104A400014D0022918BF7047816841F400018160C9
:104A5000816811F4000FFBD17047816841F080013B
:104A60008160816811F0800FFBD17047816841F44B
:104A700000418160816811F4004FFBD17047002331
:104A80004FF6FF72012904D0022917D0042925D03E
:104A900039E0016821F002010160016841F0010183
:104AA0000160416811F0010F03D1002A18BF521EA6
:104AB000F7D1406810F0010F27D023E0016821F002
:104AC00003010160416811F0030F1CBF002A521E50
:104AD000F8D1406810F0030F17D113E0016821F0FE
:104AE00001010160016841F002010160416811F0BB
:104AF000020F03D1002A18BF521EF7D1406810F0F0
:104B0000020F02D00123184670470023FBE7000084
:104B100002460020002908BF704711F0010FA2F1E2
:104B200001020F4B03D012F8010F33F810004908AF
:104B300008BF704792F801C0491E8CEA102C33F868
:104B40001CC08CEA002012F802CF80B28CEA102C34
:104B500033F81CC08CEA002080B2EBD17047000013
:104B60003485000802460020002908BF704711F074
:104B7000010FA2F101020E4B03D012F8010F53F8FE
:104B80002000490808BF704792F801C0491E8CEA0E
:104B9000106C53F82CC08CEA002012F802CF8CEA7B
:104BA000106C53F82CC08CEA0020EDD17047000047
:104BB0003487000802494A68104348607047000083
:104BC000002004E081B044F230314843009001E01D
:104BD00000BF0846411E0091FAD201B070470000A4
:104BE0005148002101804180818081719FED4F0AF1
:104BF000012280ED020A80ED030A80ED040A80EDB7
:104C0000050A80ED060A80ED070A80ED080A80EDAE
:104C1000090A80ED0A0A80ED0B0A80ED0C0A80ED8E
:104C20000D0A80ED0E0A80ED0F0A80ED100A80F863
:104C30004420022280F8452080F84620A0F8481041
:104C4000A0F84A100822DFED3A0AA0F84C20C0ED87
:104C5000140ADFED380ADFED381AC0ED150AC0ED91
:104C6000160AF3EE0E0AC0ED170AC0ED181AB7EED9
:104C7000001A9FED322A80ED191A80ED1A2A9FED55
:104C8000302A80F86C1080ED1C2A80ED1D0AC0EDE2
:104C90001E0ADFED2C0AC0ED1F1AC0ED200ADFED61
:104CA0002A0A6422C0ED210AF3EE020AC0ED220AAC
:104CB000DFED260A42F21C53C0ED230ADFED240A81
:104CC000C0ED240ADFED230AC0ED250AA0F89820E4
:104CD00080ED271A9FED201AA0F8A02080ED291A58
:104CE000A0F8A820C0ED2B0A4FF47A72A0F8B020EB
:104CF00080F8B210A0F8B430A0F8B620F2EE040AA2
:104D0000C0ED2E0AC0ED2F0AC0ED300A80ED311A39
:104D100080ED320A40F20512A0F8D02080F8D210BF
:104D200080F8D310704700004468002000000000A5
:104D3000371A103FD7F7E139000020438BE1EA36FC
:104D40000000804620BCBE4C000020420000B4425F
:104D50000000A0420AD7233CCDCCCC3DA0F180423C
:104D6000B2F5013202D1042900D9FEE701EB81013D
:104D700000EB8100816841F0010181607047A0F182
:104D80008042B2F5013202D1042900D9FEE701EBDD
:104D9000810100EB8100816841F020018160704752
:104DA000A0F18042B2F5013202D1042900D9FEE718
:104DB00001EB810200EB8202936823F00103936010
:104DC00000239360D36013615361426889000F230D
:104DD00003FA01F1114341607047A0F18043B3F53C
:104DE000013302D1042900D9FEE701EB810100EB78
:104DF00081001368036191684161118A89B2C160C1
:104E00008168D2F80CC0536821F47C5143EA0C034A
:104E1000D2F814C04CEA010119438160117E0129C6
:104E200081680CBF41F0400121F040018160517E5A
:104E3000012981680CBF41F0800121F0800181606F
:104E4000917E002981680CBF21F0100141F0100112
:104E5000816070472DE9F05F868881460789B0F848
:104E600004C0D0F800B0C388A3EB0C04A4B263451F
:104E700003D2A7EB0C00184484B2944288BF1446B6
:104E8000002C0DBF00208A464FF00008BDE8F09FBF
:104E9000B81B85B2A54288BF2546012D04BF1BF86B
:104EA00006000AF8080006D00BEB06010AEB080022
:104EB0002A46FBF79CF908EB05001FFA80F8601BF7
:104EC00084B2701986B2BE4228BF0026002CDFD102
:104ED000A9F804604046BDE8F09F8288C188038934
:104EE000881A80B2914228BF7047981A084480B24D
:104EF0007047016000218180C180028170472DE9E7
:104F0000F05FC78881460589D0F800B08088B9F87D
:104F100006C0ACEB00039BB2844502D2281A604461
:104F200083B2E81A401E84B2944288BF1446002C13
:104F30000DBF00208A464FF00008BDE8F09FE81B37
:104F400086B2A64288BF2646012E04BF1AF8080082
:104F50000BF8070006D00AEB08010BEB07003246FE
:104F6000FBF745F908EB06001FFA80F8A01B84B296
:104F7000B81987B2AF4228BF0027002CDFD1A9F8AB
:104F800006704046BDE8F09F154930B449880022BC
:104F9000491E0904DFF84CC0090C13D053185B08F4
:104FA0000CEB0314258885423CBF5A1C92B202D1F7
:104FB000204630BC704703D9002B18BF5B1E99B246
:104FC0008A42EBD38A4207D10CEB02110A88824253
:104FD00002BF084630BC7047002030BC704700005C
:104FE000484000206078000810EE101A01700A0A8C
:104FF00042700A0C8270090EC170042070470000D4
:105000000149C86070470000002002400248016961
:1050100041F08001016170470020024070B50546F3
:105020004FF4801000F018F8002818BF70BD094C2C
:10503000206940F0020020616561206940F0400075
:1050400020614FF4801000F007F8216921F002017F
:10505000216170BD00200240104902460020CB684B
:1050600013F0010F18BF012010D1CB6813F0100FFF
:1050700018BF04200AD1CB6813F0040F18BF022018
:1050800004D1CB6813F0080F18BF0320521E01286B
:1050900018BF7047002AE1D1052070470020024068
:1050A0000548016911F0800F08BF7047034941604E
:1050B000034941607047000000200240230167451A
:1050C000AB89EFCD70B506460D464FF48010FFF763
:1050D000C3FF002818BF70BD074C206940F00100D5
:1050E000206135604FF48010FFF7B6FF216921F091
:1050F0000101216170BD00000020024010B4144A7B
:10510000DFF848C045F2555463461460D4685B1E0E
:1051100004F0010402D0002CF8D100E054B9516031
:10512000D168BCF1010C01F0020102D00029F7D1D5
:1051300003E011B110BC00207047C0F30B00906079
:105140004AF6AA20106010BC01207047FFFF0F0034
:105150000030004002494CF6CC4008607047000027
:105160000030004070B5414C05462DED028BA07813
:105170009FED3F8A38B1A5800020A070B0EE480AAC
:10518000BDEC028B70BD00200146801A71EB03005C
:10519000A2BFB0EE480ABDEC028B70BD10461946A6
:1051A000FBF762F900EE900A9FED321AA08880EEBC
:1051B000810A281AB0F5005FC8BFA0F5804004DC62
:1051C00010F5005FB8BF00F580409FED2B1A2C4909
:1051D000C1EE000A00EE100A9FED281AB8EEC00AD0
:1051E00020EE010A60EE800A10EE900A8842C8BFE5
:1051F000DFED240A04DC10EE900A10F1715F32D862
:105200002148217800EB8102491CC2ED000A01F01F
:105210001F012170617820293CBF491C617011F089
:10522000FF0216D0001F12F0010F04D090ED010A0A
:10523000001D30EE088A51080BD000BF90ED010A26
:10524000D0ED020A083030EE080A491E30EE808A9E
:10525000F4D100EE102AA580F8EE400A88EE200A6C
:10526000BDEC028B70BDDFED090AC9E730000020FC
:105270000000000000247449DB0FC94000008038A2
:105280000000C0430000C043446700200000C0C3CA
:1052900041617047016170472DE9F00301F00F0C87
:1052A00011F0100F04D0042A18BF4CEA020C3FD0B2
:1052B00000220F265FF0010404FA02F51D4012D00F
:1052C000D0F80080970006FA07F90CFA07F728EAE9
:1052D000090847EA0807282908BF456102D048297C
:1052E00008BF05610760521C92B2082AE4D3082265
:1052F00004FA02F51D4014D047684FEA8208A8F16D
:10530000200806FA08F90CFA08F827EA090748EA1B
:105310000707282908BF456102D0482908BF056151
:105320004760521C92B2102AE2D3BDE8F0037047E6
:10533000C26B4CF0030C1A43C263B9E741F48032EC
:1053400082618161826181698069704770B4194AA4
:1053500010F0004F14BFD3695368C0F303444FF4F7
:10536000401C3CEA00054FEA505C4FEA0C1C86B238
:1053700006FA0CFC16D010F4801F08BF23EA0C03B9
:1053800003D0032505FA04F4A34343F0E0630029A6
:1053900018BF4CEA030310F0004F14BFD3615360F1
:1053A00070BC7047546823F0E06324F0E0645460FC
:1053B000EDE70000000001408CB072B64FF4C06011
:1053C00001F08CF840F2026001F088F840F20360CE
:1053D00001F084F840F2046001F080F840F20B60C4
:1053E00001F07CF84FF4E06001F078F840F20960D9
:1053F00001F074F840F20A6001F070F8012000F04A
:105400008FFF4FF4A06001F069F840F2197001F0CD
:1054100065F840F20C6001F061F840F20F7001F0A5
:105420005DF8DFF80C854FF480514046FFF730FF00
:105430004FF48053022210214046FFF72DFF042134
:105440004046FFF725FF0423022210214046FFF7C4
:1054500023FFDFF8E0940123042200214846FFF7F0
:105460001BFF0223042200214846FFF715FF0423F7
:105470001A4600214846FFF70FFF082304220021A7
:105480004846FFF709FF0123042200214046FFF7A9
:1054900003FF0223042200214046FFF7FDFE4FF4E4
:1054A0008073032218214846FFF7F6FE4FF400737D
:1054B000032218214846FFF7EFFE4FF480630322D2
:1054C00018214846FFF7E8FE4FF400530322182145
:1054D0004046FFF7E1FE4FF4804303221821404687
:1054E000FFF7DAFE4FF40043032218214046FFF78E
:1054F000D3FE4FF40063032248214846FFF7CCFE59
:105500004FF48053032218214846FFF7C5FE1021AF
:105510004846FFF7BFFE1023032219464846FFF70F
:10552000BBFEA023032218214846FFF7B5FE402307
:10553000032204214846FFF7AFFE0121FE48FFF792
:1055400005FF40214046FFF7A5FE4023032210211E
:105550004046FFF7A1FE2823032218214046FFF70B
:105560009BFE1023032204214046FFF795FEF348DB
:1055700001F0CEFA684601F012FB00244FF482706D
:10558000CDE900044FF4006002908010CDE90304DF
:1055900003271025CDE905756946E84801F0E8FACA
:1055A000E64801F0ABFAE64E304601F0B1FA684643
:1055B00001F0F5FA4FF48270CDE90004E8010290A1
:1055C0008010CDE90304CDE905756946304601F048
:1055D000CFFA304601F092FADFF868A30021504676
:1055E000FFF7DEFBD8480090D8488DF81840012618
:1055F00002908DF819602801019080000390C0008E
:10560000CDE904708DF81A406A4600215046FFF734
:10561000E4FB00215046FFF7B2FB00215046FFF7A4
:105620009DFBCB4F3846FEF731FE4FF4A020FEF72E
:10563000F9FE012211023846FEF76FFF0122022116
:105640003846FEF76AFF0022A9013846FEF765FFDB
:1056500000213846FEF745FF00213846FEF70DFED3
:105660003846FEF731FE022211463846FEF7E9FDC4
:105670000022012311463846FEF769FE01231A462F
:1056800019463846FEF763FE2A0202213846FEF725
:1056900049FE012202213846FEF725FE03220121A0
:1056A0003846FEF7CEFD0123032200213846FEF7DF
:1056B000C5FE0123082219463846FEF7BFFE012326
:1056C000092202213846FEF7B9FE4FF4602201217B
:1056D0003846FEF727FE012211463846FEF703FE44
:1056E0009C4F3846FEF7D2FD002229013846FEF7CE
:1056F00014FF002202213846FEF70FFF0022A90105
:105700003846FEF70AFF00213846FEF7EAFE002180
:105710003846FEF7B2FD012202213846FEF791FD20
:105720000123022200213846FEF711FE4FF4E04229
:1057300002213846FEF7F6FD012202213846FEF727
:10574000D2FD854801F0F0FB08A801F037FDADF867
:1057500020404020ADF8220040F6B8300A90ADF865
:105760002C40ADF824408DF82E4008A97A4801F06D
:10577000B3FC684601F0D0FBADF800600420ADF842
:105780000200ADF80440ADF80840ADF80640ADF8B1
:105790000A406A460021704801F042FA6A46012137
:1057A0006D4801F03DFA6A4602216B4801F038FA73
:1057B0006A460321684801F033FA00221146664820
:1057C00001F04AFB60220021634801F01DFB082222
:1057D0000021614801F050FB002201215E4801F0E8
:1057E0003BFB602201215C4801F00EFB08220121F5
:1057F000594801F041FB00220221574801F02CFBDF
:1058000060220221544801F0FFFA08220221524886
:1058100001F032FB40F6B33203214F4801F01CFB8C
:10582000702203214C4801F0EFFA002203214A487C
:1058300001F022FB03A801F0CBF9ADF80C40ADF864
:105840001040ADF81440ADF80E40ADF81240ADF880
:105850001640ADF8184003A93F4801F0A8F9A80682
:1058600001F062FB684601F0A9FC4EF65F20ADF83E
:1058700000600290ADF80240ADF80440ADF80C4075
:105880006946A80601F028FC0121880701F088FC80
:105890000121880701F080FCA80601F00FFC290215
:1058A0004046FFF74BFD01214846FFF747FD022127
:1058B0004846FFF743FD04214846FFF73FFD082116
:1058C0004846FFF73BFD01214046FFF737FD022127
:1058D0004046FFF733FD29014846FFF72FFD6901D8
:1058E0004846FFF72BFDA9014846FFF727FD69024F
:1058F0004046FFF723FDA9024046FFF71FFDE902DE
:105900004046FFF71BFDE9014846FFF717FD290256
:105910004846FFF713FD10214846FFF70FFD2021F1
:105920004846FFF70BFD40214846FFF707FD15E00D
:10593000000C01400008014000023000003001402E
:10594000003C0040000002404C24014016000020B2
:105950000024014000280140002C014080214846DD
:10596000FFF7ECFC08214046FFF7E8FC1021404619
:10597000FFF7E4FC20214046FFF7E0FC40214046D1
:10598000FFF7DCFC4FF4407000F056FA714880F8E5
:1059900000444FF0E020A903C0F800116E4981F8DF
:1059A00000542906C0F800116C4A202182F8001426
:1059B000C903C0F800114FF4106000F0DBFC00BF19
:1059C0004FF4106000F0E4FC0128F9D101213220ED
:1059D000FFF794FBFEF75CF8FDF78EFBFCF70CFC81
:1059E000FAF702FFFBF758FE5D48009001E000BFA8
:1059F0000846411E0091FAD262B6FDF771FE0028FA
:105A00001CBF4FF40040FBF713F85648D0F8180CB1
:105A1000002804BF4FF48040FBF70AF8FFF79AFB19
:105A2000FAF7EAFF5048DFF84481514C0670514FB5
:105A300098F84400DFF84091DFF840B16070BD1481
:105A40004AF6AA2A6168E068081A0A2870D36068D2
:105A50000028606808BF401CE060FCF767FA012876
:105A600004D002282FD0042838D040E0B8F8000035
:105A70000028608806D0002849D0052849D00A2887
:105A800035D931E048F6890141436278090D9142E8
:105A900011D23B49A1FB00310B09A3EB031310EB1F
:105AA000430308BF3D6006D0C908A1EB0111C14204
:105AB00004BF34490D60C2EB02123C2101EB4201EC
:105AC000814214D210E0608808B30A2821D014283B
:105AD0001DD01E281DD0642809D905E06088B0B10A
