:020000040800F2
:10000000E872002069010008AD330008E51E000811
:10001000A93300080506000831420008000000006E
:100020000000000000000000000000008D400008FB
:10003000150B0008000000000D3A000881010008BF
:100040008301000883010008830100088301000880
:100050008301000883010008830100088301000870
:100060008301000883010008830100088301000860
:100070008301000883010008830100088301000850
:100080008301000883010008F105000883010008CE
:1000900009060008830100088301000883010008A5
:1000A0008301000883010008830100088301000820
:1000B0001942000883010008830100088301000839
:1000C0008301000883010008830100088301000800
:1000D00083010008830100088301000883010008F0
:1000E00083010008830100088301000883010008E0
:1000F000830100088301000883010008000000005C
:10010000830100080000000083010008830100084B
:1001100083010008830100088301000883010008AF
:10012000830100088301000883010008830100089F
:1001300083010008000000000000000083010008A7
:10014000830100088301000883010008830100087F
:10015000DFF810D000F0FEF900480047A958000869
:10016000AFF30080E8720020064880470648004749
:10017000FEE7FEE7FEE7FEE7FEE7FEE7FEE7FEE757
:10018000FEE7FEE721410008510100082DE9F0419A
:100190000024061B254671F1000605DA012400271C
:1001A000D0EB070067EB0101161E73F1000605DABC
:1001B0000027D2EB0702012567EB030300F0F5F8F7
:1001C00086460E4617469C46AC4204D00025D0EB2E
:1001D000050E65EB010624B10020D2EB000760EBB1
:1001E000030C704631463A466346BDE8F08140EA6A
:1001F00001039B0703D009E008C9121F08C0042AA5
:10020000FAD203E011F8013B00F8013B521EF9D28B
:100210007047D2B201E000F8012B491EFBD27047B3
:100220000022F6E710B513460A4604461946FFF7C2
:10023000F0FF204610BD2DE9FE4F81EA030404F0D3
:10024000004421F0004100944FF0000B23F00043E4
:1002500050EA01045ED052EA03045BD0C3F30A54AF
:10026000C1F30A552C44A4F2F3340194A0FB0254C8
:10027000C1F3130141F48011C3F3130343F480135A
:1002800001FB024400FB034E840A970A44EA8154AE
:1002900047EA8357A4FB076802958D0A05FB07858B
:1002A0004FEA932C04FB0C542705029D4FEA065895
:1002B00047EA1637B5EB08056EEB070C870E920E72
:1002C00047EA811742EA8312A7FB0201B6EB0B0152
:1002D00064EB00042B0D43EA0C335E1844EB1C5016
:1002E000DA465146E7FB0201C5F313044FEA0B332C
:1002F00043EA14534FEA0432019C43EA0603A4F193
:100300000C040294009CCDE900B400F0D4F803B0D2
:10031000BDE8F08F00200146F9E7F0B4CA17CB0F13
:1003200050405140C61841F100054FEAC3723146B2
:1003300028004FF0960303D0B623F0BC00F07EB83F
:1003400030460021F9E70EB5C10F80EAE07008449D
:10035000CA07002140F233438DE80E000A460B46DF
:1003600000F0A9F803B000BD10B500F0004420F083
:100370000040C20DC0F3160040F400007F2A02DAEC
:100380000020014610BD0021962A03DCC2F196022E
:10039000D04002E0963A00F039F8002CF2D0002369
:1003A000D0EB030063EB010110BD2DE9F05F0546C2
:1003B000002092469B4688460646814640241BE024
:1003C000284641464746224600F0D6F853465A464C
:1003D000C01A914110D311461846224600F016F873
:1003E0002D1A67EB01084F4622460120002100F03C
:1003F0000DF817EB00094E41201EA4F10104DFDCCB
:10040000484631462A464346BDE8F09F202A04DB91
:10041000203A00FA02F1002070479140C2F1200317
:1004200020FA03F31943904070470029A8BF704792
:10043000401C490008BF20F00100704710B4B0FA1A
:1004400080FC00FA0CF050EA010404BF10BC7047B5
:1004500049B1CCF1200421FA04F411FA0CF118BFCF
:10046000012121430843A3EB0C01CB1D4FEA00619E
:100470004FEA102042BF002010BC704700EBC35071
:1004800010440029A4BF10BC7047401C490008BF9D
:1004900020F0010010BC704710B5141E73F1000469
:1004A00008DA401C41F1000192185B411A4301D166
:1004B00020F0010010BD2DE9F04D92469B4611B190
:1004C000B1FA81F202E0B0FA80F220329046FFF7F2
:1004D0009DFF04460F4640EA0A0041EA0B015346DD
:1004E0005A46084313D0114653EA010019D0C8F107
:1004F0004002504600F040F805460E465046594628
:100500004246FFF783FF084305D0012004E0204660
:100510003946BDE8F08D0020054346EAE0762C43DD
:1005200037430A986305E40AA0EB08000022FD0A9D
:1005300044EA47540A3002D500200146E9E70105A4
:1005400010196941DDE9084500196941BDE8F04D20
:10055000A2E70000064C074D06E0E06840F001030A
:1005600094E8070098471034AC42F6D3FFF7F4FD47
:10057000B8900008D8900008202A04DB203A21FA1D
:1005800002F00021704721FA02F3D040C2F12002AC
:10059000914008431946704770B58C1810F8015BFC
:1005A00015F0070301D110F8013B2A1106D110F80C
:1005B000012B03E010F8016B01F8016B5B1EF9D110
:1005C0002B0705D40023521E0DD401F8013BFAE796
:1005D00010F8013BCB1A921C03E013F8015B01F801
:1005E000015B521EF9D5A142D8D3002070BD000096
:1005F0000348016821F00401016001F07BBD0000A7
:100600000024014001F0E4B900F052B9134910B5DB
:100610004FF48852A1F1240004F0E7FE4FF4885211
:100620000F49104804F0E1FE4FF488620E490F486C
:1006300004F0DBFE0E480F4990F844200A70B0F831
:1006400048204A80B0F84A208A8090F8461090F8F6
:100650004500BDE8104003F0C3BA0000B4420020DA
:10066000B45300209C420020B4640020A842002023
:10067000F469002028000020F0B5A3B044226946A8
:10068000474804F063FE00281CBF684605F094FE4E
:10069000444804F09EFE50B103F078FB38B9442280
:1006A0006946404804F052FE684603F083FB3E482A
:1006B00004F08FFE50B103F069FB38B9442269465B
:1006C000394804F043FE684603F074FB374C384D5C
:1006D000A18800291CBFE068002833D02A68A2EB5B
:1006E000000088422ED30027E76001F0FDFC0128BE
:1006F00004D003F05DFC012002F0A8FA2D484188E7
:1007000041F004014180018811F0800F1AD1EFF30C
:10071000108672B641F0800101802078129700F1B6
:1007200080021198ADF8481062F31700119008206C
:100730008DF847001397442211A91B4804F05BFE73
:1007400086F310886088002804BF23B0F0BDA1683C
:100750002A68511A81423CBF23B0F0BD28680028A6
:10076000286808BF401CA060207811AC00F5E0614B
:10077000119861F31700119001208DF847000520B2
:100780008DF84800204603F015FB002804BF23B075
:10079000F0BD44222146034804F02DFE23B0F0BDF5
:1007A000904200209C420020A84200202800002007
:1007B00008000020F469002010B516482DED028BCA
:1007C00092B00078B0EE608A00F5F06100986C4657
:1007D00061F31700009001A804F074FE04F1080012
:1007E000B0EE480A04F06EFE08208DF803002046A3
:1007F00003F0E0FA002802BF12B0BDEC028B10BD7E
:1008000044222146044804F0F6FD12B0BDEC028BF0
:1008100010BD0000280000209C42002030B591B09F
:10082000054601F061FC012804D003F0C1FB012062
:1008300002F00CFA1349488840F004004880088808
:1008400028421CBF11B030BDEFF3108472B62843AC
:1008500008800D49097801F18002009962F31701BF
:10086000009108218DF80310002101910291ADF84B
:10087000040044226946054804F0BDFD84F3108855
:1008800011B030BDF469002028000020A8420020EB
:10089000054A016812780A4462F3170101600146B3
:1008A0004422024804F0A7BD28000020A8420020EE
:1008B0002DE9F041294C92B06946206810F0030FF1
:1008C00004BF12B0BDE8F081254F386807F1040875
:1008D000420D009862F317000090D8F80000214DF7
:1008E00000F00F0008F10406285C8DF80300C01C1E
:1008F000800801F1040106D03268401E41F8042B43
:1009000010F0FF00F8D1206840F020002060442261
:100910006946154804F06FFD2068694610F0030F22
:1009200004BF12B0BDE8F0813868420D009862F350
:1009300017000090D8F8000001F1040100F00F004A
:10094000285C8DF80300C01C8008DCD03268401E93
:1009500041F8042B10F0FF00F8D1D4E70C640040FC
:10096000B06500405C760008904200202DE9F04719
:10097000DFF87880D8F8006006F10801B1F5344F4F
:1009800031D8044604F0FAFD0227002506EB850065
:1009900000F1006909F534493C2004F09FFD54F84A
:1009A0002510484604F0FCFD10B104F09DFD15E053
:1009B0006D1CBD42EAD304F097FD0020002F0DD935
:1009C00006EB800101F1006101F5344154F820206B
:1009D00009688A4202D1401CB842F1D3D8F800001D
:1009E0000830C8F800000020BDE8F0877C420020F5
:1009F0004FF0E0214FF0FF30C1F88001C1F88002D4
:100A0000C1F88401C1F88402C1F88801C1F88802E4
:100A1000C1F88C01C1F88C02C1F89001C1F89002B4
:100A2000C1F89401C1F89402C1F89801C1F8980284
:100A3000C1F89C01C1F89C0218494FF4805008602D
:100A40001749D1E90001D0E90032A3F10053B3F511
:100A5000004F09D812F0010F06D022F00102A2F1D6
:100A60000062B2F5003F13D9D1E90020A2F1005293
:100A7000B2F5004F0BD810F0010F08D020F00100A4
:100A8000A0F10060B0F5003F98BF084600D90548C6
:100A9000016881F30888406800470000140C014099
:100AA0006C810008006801082DE9F04104F066FD42
:100AB000144D154FDFF854802C464AF6AA263C20E8
:100AC00004F00CFD204604F017FD10B104F00CFDFD
:100AD0000AE03E6004F580644445F0D304F004FD70
:100AE0002868B0F1FF3F03D04FF0FF30BDE8F08140
:100AF0003E602D1D4545F3D3054900200860BDE843
:100B0000F081000000B400080030004000680108D7
:100B10007C42002000F05CBF2DE9F04175244FF0CD
:100B2000006600BF06EB842001F0B6F8042805D06B
:100B3000A41D812CF6D30520BDE8F081651CA71DFE
:100B4000BD4208D206EB852001F0A6F80428F2D1B8
:100B50006D1CBD42F6D30621204600F043FF00285D
:100B60001CBF0120BDE8F08100F03AFF0020BDE885
:100B7000F08100002DE9F041054675244FF0006634
:100B8000B5B11020002206EB8423012103EB020CF7
:100B9000DCF80070DCF804C0FF4377EA0C0C18BFE7
:100BA0000F20491C08328029F0DD0F280ED105E006
:100BB0000121204600F016FF28B907E00121204658
:100BC00000F010FF10B10120BDE8F081641C812C01
:100BD000D6D300F005FF0221752003F059FA002852
:100BE0001CBF0220BDE8F08100210448418075212E
:100BF0000170202141600020BDE8F081804200208A
:100C00002DE9F05F0027DFF844C3834601203E460C
:100C10003C46B946BA468CF8010075235FEAC065C8
:100C200005EB832100200A18CCF808200A18D2F816
:100C3000008052680830B0F5806FF4D35B1C812BC4
:100C4000EED3C249002048704FF0750805EB8820AC
:100C500001F022F8022814BF01287F1C01D00328CC
:100C60000AD008F10108B8F1810FEFD33800B84F6E
:100C7000DFF8E08246D105E0002E08BFC1464446B9
:100C8000761CEEE7002E08BF75241DD0A9F16A007E
:100C9000A8FB0021C908A1EB810100EB810007EB53
:100CA000802000F0F9FF04282CD1A4F17400A8FBE7
:100CB0000021C908A1EB810100EB81000121753001
:100CC00003F0E6F990B91DE00121204600F08AFE0C
:100CD00010B10120BDE8F09F641C812CF4D300F01A
:100CE0007FFE0221752003F0D3F910B10220BDE888
:100CF000F09F96490020752248800A7020224A60A1
:100D0000BDE8F09F5FF0750605EB862000F0C4FF9C
:100D1000012822D1752E18BF7B2E10D0A6F16A00B3
:100D2000A8FB00214FEAD101A1EB810100EB81007A
:100D300007EB802000F0B0FF03281FD00DE0A6F1E4
:100D40007400A8FB0021C908A1EB810100EB810020
:100D500007EB802000F0A0FF80B1761C812ED3D35A
:100D60004FF000095FF0750605EB862000F094FF58
:100D7000022813D0032808BF344639E07348002105
:100D800001220670084602F073FDB0F5807F16BFA1
:100D90000C204FF0010ABDE8F09FE1E7752E18BF67
:100DA0007B2E10D0A6F16A00A8FB00214FEAD101EA
:100DB000A1EB810100EB810007EB802000F06CFFCC
:100DC00003280ED014E0A6F17400A8FB0021C90886
:100DD000A1EB810100EB810007EB802000F05CFFBC
:100DE00030B9B9F1000F4CD158484FF001090670E5
:100DF000761C812EB8D3B9F1000F13D1A4F1740081
:100E0000A8FB0021C908A1EB810100EB810000F1E2
:100E100075024E4802210270104603F039F900288D
:100E20007FF464AF494E002020217080716096F8F5
:100E300000400A4602EB84234FF00060C05803F1E3
:100E400000635B686FEA000C7CEA030007D07088DF
:100E50000831401C08327080B2F5806FEAD37160AF
:100E600015E06A38A8FB0021C908A1EB810100EB5D
:100E7000810000F1750405EB842000F00DFF0328CC
:100E800002D00A20BDE8F09F70887C307080204638
:100E9000752C18BF7B2CE4D13078A0F17400A8FB2E
:100EA00000214FEAD101A1EB810100EB810000F1AB
:100EB000750605EB8622A64236D000BFBBF1000FB7
:100EC00014D010230021012002EB010CDCF800708B
:100ED000DCF804C0FF4377EA0C0C18BF0F23401C5A
:100EE00008318028F0DD0F2B0FD107E001213046BB
:100EF00000F078FD00287FF4ECAE06E001213046DA
:100F000000F070FD00287FF4E4AEA6F17400A8FBA9
:100F10000021C908A1EB810100EB810000F17506F9
:100F200005EB8622A642C9D100F05AFDBAF1000FA6
:100F300008D10021084603F07DF9002818BF1128C8
:100F40007FF4D4AE4FF00000BDE8F09F8042002057
:100F500000D40108ABAAAAAA38B50C46002819BFCC
:100F6000A0F57F41B1F1FF01082038BD00210091BB
:100F7000694602F04DFD002804BF0099218038BD6C
:100F800038B50C46002819BFA0F57F41B1F1FF012B
:100F9000082038BD00210091694602F039FD002883
:100FA00004BF0099216038BD38B50C46002819BF30
:100FB000A0F57F41B1F1FF01082038BD002100916B
:100FC000694602F025FD002804BF0099217038BD54
:100FD00070B5002819BFA0F57F42B2F1FF020820CA
:100FE00070BD04460D4603F025F9112818BF70BDE9
:100FF000002229462046BDE8704002F039BC70B599
:10100000002819BFA0F57F42B2F1FF02082070BD91
:1010100004460D4603F00EF9112818BF70BD0022DA
:1010200029462046BDE8704002F022BC70B5002879
:1010300019BFA0F57F42B2F1FF02082070BD04463F
:101040000D4603F0F7F8112818BF70BD002229469D
:101050002046BDE8704002F00BBC00002DE9F041D5
:10106000174F40243C60174D4FF40341284605F0CC
:1010700080FF0121284605F0A9FF0028F9D0284665
:1010800005F074FFDFF8408060F30F06C8F80040F9
:101090003C604FF40441284605F06BFF01212846CF
:1010A00005F094FF0028F9D0284605F05FFFC8F846
:1010B0000040F1B261F31F208008BDE8F08100001C
:1010C000140C0140003C0040100C0140704700002F
:1010D0002DE9F04F2DED068B83B0DFEDFE0ADFF832
:1010E000F893B9F8681001EE101AB8EE411ADFED66
:1010F000FB4ACC01FA4F21EE241AFA48D7ED032A15
:10110000002521EE001AB6EE005AC1EE201A01EEBB
:10111000104AB8EE411A80EE814AF8EEE20A90EDEC
:10112000001A60EE808AD9ED1B0A20EE813ADFEDCD
:10113000EE0A3A46D7F808C092ED011A61EE203A5D
:10114000DFEDEA0A92ED042A02F580400090C36ABE
:10115000506902F5405802EB8002BCF1090F80F0A3
:101160000F82DFE80CF0051226566FA3B8D1FD0000
:10117000DF48C7ED010A43F6FF71FD60C0E9055184
:10118000C0E90751012000F0FAB923EE280A20EE49
:10119000050A01F04FFB18EE900AB0F1804FC0F243
:1011A000EF810098C16AD2480161B868401C00F024
:1011B000E6B931EE211AB0EE608AB0EE430A87ED4F
:1011C000011A01F037FBCB497868814200F3D881DE
:1011D0000098C16AC6480069081AB0F5005FC8BF28
:1011E000A0F5804004DC10F5005FB8BF00F580403A
:1011F000002808DAD8F8200C002812BFC8F8205CB4
:101200000120C8F8200C87ED018AB868401C00F066
:10121000B6B931EE211AB0EE608AB0EE430A87ED1E
:10122000011A01F007FBB44978688842C0F2A8812E
:1012300087ED018AFD607D6187ED048AB868401CF6
:1012400000F09DB9B0EBC11F28D2F4EEC28AF1EED6
:1012500010FA17DB32EE040A87ED040A00EE101ACA
:10126000B8EE400A20EE240A83EE801ABDEEC10AD1
:1012700010EE100A181AC10F00EB813090617869E6
:10128000401C786197ED010A30EE211AB0EE430A56
:1012900087ED011A01F0CEFA00F072B9401E7861B4
:1012A0005FF00500C7E9020500F06AB985EE002A83
:1012B000B8EEE20AB4EEC02AF1EE10FA38BF06200A
:1012C000F0D331EE211AB0EE430A87ED011A01F096
:1012D000B1FA00F055B985EE002AB8EEE20AB4EE94
:1012E000C02AF1EE10FA05D2FD60C7ED040A07200E
:1012F00000F045B931EE611AB0EE430A87ED011AEC
:1013000001F098FA00F03CB90028B8BF0820C0F2FC
:101310003681B4EEE82AF1EE10FA1CD232EE040A5D
:1013200087ED040A00EE101AB8EE400A20EE240AF7
:1013300083EE801ABDEEC10A10EE100A181AC10F12
:1013400000EB81309169084400EBD070401090614F
:101350007869401E786197ED010A30EE611A00E06D
:1013600006E087ED011AB0EE430A01F063FA07E1E7
:101370005F48D0E90523D21AB2F5005F05DBD0E95A
:101380000720101AB0F5005F07DA4FF48060FFF70E
:1013900045FA0920C8F8185CF1E00020844691B1B4
:1013A000002207F1140513468E01696808184CEBFA
:1013B000E17C55F8081F8A1843EBE173761EF4D1DF
:1013C00080184CEB030C224600236146FEF7DEFE3C
:1013D000C8F8240CB8694FF000094002C11700EBAF
:1013E00091408013DFED459ADFED458AB7EE00AA04
:1013F000CDF8040000EE109A00221146F8EEC00A63
:1014000000EE104A15461646B8EEC00A6FF03F03CC
:1014100020EE800A60EE290ABDEEE00A10EE10CA46
:1014200000EE10CAB8EEC00A30EEC08A1CEB030A08
:101430000AF1010003D500BF1AEB040AFCD4A2454F
:1014400004DB00BFAAEB040AA245FBDA002801DA9C
:101450000019FDD4A04202DB001BA042FCDA07EB1E
:101460008A0A07EB8000DAF818A080691AEB0202FA
:1014700041EBEA71451946EBE07603F10103402B9D
:10148000D4DB1046FEF749FF00EE100A284631462D
:1014900020EE289AFEF741FF00EE100A60EE280ABF
:1014A0003AEE480A20EE090A00EE880A10EE100A09
:1014B000FEF75AFF01994944B1F5007F25DB4A4206
:1014C000D31702EBD35252125242002AC8BF5242E3
:1014D00018E000000AD72341F4690020DB0FC9405F
:1014E00070000020684200200000804600000000DC
:1014F00038000020DB0FC941DB0FC9400000003B72
:101500000000003CC8BF01EB4221002903DA00BF04
:1015100011F50071FCD4D8F8242C07EB4101801A96
:1015200001F5405109F10109A1F8280CB9F5007F36
:10153000FFF660AF3B48018821F48041018041887B
:1015400021F0040141800120C8F8180C732000F03C
:101550009FFA742000F09CFA33484FF482610446ED
:1015600003F08CFD009A2146906240F214422F480D
:1015700000F0ACFA012001F069FBB868401CB860CB
:1015800000982B4DC06A6969814247DBA96988428E
:1015900046DBDFF8A0A04026CAF80060DFF898908C
:1015A0004FF40341484605F0E4FC0121484605F0AC
:1015B0000DFD0028F9D0484605F0D8FCDFF87C8006
:1015C00060F30F04C8F80060CAF800604FF40441EB
:1015D000484605F0CEFC0121484605F0F7FC0028FE
:1015E000F9D0484605F0C2FC60F31F44C8F800601B
:1015F000E1B261F31F20E96980088842C8BF014653
:10160000E961296A8842C8BF08462862F868401C18
:10161000F86003B0BDEC068BBDE8F08F6861B5E7FC
:10162000A861B6E7F4690020883C002000CC0108DE
:1016300038000020140C0140003C0040100C014018
:101640000C4910B5088810F4806F1CBF20F480602E
:101650000880002408484FF48061C0F8184CC0F896
:10166000204CC0F8244C00F62840FEF7D9FD034872
:10167000846010BDF46900207030002070000020EC
:1016800010B5114840F214420E490446FEF7AFFD72
:101690004FF48261204603F0F1FC0C49896A8142D3
:1016A00008BF10BD00200A49C1F8180CC1F81C0C75
:1016B000C1F8240CBDE810404FF480610548FEF7E6
:1016C000AFBD000000CC0108883C00207040002025
:1016D00070300020983C00202DE9F041AE4F1024DE
:1016E0002DED048B3C60AD4E4FF40341304605F0C8
:1016F00040FC0121304605F069FC0028F9D0304655
:1017000005F034FCDFF8988260F30F05C8F800405C
:101710003C604FF40441304605F02BFC012130467B
:1017200005F054FC0028F9D0304605F01FFC60F3AA
:101730001F45C8F80040E9B29A4C61F31F208008A9
:10174000A4F58053E062D3F8201C19B143F6FF7171
:10175000081AE062012202EB6012934E4FEAE27C2B
:1017600002EBDC5C6FF3080C4111A2EB0C0206EB00
:10177000410106EB420201F5405143F6284C32F993
:101780000C20B1F9281C20F01F0CA0EB0C0C521AF5
:101790000CFB02F201EB6211401AD3F8241C401A30
:1017A000B0F5804F0BDDC0F10101CA1701EB92418A
:1017B000891349420029C4BF494200EB8130002807
:1017C00003DA00BF10F58040FCD420633178DFEDF0
:1017D000779A81B100EE100A6063481EB8EEC00A25
:1017E00084ED130AC4ED149A3070BDEC048BBDE88F
:1017F000F04104F05DBC04F05BFCD4E90C703D1AD0
:101800006763B5F5005F0BDD6949481BC11700EB45
:101810009140801340420028C4BF404205EB803510
:1018200015F5005F05DA00BF05F5804515F5005F89
:10183000FADBD4ED138A94ED148A9FED5E9A48EE9C
:10184000098AC4ED138AB0EE680A02F041FD00EE89
:10185000907AF8EEE00A70EEC00A10EE900A9FED62
:10186000561AB0F18C4F06DD70EEC10A10EE900AE8
:10187000B0F18C4FF8DC10EE900AB0F1464F06D96B
:1018800070EE810A10EE900AB0F1464FF8D894ED50
:10189000150A20EE090A40EE208A18EE900AC4EDDF
:1018A000138AB0F18D4F0ADD94ED130A30EE410A30
:1018B00010EE100A84ED130AB0F18D4FF4DC94EDB4
:1018C000130AB5EEC00AF1EE10FA08D230EE010AA2
:1018D00084ED130AB5EEC00AF1EE10FAF6D394EDDA
:1018E000160A20EE090A00EE208A84ED148AB5EE6D
:1018F000C08AF1EE10FAD8BFB1EE488A94ED170A0B
:10190000B4EEC08AF1EE10FA38BFC4ED149A06F5B1
:10191000804006F58042D0E90E10491940EBE57091
:10192000C2E90E102648D4ED130A9FED240AB0F840
:1019300068004FF0320220EE801A00EE900A4FF05D
:101940000003F8EE600A21EE201ADFED1E0A21EEF8
:10195000201A84ED111A94ED141A84ED101A21EE58
:10196000001A00EE100AB8EE400A21EE000A20EE3E
:10197000200A84ED120AA08D80B203F061FE1248A5
:10198000D0ED000A114880EE201A80ED0A1ABDEC55
:10199000048BBDE8F08100001408014000300140D4
:1019A000100801407040002070000020000000007E
:1019B00001E0FFFF17B7513800008046DB0FC94038
:1019C000F4690020000080386C42002038000020BC
:1019D00072B60021014805F01AFEFEE7002C014016
:1019E000704700002DE9F05F0F1E82464FF00005A2
:1019F0001FDDDFF844804AF6AA264FF0006B00BFD7
:101A00000AEB0509EFF3108472B6C8F8006003F022
:101A1000B5FD3C2003F062FD0BEB892003F06CFD6B
:101A200003F062FDC8F8006084F310886D1CBD42AD
:101A3000E6DB0020BDE8F09F003000402DE9FF47C5
:101A4000054602AE4FF00808EFF3108772B603F0B8
:101A500095FDDFF838A000244AF6AA29CAF80090BC
:101A60003C2003F03BFD3159281903F099FD10B1DA
:101A700003F03AFD06E0241D4445EFD303F034FDA6
:101A800087F3108804B00020BDE8F08700300040E4
:101A90002DE9F0410546EFF3108472B60A4F4AF67D
:101AA000AA263E6003F06AFD3C2003F017FD4FF0CC
:101AB000006000EB852003F01FFD03F015FD3E6084
:101AC00084F31088BDE8F081003000402DE9F04734
:101AD000164688460746EFF3108572B603F04EFDB2
:101AE0000024002E84BF4AF6AA29DFF834A011D9B9
:101AF000CAF800903C2003F0F1FC58F804103819A3
:101B000003F04EFD18B1BDE8F04703F0EDBC241D15
:101B1000B442EDD303F0E8FC85F31088BDE8F0870C
:101B2000003000402DE9F05F594F82464FF00066CB
:101B300097F8008006EB882000F0AEF80446554D7B
:101B4000A8F17400A5FB0021C908A1EB810100EBFD
:101B5000810000F1750906EB892000F09DF8A8F1DD
:101B60006A01A5FB0132D208A2EB820201EB8201DD
:101B70007531BAF1000F7FD0BAF1010F07D0BAF179
:101B8000020F02BF00284846BDE8F09F7AE04FF000
:101B9000200A022C02D0012C34D073E07968B1F510
:101BA000806F72D3042808BF752420D106EB8420EF
:101BB00000F072F8042803D0A41D812CF6D361E054
:101BC000651C04F1060B5D4509D200BF06EB8520BC
:101BD00000F062F8042855D16D1C5D45F6D306214E
:101BE0002046FFF7FFFE00284CD1FFF7F9FE032146
:101BF000404602F04DFAE0BB0221484602F048FAA6
:101C0000B8BB31E07968B1F5806F3ED3042808BFD6
:101C100075241FD106EB842000F03EF8042803D081
:101C2000A41D812CF6D32DE0651C04F1060B5D4547
:101C300009D200BF06EB852000F02EF8042821D140
:101C40006D1C5D45F6D306212046FFF7CBFE80B91B
:101C5000FFF7C6FE0321404602F01AFA48B90121F7
:101C6000484602F015FA20B94846C7F804A0BDE876
:101C7000F09F07E000E008E0022C06D0012C08BF2E
:101C80000846F4D04FF0FF30F1E74046EFE70000A0
:101C900080420020ABAAAAAA70B404684568836891
:101CA000D0F80CC0016942698669C069F64376EADA
:101CB00000001EBF042070BC7047C84370EA0200D9
:101CC0001EBF032070BC7047D84370EA0C001EBFD3
:101CD000022070BC7047E04370EA050014BF012089
:101CE000002070BC704700002DE9F0016D49002410
:101CF0000222087001266C49F2EE0E3AF2EE002A3A
:101D000008259FED6A2ADFED6A0AB3EE091A20233F
:101D10004FF01F0C9FED673A9FED670ADFED671AE2
:101D20000A27062824BFBDE8F0017047DFE800F06D
:101D300048032A4B6C935B48B2EE080A1123C0EDAE
:101D4000033AC0ED042A80ED050A83611223C361C2
:101D50005B4B0362C280A1F868509FED5A0A81ED87
:101D60001B0A9FED590A81ED1C0A81ED1D0A81F8BD
:101D7000884081ED2B2AC1ED2C0AB3EE0E0A81EDCD
:101D8000250A8AE04748C0ED033AC0ED042A80EDF9
:101D9000051AC0E9063C4D4B0362C280A1F86850A9
:101DA00081ED1B3A81ED1C0A81ED1D0A81F8884006
:101DB00081ED2B2AC1ED2C0AC1ED251AC1ED261AA1
:101DC000BDE8F00170473748C0ED033AC0ED042A82
:101DD00080ED051AC0E9063C3D4B0362C280A1F8C4
:101DE000687081ED1B3A81ED1C0A81ED1D0A81F8B6
:101DF000886081ED2B2AC1ED2C0AC1ED251AC1EDB9
:101E0000261ABDE8F00170472648F2EE0A1AC0ED26
:101E1000031AC0ED042A80ED051AC0E9063C2D4BDB
:101E20000362C280A1F8685081ED1B3A81ED1C0A63
:101E300081ED1D0A81F8884081ED2B2A9FED260A4D
:101E4000C1ED2C0A81ED250A9FED240A81ED260AB9
:101E5000BDE8F00170471348F2EE0A1AC0ED031A0C
:101E6000C0ED042A80ED051AC0E9063C1C4B036254
:101E7000C280A1F8687081ED1B3A81ED1C0A81EDEA
:101E80001D0A81F8886081ED2B2A9FED130AC1EDB0
:101E90002C0A81ED250A9FED110A81ED260ABDE885
:101EA000F001704758420020F46900200000AA4267
:101EB00000001643CDCC8C3EACC52739000048420B
:101EC0001C810008371A103FD7F7E1392C81000830
:101ED0003C8100084C8100080000B44200007042C0
:101EE0005C810008FFF774BD214810B5016C214CDE
:101EF000491C01642079F12808BF042030D00ADC95
:101F0000012808BF02202BD0022808BF012027D0BB
:101F1000032807D026E0F22808BF082020D0FF2899
:101F200013D01FE0EFF3108072B60021DFF848C035
:101F30000A460B46CCE90E111049C1E91C230022C8
:101F4000C1E9182280F310880CE0208850B110F409
:101F50004240208006D1608820F00400608001E0CB
:101F600000F074FEA08800F47F40A080002010BD27
:101F7000D8400020F4690020704000202841002053
:101F80002DE9F05F2DED048BEFF3108972B69FED14
:101F90004B8ADFF82C8198ED1B1A98ED1C0AC1EED4
:101FA000000A20EE080ADFED478AB0EE682A9FEDAE
:101FB000469ADFF818A1B0EE681AF0EE491A0AF155
:101FC000900001F001FC98ED1B1A98ED1D0AB0EE8F
:101FD000682AF0EE491AC1EE000A20EE080AB0EEB7
:101FE000681A0AF1AC0001F0EFFB0AF58475A5F55B
:101FF000AC7B374CDBF80800411E0029C4BF01262A
:102000000F460EDD3046FEF79EF995ED001B53ECB2
:10201000112BFEF710F90835761CE4E802017F1E4B
:10202000F0D198ED210AD8ED240AB8F8D40042F294
:10203000107130EE209A081A00EE100A9FED251A52
:102040000AF1C800F8EEC00AB7EE000A00EE810AF5
:10205000D8ED200A80EE891A60EE001AC8EE210A37
:1020600060EE801A81EE810AB0EE681ADFED1A1A6E
:10207000B0EE412A01F0A8FBB8F8D600DFED170A50
:1020800000EE100A9FED171AB8EE400A20EE200A63
:102090008AED390A9FED120AD8ED200A29EE000ACE
:1020A00060EE810A80EE201A8BED0F1A89F31088FA
:1020B000BDEC048B0020BDE8F09F0000D7710945FE
:1020C000F46900200000000017B7513828410020B3
:1020D000786900200AD7233C6F128339CDCCCC3DE0
:1020E000DB0FC940000080460148007870470000BF
:1020F000DB4000202DE9F041BA4C2DED048B207817
:10210000002804BFBDEC048BBDE8F081B64DA87873
:10211000401CC0B2A8700A2824BF0020A870B34891
:10212000008800EE100AB8EE400ADFEDB10A20EE9A
:10213000200ADFEDB00A20EE200AD4ED010A9FED5F
:10214000AE1A00EE810A84ED010ADFEDAC1A20EE32
:10215000210ADFEDAB0AAB4820EE200A84ED020A2B
:10216000D0ED000A9FEDA80AA84880EE201A00686A
:10217000A74980B2B1F90010401A00EE100AA54834
:10218000B8EEC00A21EE000A84ED030A0068A249F5
:1021900080B2B1F90010401A00EE900A9F48F8EEA4
:1021A000E00A61EE200AC4ED040A00689C4980B28E
:1021B000B1F90010401A02EE100AB8EEC22A21EE60
:1021C000021A84ED051A84ED060A30EEC10A20EEEB
:1021D000210A84ED070AFFF77FFA924F97ED110A63
:1021E00002F09AFBB0EE408A97ED110A02F052FB22
:1021F00094ED062AF0EE400AD4ED071A22EE201ADA
:1022000061EEA00A01EE881A42EE480A84ED081A2F
:10221000C4ED090A9FED840A94ED0A2A61EE001AC2
:102220009FED821A20EE800A42EE011AC4ED0A1ACE
:10223000D4ED0B0A00EE810A84ED0B0AA878DFEDDD
:102240007C8A7C4E002872D1FEF708FF00EE100A4F
:10225000B8EEC00A86ED100A308810F4007F18BF6F
:10226000C4ED158A61D17448D0ED000A7348C4EDFD
:102270003E0A90ED000A84ED3F0A94ED3D1A71EE9E
:10228000600AC5ED120A94ED161A31EE400A85ED8A
:10229000130A94ED3A1A61EE200A94ED3B1A41EECE
:1022A000000A94ED3C0A70EE800AC5ED110A96ED25
:1022B000251AB1EE410AB4EEE00AF1EE10FA34BF8D
:1022C000F0EE601AF0EE401AB4EEE11AF1EE10FAF8
:1022D00038BFB0EE410A06D3B4EEE00AF1EE10FAD0
:1022E00038BFB0EE600A85ED110A05F0A5F996ED4C
:1022F000261AF1EE410AF4EEC00AF1EE10FA34BFEC
:10230000F0EE401AF0EE601AB4EEE11AF1EE10FAB7
:1023100038BFB0EE410A06D3F4EEC00AF1EE10FA6F
:1023200028BFB0EE600A84ED150A04F077FB94F83C
:102330008D0010F0040F51D096ED260AD4ED150A49
:10234000B1EE408AF4EEC80AF1EE10FAD4BFB0EE56
:10235000481AB0EE601AB4EEC10AF1EE10FA38BFB6
:10236000B0EE408A06D3B4EEE08AF1EE10FA38BF40
:10237000B0EE608A94ED021A94ED0A0AF0EE682A33
:10238000F1EE410AB1EE400AB0EE412AF0EE601AD9
:1023900004F1900001F025FA94ED021AB0EE409A93
:1023A00094ED0B0AF1EE410AF0EE682AF0EE601AA5
:1023B00038EE400AB0EE412A04F1AC0001F011FA07
:1023C000F0EE400A97ED111A97ED120ADFED1C1A94
:1023D00000EE211AB0EE490A00F02CFABDEC048B95
:1023E000BDE8F08128410020D840002022000020D4
:1023F00063A6CC3C226CF83EEFC9033F3ACD133FB5
:102400003333733F64420020E44CCE3E3C24014011
:102410001C000020402401401E0000203C280140F8
:102420002000002070400020CDCC4C3ECDCC4C3F55
:1024300000000000F469002044000020600000203B
:1024400017B75138104810B5104990ED360A81ED94
:102450000B0A90ED370A81ED0C0A90ED380A81EDF8
:102460000D0A90ED390A81ED0E0AFFF789FD094842
:102470009FED070A80ED200A9FED070A80ED1F0AF5
:10248000BDE8104003F03EBFF4690020D8400020B2
:102490000000C8422841002000401C452DE9F041C1
:1024A000CA4CCB482DED088BE168026804F1500658
:1024B000511A9FEDC89AC84D0A29C0F00B810168D6
:1024C0000029016808BF491CC44FE160D4ED0A0A25
:1024D00097ED101A21EE200AB5EEC00AF1EE10FABF
:1024E000D8BF21EE600AD5ED310ABB49F4EEC00A2F
:1024F0004988F1EE10FA7CDD62694AB10068801A01
:10250000B5F8C820904224BF41F01000688004E074
:10251000016800296ED1A5E06061DFF8C482B8F8D7
:10252000040000EE100AB8EE400ADFEDAE8A60EE5D
:10253000280ADFEDAD9A80EEA90A9FEDAC8AF7EE8E
:1025400000AA20EE081A38EEC00AC1EE000A9FED7C
:10255000A8AA9FEDA8BA80EE880A01F0F1FE0BEE62
:1025600000AA8AEE8A0ADFEDA40A30EE600A85ED41
:102570000D0AD5ED2B0AB4EEE00AF1EE10FAC4BF55
:102580000820FEF74BF9B8F802009C4900EE100A4B
:102590000020F8EE400A80EEA90A20EE280A60EE3C
:1025A000080A38EEC01A80EE810A00BF01EBC002B3
:1025B000D2ED010A92ED031AB4EEE00AF1EE10FA40
:1025C00053D8B4EEC10AF1EE10FA4EDB70EE602A79
:1025D00071EE600A01EBC000D0ED001A82EEA00A95
:1025E00090ED022A72EE610A40EE201AC5ED0E1A35
:1025F00001E030E034E095ED2C0AF4EEC01AF1EE83
:1026000010FAC4BF1020FEF709F995ED070AB5EEE0
:10261000C00AF1EE10FAD8BFB1EE400AD5ED1F0A9C
:1026200095ED201A00EEC10AB5EEC00AF1EE10FADF
:10263000D8BF84ED079A05DDD4ED070A30EE800A95
:1026400084ED070A9FED6E1A6E48007802283BD28F
:10265000DFE800F03A1821F010016980016809B143
:10266000006859E70068401C56E7401CCD289DD300
:1026700010EE100A64498842CCBFDFED641ADFED2A
:10268000641AB3E796ED0A0AD6ED0B0A20EE000AAB
:1026900000EEA00ADFED5F0A70EE600A94ED080A12
:1026A00000EE810A84ED080AB5EEC00AF1EE10FAD8
:1026B00071D3287810F0200F06D15749206A88423C
:1026C000C4BF2020FEF7AAF897ED0C0AB8EEC00AA6
:1026D00085ED0F0A95F8F310002904BFBDEC088BB7
:1026E000BDE8F0814FF0E02220699369C01A44BF31
:1026F0006FF07F431844DFF824C10023CCFB003087
:102700008311A3EBE070B0F5FA7F57D39069F0EE38
:10271000490A20610D2941D2DFE801F040070A0D86
:1027200011181C24402C333A3E00D5ED070A35E041
:10273000D6ED150A32E03A48D0ED000A2EE03948CD
:10274000008800EE100AF8EE400A27E0364890EDC7
:10275000000A04E03548B0F9000000EE100AF8EE77
:10276000C00A1BE03248B0F9000000EE100AF8EE93
:10277000C00A13E0B5F8EC0000EE100AF8EE400ACB
:102780000CE0B5F8EE0000EE100AF8EE400A05E0A5
:10279000D5ED0F0A02E015E0D5ED100A607848B1DA
:1027A0000020607094ED060ABDEC088BBDE8F04196
:1027B000FEF702B801206070C4ED060ABDEC088B7C
:1027C000BDE8F08184ED089A73E70000D84000204E
:1027D0000800002000000000F46900207040002084
:1027E000220000203333534000F07F4500401C4658
:1027F0000FCF5B3B2CBB8439339388436C76000846
:102800000AD7233C5842002000E9364900005CC248
:10281000000016430000C84300409C458988888812
:1028200044000020D4400020D04000201C000020A4
:102830001E00002010B59B4CF7EE082A2DED048BEE
:10284000F0EE401AB0EE418A94ED012A82EE820A3F
:1028500061EE801A20EE800AC4ED0C1A84ED0D0A98
:10286000B0EE480A02F058F8F0EE408AB0EE480A9E
:1028700002F010F8D4ED0C1AF0EE400A94ED0D1AA7
:1028800021EEA08A08EEC18A61EEA88A40EE818A14
:102890009FED859A28EE080A08EEA80AF0EE400A95
:1028A000B1EEE00AB4EE400AF1EE10FA1CBFB0EE51
:1028B000600A01F0FBFDB5EEC09AF1EE10FA98BF88
:1028C0009FED7A9A10EE100A794988427EDB00BFAC
:1028D000B4EEC90AF1EE10FA05DDC9EE000A28EEE1
:1028E000208A68EEA08A9FED731A9FED730A40F666
:1028F000B830DFED720AF5EEC08AF1EE10FA46DB71
:10290000DFED6F1AB5EEC08AF1EE10FA1EDB28EE8D
:10291000A01AB4EEC18AF1EE10FA7DD308EEE08A77
:1029200068EE000AFCEEE00A10EE901A68EEA10ACA
:10293000401A20EE800ABCEEC00A10EE103AC01A0F
:10294000C0F34F02501881B2C81883E028EE811AF4
:10295000B4EEC18AF1EE10FA63D228EEA11A21EE8C
:10296000001ABCEEC11A11EE103AB1EE481A08EE88
:10297000E01AC01A21EE000ABCEEC00A10EE102ABE
:10298000801AC0F34F01C81880B2024447E0DFED5F
:102990004D1AB5EEC08AF1EE10FA20DB28EE811A4E
:1029A000B4EEC18AF1EE10FA56D328EEA11A08EE61
:1029B000A08A21EE001A28EE000ABCEEC11ABCEE75
:1029C000C00A11EE101A10EE103A00E067E0401A4B
:1029D000C01AC0F34F02D01880B2014455E028EE6F
:1029E000A01AB4EEC18AF1EE10FA35D218EEA08A20
:1029F00068EE000AFCEEE00A10EE902A68EEA10AEA
:102A0000801A20EE800ABCEEC00A10EE101A401A9E
:102A1000C0F34F00014400E003E089B20A4492B2DF
:102A200034E0B0EE481A18EEA08A08EEA01A21EEA3
:102A3000001A28EE000ABCEEC11ABCEEC00A11EE64
:102A4000103A10EE102AC01A801AC0F34F018818ED
:102A500082B2D01880B219E0B1EE481A08EEE08ACE
:102A600008EEE01A21EE001A28EE000ABCEEC11AA8
:102A7000BCEEC00A11EE101A10EE103A401AC01A3D
:102A8000C0F34F0001448AB2D11889B20E4B1A60CC
:102A90001A1F1160111F0860BDEC048B10BD9FED63
:102AA0000B0A15E7284100200C9E523F0C9E52BF96
:102AB000FFE6DB2E3ACD13BF00803B453ACD133FF6
:102AC0003ACD933F3ACD93BF3C2C0140FFE6DB2E3D
:102AD000054890F88800002818BFB1EE400A034866
:102AE00080ED140A70470000F4690020284100209E
:102AF0000D4880ED020A90F88810002918BFB1EE49
:102B0000400A0A4901220023C1ED0B0A0A70503124
:102B1000C1F88430438823F00803438081ED140A10
:102B200081F8442070470000F4690020D84000205C
:102B30002048DFED211A214990ED1E1A21EE211ABD
:102B4000D1ED0A1A61EE211AB1EE611AB4EEC10A92
:102B5000F1EE10FACCBFB0EE402AB0EE412AB4EE4E
:102B6000E12AF1EE10FAC8BFB0EE610A06DCB4EE5D
:102B7000C10AF1EE10FAD8BFB0EE410A80ED030AA7
:102B800090F88820002A18BFB1EE400AC1ED0C0A67
:102B9000C1ED0D0A01220A7009490023C1F88430F1
:102BA000438823F00803438081ED130A81F8442011
:102BB00070470000F469002000008046D8400020E3
:102BC00028410020124890F8881090ED020A002950
:102BD00018BFB1EE400AD0ED360A0E49C1ED0B0A1E
:102BE000D0ED370AC1ED0C0AD0ED380AC1ED0D0A5F
:102BF000D0ED390AC1ED0E0A418821F0080141806B
:102C00000548012180ED140A80F844100020704727
:102C1000F4690020D84000202841002009480A49D2
:102C200090ED360A81ED0B0A90ED370A81ED0C0A22
:102C300090ED380A81ED0D0A90ED390A002081ED02
:102C40000E0A7047F4690020D840002000B5002229
:102C50001C4983B0012820D0DFF86CC00228BCF8E2
:102C600000301DD0042825D008281EBF6FF00900B1
:102C700003B000BD42F2030003218DF80010694645
:102C800000F062FC11A142F202000968019101A961
:102C900000F090FC03B0002000BD48708A70F9E796
:102CA0005BB99CF80630002B08BF6FF00100F4D12F
:102CB00003B000BD13F4007FEFD003B04FF0FF303E
:102CC00000BD0000DB400020F4690020010000008E
:102CD0000249012081F8440070470000284100208B
:102CE000214890ED251AD0ED040AB1EE410AF4EE28
:102CF000C00AF1EE10FACCBFF0EE601AF0EE401A06
:102D0000F4EEC11AF1EE10FAC8BFB0EE410A06DCCB
:102D1000F4EEC00AF1EE10FAC8BFB0EE600A80ED22
:102D2000040A90F88810002918BFB1EE400AD0EDCF
:102D3000360A0E49C1ED0B0AD0ED370AC1ED0C0A77
:102D4000D0ED380AC1ED0D0AD0ED390AC1ED0E0AF9
:102D5000418821F0080141800548012180ED120AD7
:102D600080F8441000207047F4690020D84000200B
:102D7000284100202548DFED260A264990ED1E0A4D
:102D800020EE200AD1ED0A0A20EE201AD0ED030A27
:102D9000B1EE410AF4EEC00AF1EE10FACCBFF0EE4B
:102DA000601AF0EE401AF4EEC11AF1EE10FAC8BF44
:102DB000B0EE410A06DCF4EEC00AF1EE10FAC8BF2C
:102DC000B0EE600A80ED030A90F88820002A18BF50
:102DD000B1EE400AD0ED360AC1ED0B0AD0ED370A4C
:102DE000C1ED0C0AD0ED380AC1ED0D0AD0ED390A5B
:102DF000C1ED0E0A418821F00801418006480121F9
:102E000080ED130A80F8441000207047F469002018
:102E100000008046D840002028410020014890F85A
:102E20004C007047A06900200248002180F84C1037
:102E300001657047A069002000B52DED088BF0EE0C
:102E4000428A30EE602AB0EE438A30EEC03AB0EEED
:102E5000629AB5EEC02A95B0F1EE10FAD8BFB0EE86
:102E6000432A12EE100A7C498842BFBF4FF0FF3060
:102E700015B0BDEC088B00BD13EE100AC00F14BFD7
:102E8000FFEE002AF7EE002ACDED002A22EE802A7E
:102E900022EE810A22EEA11A22EEA03A8DED012A3D
:102EA000B5EEC01A8DED023AF1EE10FA8DED030A7F
:102EB0008DED041A3FBF6FF0010015B0BDEC088B1B
:102EC00000BDDFED661AF0EE000AB5EEC00A68EE4E
:102ED000209AF1EE10FA18D260EE403A8DED088A91
:102EE000C3EEA92AF1EE403A83EE884ACDED092AD5
:102EF0008DED0A4A8DED0B2A8DED0C0A32EE220A79
:102F00008DED010ACDED031A23E0B4EEE80AF1EEEF
:102F100010FAD8BFCDED0A1A1BDD60EE002AF1EEE3
:102F2000481ACDED081A48EEE82AC2EEA91A70EE4A
:102F3000682AC2EE883ACDED091ACDED0A3A8DED38
:102F40000B2A8DED0C0A32EE210A8DED010ACDED32
:102F5000038A9DED030A69EE20BA21EE01AA20EE54
:102F600000BA9DED010A39EE081A73EE40AA2BEE65
:102F7000880A20EE2A0A09EE0A0A08EE0B0AC0EEB9
:102F8000010AF5EEC00AF1EE10FA3FBF6FF0020041
:102F900015B0BDEC088B00BDB1EEE00AB4EE400AFE
:102FA000F1EE10FA1CBFB0EE600A01F07FFAB4EE49
:102FB000E80AF1EE10FA4CDCDDED031AF4EEC01A6B
:102FC000F1EE10FADDBF9DED041AB4EEC01AF1EE79
:102FD00010FA6FF00300C2BF15B0BDEC088B00BD46
:102FE00060EE000A70EE611A30EE411A002070EEB9
:102FF000CB2A5422694682EEAB2A70EECA2AC2EE70
:10300000A90A8DED0D2A3AEEC22ACDED0F0A72EE15
:10301000600A81EE892ACDED0E0AC1EE081A8DED07
:10302000102A80EE801ACDED121A8DED111A8DED59
:10303000070A8DED059A8DED068A149001208DF812
:103040004C000748FDF7D3F815B00020BDEC088B05
:1030500000BDB0EE680AAFE7BD378635000000005E
:10306000A0690020534B93F84CC0BCF1000F08BF7F
:10307000704710B4D3F850C000EE10CA0CF1010430
:10308000B8EE400ADFED4C0A1C6593ED0A2A60EEAB
:10309000201AF6EE002AB4EEE12AF1EE10FA10DD65
:1030A00093ED0B0AD3ED0C0A93ED081A00EEA10A7A
:1030B00021EE222A61EEA12A41EE210A02EE220A25
:1030C00063E093ED103ADFF8ECC072EE030A9CED7A
:1030D000010AF4EEE10AF1EE10FA10DD71EEC21A07
:1030E000D3ED030A93ED051A00EEA10A21EE222A80
:1030F00061EEA12A41EE210A02EE220A45E093ED9B
:10310000114ADFF8B0C09FED2D1A70EE843A9CEDA5
:103110000D0ADCED010AF4EEE13A30EE800ADCED56
:10312000070AF1EE10FA06DD71EEC21A71EEC31A4B
:1031300000EEA10A29E0D3ED124A73EEA43AF4EEB0
:10314000E13AF1EE10FA18DD31EEC21AD3ED0E1AA3
:1031500031EE431A30EE210AD3ED061A31EE441A4D
:1031600021EEA22A00EE810A61EE012A41EEC10A97
:10317000B1EE611A02EE620A07E093ED020AD3EDA6
:10318000040A4FF0000C83F84CC0D3ED001A21EE76
:10319000800A80ED000A93ED000A20EE200A81EDFE
:1031A000000A93ED000A20EE010A82ED000A10BC2D
:1031B00070470000A06900206F12033A0000000071
:1031C00030EEC02AF4EEC00AF1EE10FA02DDC2EED3
:1031D000011A09E024BF9FED0C1AF0EE411A03D248
:1031E000B1EE411AC2EE011A084800210165012121
:1031F00080F84C1080ED051AC0ED101A80ED030A1E
:10320000C0ED040A7047000000000000A069002023
:10321000134991F84C20002A08BF70470A6D00EE50
:10322000102A531CDFED0F0AB8EE400A0B6520EEA2
:10323000200AD1ED100AF4EEC00AF1EE10FADDBF5B
:10324000D1ED040A002281F84C20D1ED030AC4BF5D
:1032500091ED051A41EE000AC0ED000A704700002A
:10326000A06900206F12033A30EEC04A9FED2A2A6F
:10327000F4EEC00AB1EE403AF1EE10FA0ADDB5EE16
:10328000C00AF1EE10FA1DDAF5EEC00AF1EE10FAFE
:1032900008D920E026D2F5EEC00AF1EE611AF1EE6F
:1032A00010FA08DBC4EE212AB0EE421AF0EE603AC2
:1032B000B0EE413A1EE0B5EEC00AB1EE411AF1EEB1
:1032C00010FA08D884EE013AF0EE421AF0EE403AD5
:1032D000F0EE612A0EE0C3EE212AF0EE423A80EED3
:1032E000813A07E0F0EE421AF0EE612AB0EE611A80
:1032F000B0EE613A094800210165012180F84C10C7
:10330000C0ED122A80ED103AC0ED073A00F10C0131
:1033100081EC040A7047000000000000A069002052
:103320001E4A92F84C30002B08BF7047136D00EE18
:10333000103A03F1010CDFED1A0AB8EE400AC2F8A8
:1033400050C060EE200A92ED120AB4EEE00AF1EEEF
:1033500010FAC4BF92ED031A92ED060A0EDC92ED4C
:10336000101A30EE011AB4EEE01AF1EE10FA08DD90
:1033700070EEC00A92ED071A92ED050A00EE201ACF
:1033800006E092ED041A9FED070A002382F84C3004
:1033900080ED001A81ED000A70470000A06900204E
:1033A0006F12033A00000000FEF712BBFEF710BBDD
:1033B00010B5194C2146A06D0988C0F30722C0F34F
:1033C0000740312A24D13138062821D2DFE800F025
:1033D00003200507090B012006E0022004E003207A
:1033E00002E0042000E0052021F400712180FEF7B6
:1033F0007BFC0A49087804281CBF052810BD94F8F6
:103400004400042804BFB1EE040A81ED050A10BD92
:1034100041F40070208010BDF46900205842002063
:1034200070B5194E4420308101F066FE0020FDF792
:10343000E7FB308900240028C8BF144D20DD00BF01
:1034400005EB0410417A11F0040F15D0017A01291F
:1034500004D0022907D004290AD00DE04168008871
:10346000FDF7A2FD08E041680088FDF775FD03E067
:1034700041680088FDF784FD3089641C8442DFDBED
:10348000BDE87040FFF794BF58420020DC7C000884
:1034900030B50C460146002020608025084601F02A
:1034A000EFFF00281CBF417A11F0010F2ED0017AE6
:1034B000012906D0022909D003290FD0042918D0E8
:1034C00024E040684F25007820701FE041684B25BC
:1034D0000978217040684078607017E0416847259E
:1034E0000978217041684978617040688078A070DF
:1034F0000CE0416843250978217041684978617082
:1035000041688978A1704068C078E070284630BD75
:103510000C4810B590F8F200EE281CBF4FF0FF30B9
:1035200010BDFEF7E1FD01281CBF0120FFF78EFB57
:1035300001F0E2FD0020FDF71DFBFFF739FF002041
:1035400010BD0000F469002070B50E46802501F022
:1035500097FF04001CBF607A10F0020F26D0207A7B
:10356000012823D16068317802788A4217D001702F
:10357000607A10F0040F12D02088FDF757FD10F08C
:10358000FF0F05D010F4807F18BFFDF7C5FA0DE0DE
:10359000602510F4807F18BFFDF7BEFA00E06025BB
:1035A000E06818B18047002818BF802500203060EF
:1035B000284670BD2DE9F0470E468046802501F073
:1035C0005FFF04460027A8F50050703809D0002C92
:1035D0001CBF607A10F0020F79D0207A022878D0D0
:1035E0009BE05048DFF840914FF00108808D30801B
:1035F00089F80080002C1CBF607A10F0020F26D0E2
:10360000207A022823D16068318802888A4217D044
:103610000180607A10F0040F12D02088FDF7D8FCEA
:1036200010F0FF0F05D010F4807F18BFFDF774FA7B
:103630000DE0602510F4807F18BFFDF76DFA00E003
:103640006025E06818B18047002818BF80253760E2
:1036500042F2710001F014FF0400344890ED100AAA
:10366000BCEEC00A10EE100A81B231801CBF607A35
:1036700010F0020F16D0207A022813D16068028859
:103680008A4219D00180607A10F0040F14D020888B
:10369000FDF79EFC10F0FF0F07D010F4807F18BFDD
:1036A000FDF73AFA602D0ED107E0602510F4807F17
:1036B00018BFFDF731FA00E06025E06818B18047D7
:1036C000002818BF8025376089F8018026E024E0B3
:1036D000FFE76068318802888A4217D00180607AEB
:1036E00010F0040F12D02088FDF772FC10F0FF0FCD
:1036F00005D010F4807F18BFFDF70EFA0DE06025AD
:1037000010F4807F18BFFDF707FA00E06025E0683D
:1037100018B18047002818BF802537602846BDE8CB
:10372000F0870000704000205C420020F469002017
:103730002DE9F0410E46802501F0A2FE04004FF075
:1037400000071CBF607A10F0020F2AD0207A0428EC
:1037500027D16068316802688A4217D00160607AB8
:1037600010F0040F12D02088FDF749FC10F0FF0F75
:1037700005D010F4807F18BFFDF7CEF911E0602569
:1037800010F4807F18BFFDF7C7F900E06025E068FE
:1037900038B12188054C61808047002818BF8025FA
:1037A000678037602846BDE8F0810000584200205D
:1037B0009FED040A80ED040A80ED050A80ED060AFB
:1037C000704700000000000080ED000A20EEA10A12
:1037D00080ED010A81EE210A80ED020A80ED032AC4
:1037E0007047B0EE403A90ED000A90ED014AF6EED7
:1037F000004A60EE033A20EE044A90ED050A31EEED
:10380000631A30EE030A60EE244A90ED040A04EED7
:10381000240A80ED040AB4EEC10AF1EE10FAC4BF26
:1038200080ED041AB0EE410A0ADC70EEE30AB4EE51
:10383000E00AF1EE10FAD8BFB0EE600A80ED040A9B
:1038400030EE230A30EE220AB4EEC20AF1EE10FA8C
:10385000C8BFB0EE420A04DCB4EEE10AF1EE10FAA1
:1038600002D380ED053A7047B0EE610AF9E7000037
:103870002DE9F84F4FF000075FEA02098A46054636
:1038800000970CBF02200120FEF74CF90446B0F16E
:10389000FF3F04BF0420BDE8F88F5A4E2020B9F145
:1038A000000F77803470706005D10121204600F050
:1038B000EFFB002841D1544FA4F16A00A7FB00217F
:1038C000C908A1EB810100EB810000F175044FF004
:1038D000006808EB8420FEF7DFF9022809D00428ED
:1038E0000ED0B9F1010F0CBF03280A2026D0BDE885
:1038F000F88F4FF00401204600F0CAFB002876D173
:10390000A4F16A00A7FB0021C908A1EB810100EB2B
:10391000810000F1750408EB8420FEF7BDF903284F
:1039200005D00428ECD0B9F1010F07D03BE0042109
:10393000204600F0ADFB0028E2D058E03478D6F8FD
:103940000430202000EB84224FF00061895802F1FE
:1039500000625268C94371EA020107D071880830D9
:10396000491C08337180B0F5806FEBD34FF000092C
:10397000C6F80430A4F16A00A7FB0021C908A1EB36
:10398000810100EB810000F1750408EB8420FEF753
:1039900083F9032807D1708809F101097C30708010
:1039A000B9F10C0FE6D35146284600F043FCF0B9BC
:1039B000708803282ABF841E0124652C0DD2AC42D6
:1039C00008D0A0B2694600F023F898B1072818BFC4
:1039D000BDE8F88F641C652CF1D30221307800F02B
:1039E00057FB002804BF4FF48070BDE8F88F022019
:1039F000BDE8F88FA0B2009900F01CFC0028E9D0C7
:103A0000BDE8F88F80420020ABAAAAAAFDF7E0BF6C
:103A10002DE9F34F824683B00020FEF783F8074676
:103A2000B0F1FF3F02BF032005B0BDE8F08F4FF0BB
:103A3000006B0BEB87284046FEF72EF94FF000098C
:103A400041E000BF08EB060005684468E94371EAFD
:103A5000040024D0A8B2504521D18DF80040210A9D
:103A60008DF80110210C8DF802108DF80400210E44
:103A7000000A8DF803108DF805000621684601F054
:103A8000D3FA6FF30F052A0C42EA094189B2814249
:103A900005D10498046005B00020BDE8F08F083E11
:103AA000202ECFD20E49A7F16A00A1FB0021C90840
:103AB000A1EB810100EB810000F175070BEB87287A
:103AC0004046FEF7E9F802281ABF032804284FF4FD
:103AD0007E76B7D005B04FF00700BDE8F08F00004C
:103AE000ABAAAAAA09484088A0F500510A3901D01A
:103AF00000207047064901200870064801680068E8
:103B0000002908BF401C04490860F1E75842002022
:103B10000000002008000020100000202DE9F05FC8
:103B20000024DFF8AC802746264625460121404682
:103B300003F0FDFC0121404603F0FCFC0028F9D015
:103B40000121404603F0F3FCDFF88890DFF888B0ED
:103B500009F1040A0121404603F0ECFC012810D1D0
:103B60000121404603F0E3FCD9F8000017FA80F782
:103B7000DAF8000016FA80F6DBF8000015FA80F596
:103B8000641C402CE6DB97FBF4F096FBF4F102B2E8
:103B900095FBF4F3114809B21BB202804180838087
:103BA0000020A2F25152B2F57A7F88BF4FF0FF3069
:103BB000A1F25151B1F57A7F88BF4FF0FF30A3F2E7
:103BC0005151B1F57A7F88BF4FF0FF30BDE8F09FCB
:103BD000002C01403C2401403C2801401C000020F6
:103BE0002DE9F04F99B0B8B1012803BF05204FF07F
:103BF000090A814604201CBF4FF00A0A814681B1A0
:103C0000012914D0022901D0032916D00A2704263D
:103C10004FF00108354615E0082082464FF00609AE
:103C2000EDE74FF004080A27464645460AE00A2712
:103C300004264FF00208354604E0082703264FF01B
:103C400001080225129004204D4C0D9002212046BF
:103C500001F077F9204600F0B3FF206840F40040FF
:103C60002060206810F4004FFBD14649086810F02E
:103C7000020FFBD00121424801F08DF94FF0010BFA
:103C800000248DF820B08DF821B00D988DF81840E3
:103C9000401E8DF81900AAF101008DF81A00A9F153
:103CA00001008DF81C408DF81B008DF81DB0129896
:103CB0008DF81E40ADF822008DF81FB006A93048DF
:103CC00001F088F804208DF800B08DF845008DF8DB
:103CD00001B08DF844008DF802B0109410A8CDE921
:103CE0000104781E8DF81100701E8DF81200681EF8
:103CF0008DF810000394ADF814806946204800F058
:103D000079FFADF85440ADF85AB01C2000F040FFE8
:103D10000A20ADF85600ADF84C40ADF850408DF893
:103D20005CB0ADF85840ADF84E40ADF8524013A825
:103D300000F0D6FF0021124801F00CF901211048D3
:103D400001F008F902210E4801F004F90E4801685B
:103D500011F0030F07D0016841F0200101600168F4
:103D600011F0030FF7D10221054801F0EFF800220E
:103D70001146142002F060FA19B00020BDE8F08F5F
:103D800000640040046400400C640040084801687E
:103D900011F0806F04BF016811F0006F05D1006859
:103DA00010F0805F04BF01207047002070470000C2
:103DB000086400403D490A6812F0806F18BF002176
:103DC00064D0090101F1804303F5C043D3F88015A5
:103DD00001F00101C3F880150288002141EA425137
:103DE000C3F88015026800214FF0080CBCEB126F7D
:103DF00028BF110E2FD24FF00C0CBCEB126F28BF56
:103E0000092128D24FF0100CBCEB126F28BF0A21F9
:103E100021D24FF0140CBCEB126F28BF0B211AD229
:103E20004FF0180CBCEB126F28BF0C2113D24FF0CF
:103E3000200CBCEB126F28BF0D210CD24FF0300CC0
:103E4000BCEB126F28BF0E2105D24FF0400CBCEB2B
:103E5000126F28BF0F2141F0A002C3F88425144A35
:103E600000F10400515CC91C890807D050F8042BEC
:103E7000C3F88825491E11F0FF01F7D1D3F880055A
:103E800040F00100C3F88005002070470A6812F076
:103E9000006F18BF012194D1096811F0805F14BF31
:103EA00002214FF0FF308CD17047000008640040C1
:103EB0004C76000810B5FFF77DFF002818BF10BD35
:103EC000012001F00BF9002010BD000010B54FF0EB
:103ED000E0206FF07F414161002181610521016196
:103EE0002F4C0421204600F0FAFB0421204600F06C
:103EF00024FC204600F07DFB0A2001F0EFF820466C
:103F000000F01EFB0121204600F087FC0421204622
:103F100000F013FC0421204600F0F8FB214C204661
:103F200000F067FB0A2001F0D9F8204600F008FBFA
:103F3000201501F0CBF81C4C204603F0F3FA0121C8
:103F4000204603F06DFB194840F2DC510160001F70
:103F50000160001F016000221146204603F0E8F9CD
:103F600000220121204603F0E3F90022022120462D
:103F700003F0DEF900221146204603F065F8002226
:103F80000121204603F060F800220221204603F0C0
:103F90005BF82046BDE81040012103F038BB00006B
:103FA0000024014000280140002C01403C2C01402D
:103FB00010B5174C00221146204603F0B9F9002233
:103FC0000121204603F0B4F900220221204603F02B
:103FD000AFF900221146204603F036F800220121F5
:103FE000204603F031F800220221204603F02CF88D
:103FF0000121204603F09BFA0121204603F09AFAA2
:104000000028F9D02046BDE81040012103F08FBA06
:10401000002C01401B4910B540F2DC500860091F1C
:104020000860091F0860184C0121204603F07FFA40
:104030000121204603F07EFA0028F9D00121204614
:1040400003F075FA01220021204603F071F90122E4
:104050001146204603F06CF901220221204603F0AC
:1040600067F904220021204602F0EEFF042201211C
:10407000204602F0E9FF20460422BDE8104002215C
:1040800002F0E2BF3C2C0140002C0140FDF7A0BC37
:104090002DE9F0414FF0006202EB802C1C4A1F4DCD
:1040A00002EB80281B4AC4B202EB80271A4A01297E
:1040B00002EB802606D002290DD0032913D0042953
:1040C00019D022E04FF0AA3213466046FDF7B6FC45
:1040D000C0B92C7019E04FF0AA3213464046FDF7E4
:1040E000ADFC78B9F5E74FF0AA3213463846FDF734
:1040F000A5FC38B909E04FF0AA3213463046FDF767
:104100009DFC10B10220BDE8F0810020BDE8F081E7
:104110000800000810000008180000088042002075
:104120003948016841F4700101603848016841F084
:104130000101016000214160C162016821F4102188
:1041400021F0A85101604FF47F018160016821F4E2
:10415000802101600268002142F4803202604FF643
:10416000FF730268491C12F4003F01D19942F8D153
:10417000016811F4003F45D025490A6822F0070282
:1041800042F003020A604168416041684160416851
:1041900041F480614160416821F4701121F00051C7
:1041A0004160416841F4541141F000514160C16ADD
:1041B000184A1140C162C16A41F0190141F48431C9
:1041C000C162016841F080610160016811F0006F17
:1041D000FBD0016841F080710160016811F0007F3F
:1041E000FBD0416821F003014160416841F00201C8
:1041F0004160416811F0080FFBD000214FF00060D2
:1042000002F076B8FEE7000088ED00E00010024002
:104210000020024000F0FEBF4FF080416FF001002F
:10422000086102480168491C0160704708000020CD
:10423000FDF7CEBB2DE9F041244E054600277088DE
:1042400082B00C46B0F53A7F22BF112002B0BDE823
:10425000F0810120FDF766FCB0F1FF3F02BF0320B3
:1042600002B0BDE8F0814FF0006101EB802854EA14
:10427000050014D08DF80040200A8DF80100200CB4
:104280008DF80200200E8DF803008DF80450280AE6
:104290008DF805000621684600F0C6FE07467068E6
:1042A00045EA074240442346FDF7C8FB00281EBFED
:1042B000022002B0BDE8F08170680830706070883C
:1042C000401C708002B00020BDE8F08180420020D8
:1042D00010EE100AC0F3C7517F391729A8BF7047E5
:1042E000DFED140A002970EE200A0DDAF5EEC00A9F
:1042F000F1EE10FA1ADD0028A8BF002016DAB0F19E
:10430000004F18BF0C4811E00C4ACA40104208BFC9
:104310007047F5EEC00AF1EE10FA07DD002804DA66
:104320004FF4000323FA01F10844904300EE100A11
:1043300070470000CAF24971000080BFFFFF7F0094
:1043400010EE100A10B50023A0F50001B1F1FE4FE8
:1043500067D200BF00F500216FF07E0202EBE15C46
:10436000C1F302524FF07E5101EB025100EE901A60
:10437000A0EBCC5003EB0C0100EE100A51EA020056
:1043800036D030EE601A70EE200A9FED3D2A3E488E
:1043900081EE200A9FED3B1A60EE000A00EE821AC1
:1043A00060EE201A61EE810A784401EE101A00EBEB
:1043B00082009FED362AB8EEC11AD0ED001A3448BB
:1043C00041EE021A784401EE101A00EB8200B8EEBA
:1043D000C11A90ED002ADFED2F2A01EE222AB0EE5D
:1043E000001A72EE200A40EE010A31EEA00A10BD5A
:1043F000F7EE000A9FED291A30EE600ADFED260A7B
:1044000000EE201ADFED260A60EE001A40EE010AE7
:104410009FED241A00EE201A61EE810A30EE200A88
:1044200010BD4FF07F41B1EB400F03D2BDE810400B
:1044300000F064B8B0F1FF4F08BF10BDB5EEC00A80
:10444000F1EE10FA06D2012000F074F8BDE8104039
:1044500000F058B8B5EEC00AF1EE10FA07D102200C
:1044600000F068F800F040F8B1EE400A10BDDFED52
:104470000E0A6FF0160320EE200A10EE100A69E70C
:1044800066F1CC3EAAAA2A3FCC4C00000070313F16
:10449000D04C0000F4FD053821ED423E0A1180BEEB
:1044A000C1ABAA3EFFFFFFBE0000004B10B52DEDD3
:1044B000028BB1EEC08A18EE100A20F00040C0F165
:1044C000FF40C00F0AD010EE100A20F00040C0F1EB
:1044D000FF40C00F04BF012000F02CF8B0EE480AE6
:1044E000BDEC028B10BD0000DFED030AB7EE001A31
:1044F00081EE200A704700000000000030EE000A44
:1045000070470000DFED020A80EEA00A704700004D
:104510000000000002E008C8121F08C1002AFAD1FA
:1045200070477047002001E001C1121F002AFBD133
:104530007047000001490860704700008C4200206D
:10454000816841F008018160816811F0080FFBD19A
:10455000816841F004018160816811F0040FFBD192
:1045600070471205A2F5801201290CD0022918BF4C
:104570007047816B21F44011816302F44011826B1A
:10458000114381637047C16A21F47001C16202F472
:104590007001C26A1143C16270470029816814BF6B
:1045A00041F4006121F400618160704710B5A0F50D
:1045B0009230B0F180400DD0B0F5806F18BF10BDC3
:1045C00040F20A3002F01BFABDE8104040F20A3017
:1045D00002F006BA40F2093002F011FABDE81040CC
:1045E00040F2093002F0FCB9816841F480718160C9
:1045F0007047816811F0010F18BF7047816841F062
:10460000010181607047002A01F001020DD01AB14A
:10461000826842F48012826011F0020F1ABF816832
:1046200041F400417047816070471AB1826822F4FA
:104630008012826011F0020F1CBF816821F40041DA
:10464000F1D1704701290AD0022918BF704781684B
:1046500021F4E04181608168114381607047816885
:1046600021F460218160816811438160704710B43A
:10467000D0F838C0846BCCF3015CA1EB0C01C91CF1
:1046800001EB81014FF01F0C0CFA01FC24EA0C0C29
:1046900002FA01F141EA0C01816307210A2A0CD2D6
:1046A000D0F810C002EB420291402CEA010103FA5B
:1046B00002F21143016110BC7047122A24BF10BCE2
:1046C0007047D0F80CC00A3A02EB420291402CEA43
:1046D000010103FA02F21143C16010BC704711F0EE
:1046E000010F03D0426822F04002426011F0020F35
:1046F00003D0426822F02002426011F0040F08BF8C
:104700007047416821F080014160704711F0010F4E
:1047100003D0426842F04002426011F0020F03D021
:10472000426842F02002426011F0040F08BF704757
:10473000416841F0800141607047026822EA01014E
:104740000160704704490A6822F470220A600A680E
:1047500010430860704700000424014010B44FF07B
:104760001F0C06290CD2446B01EB81010CFA01FCF1
:1047700024EA0C0C02FA01F141EA0C0141631EE04B
:104780000C290DD2046B891F01EB81010CFA01FC8D
:1047900024EA0C0C02FA01F141EA0C0101630EE07B
:1047A00010290CD2C46A0C3901EB81010CFA01FC0E
:1047B00024EA0C0C02FA01F141EA0C01C162072162
:1047C0000A2A0CD2D0F810C002EB420291402CEA27
:1047D000010103FA02F21143016110BC7047122A71
:1047E00024BF10BC7047D0F80CC00A3A02EB42025A
:1047F00091402CEA010103FA02F21143C16010BC9E
:104800007047D0F8802022F44052C0F88020D0F8C1
:1048100080201143C0F88010704711F0010F03D0C1
:10482000826842F48002826011F0020F08BF704774
:10483000816841F4001181607047002A01F48072A0
:1048400014D01AB1426842F48072426011F4806F51
:1048500003D0426842F48062426011F0020F1ABF36
:10486000816841F002017047816070471AB1426867
:1048700022F48072426011F4806F03D0426822F407
:104880008062426011F0020F1CBF816821F00201BA
:10489000EAD170479FED1D1AF5EE000A40EE010ABD
:1048A000BDEEE00AF5EEC00A10EE100AF1EE10FAC5
:1048B00038BF401E00EE100AB8EEC00A30EEC00A43
:1048C000DFED130A20EE200ABCEEC01A11EE100A2A
:1048D00080B2B0F5007F24BF002030EE600A00EE09
:1048E000900A0C49F7EE001AF8EE600A01EB80001E
:1048F00090ED011A70EE600A90ED000A71EEE01A78
:1049000021EE800A00EE810A7047000083F9223E02
:104910000000004474810008DFED1C0AB5EEC00AF7
:1049200060EE200ABDEEE01A11EE100AF1EE10FA68
:1049300038BF401E00EE100AB8EEC00A30EEC00AC2
:10494000DFED130A20EE200ABCEEC01A11EE100AA9
:1049500080B2B0F5007F24BF002030EE600A00EE88
:10496000900A0C49F7EE001AF8EE600A01EB80009D
:1049700090ED011A70EE600A90ED000A71EEE01AF7
:1049800021EE800A00EE810A7047000083F9223E82
:10499000000000447481000808B1022902D29FED92
:1049A0003B0A7047B5EEC00AF1EE10FAACBFB7EEA5
:1049B000002ABFEE002A10B4D0ED000AB0EEC00A03
:1049C000F4EEC00AF1EE10FAA8BFD0ED010A4DDAFC
:1049D00000EBC102DFED2E2A12ED021AB4EEC01A6E
:1049E000F1EE10FA12D852ED040A52ED031A30EE2D
:1049F000410A31EE603A52ED010A70EEE11A33EEEF
:104A0000223AC1EE832A42EE800A2FE00022891E5C
:104A10008BB21446D118490800EBC10CDCED000A3A
:104A2000F4EEC00AF1EE10FA24D89CED021AB4EEAE
:104A3000C01AF1EE10FA1DDB4FEA010400EBC400CE
:104A4000D0ED020AD0ED001A90ED031A30EEE13AF3
:104A5000D0ED010A30EE610A31EE601A73EE221ACF
:104A600020EE010A80EE211A71EE200A10BC20EE21
:104A7000820A7047F4EEC00AF1EE10FAC7BF491E71
:104A80008BB2491C8AB29A42C4D9D7E70000000011
:104A90005F70893008B1022902D29FED3B0A70474E
:104AA000B5EEC00AF1EE10FAACBFB7EE002ABFEEC9
:104AB000002A10B4D0ED010AB0EEC00AF4EEC00A2C
:104AC000F1EE10FAA8BFD0ED000A4DDA00EBC102FA
:104AD000DFED2E2A12ED011AB4EEC01AF1EE10FA33
:104AE00012D852ED030A52ED041A30EE410A31EEAB
:104AF000603A52ED020A70EEE11A33EE223AC1EE4C
:104B0000832A42EE800A2FE00022891E8BB21446CF
:104B1000D118490800EBC10CDCED010AF4EEC00A23
:104B2000F1EE10FA24D89CED031AB4EEC01AF1EE9F
:104B300010FA1DDB4FEA010400EBC400D0ED030ABC
:104B4000D0ED011A90ED021A30EEE13AD0ED000AF4
:104B500030EE610A31EE601A73EE221A20EE010A7D
:104B600080EE211A71EE200A10BC20EE820A7047F6
:104B7000F4EEC00AF1EE10FAC7BF491E8BB2491C11
:104B80008AB29A42C4D9D7E7000000005F7089302A
:104B90000A490A6842F001020A600A6822F47C525B
:104BA0000A600A684FF47C5303EA0020104308604F
:104BB000086820F0010008607047000000660040AF
:104BC00010B5A0F18041B1F5C84109D040F21A40BA
:104BD00001F015FFBDE8104040F21A4001F000BF9F
:104BE00040F2194001F00BFFBDE8104040F21940BF
:104BF00001F0F6BE10B44FF6FF7200296DD00368C5
:104C000023F002030360036843F001030360436879
:104C100013F0010F03D1002A18BF521EF7D14268CA
:104C200012F0010F59D00A7C4FF0E06303EA0262F0
:104C30004B7C4FF4702C0CEA03431A438B7C4FF4EB
:104C4000E00C0CEA03531A438B8A5B1EC3F309037F
:104C50001A43C262D1E902321A434B78012B0CBFCE
:104C600022F0040242F004028B78012B18BF22F0DC
:104C7000100316D0097801290CBF43F0010123F07D
:104C800001010162016821F0010101604FF6FF712D
:104C9000426812F0010F1BD0002918BF491EF7D13E
:104CA0001BE042F010034A68BAB192F800C04FF41A
:104CB000FE440CF0200C4CEA030392F804C0527935
:104CC0000CF07F0C04EA02224CEA02028262D1E775
:104CD00000291EBF012010BC7047002010BC704787
:104CE00030B4817A364B012202FA01F11A6842F09F
:104CF00001021A60DFF8CCC0DCF800208A43CCF84F
:104D00000020C489304AE4B914688C431460C48814
:104D100045882404C5EA04044589ED0005F1804571
:104D200005F5C045C5F84046848805882404C5EAD1
:104D300004044589ED0005F1804505F5C045C5F839
:104D40004446C489012C1CD114680C4314600288A9
:104D500044881204C4EA02024489E40004F1804455
:104D600004F5C044C4F840268288C4881204C4EA0A
:104D700002024489E40004F1804404F5C044C4F80C
:104D800044268489114A002C14680CBF8C430C43C0
:104D9000146004890E4A002C14680CBF8C430C4329
:104DA0001460007C012804D1DCF800000843CCF832
:104DB0000000186820F00100186030BC7047000047
:104DC000006600401C6600400C660040046600401F
:104DD000146600402DE9F00103684FF6FF724FF0B2
:104DE000000C23F002030360036843F00103036037
:104DF000436813F0010F03D1002A18BF521EF7D1E8
:104E0000426812F0010F08BF4FF0000C6CD0036A2B
:104E10004FF0F85713F0010F4FF470264FF4E055A0
:104E20004FF4E0044FF4C0425FD04B7807EA0363CD
:104E30000F7843EA87778B7806EA034605EA8313FF
:104E4000334347EA0305CB7804EA035402EA83229A
:104E50004B8922435B1E2A43C3F309031A43C261F1
:104E60000A79012A02680CBF42F0800222F0800217
:104E700002604A79012A02680CBF42F0400222F027
:104E8000400202608A79012A02680CBF42F02002C7
:104E900022F020020260CA79012A02680CBF22F0C7
:104EA000100242F0100202600A7A012A02680CBF66
:104EB00042F0080222F008020260497A01290168E2
:104EC0000CBF41F0040121F004010160016821F0F0
:104ED000010101604FF6FF71426812F0010F28D006
:104EE000002918BF491EF7D127E043F001030362F0
:104EF00091F8018007EA086791F8008047EA88780E
:104F00008F7806EA074605EA8715354348EA05061D
:104F1000CD7804EA055402EA852222434C893243C3
:104F2000641EC4F309042243C26123F00102026239
:104F300096E7002918BF4FF0010C6046BDE8F0016C
:104F40007047426922EA0101416170474269114399
:104F50004161704769B1012914D0022918BF704717
:104F6000816841F400018160816811F4000FFBD178
:104F70007047816841F080018160816811F0800F85
:104F8000FBD17047816841F400418160816811F470
:104F9000004FFBD1704700234FF6FF72012904D068
:104FA000022917D0042925D039E0016821F0020137
:104FB0000160016841F001010160416811F0010FD9
:104FC00003D1002A18BF521EF7D1406810F0010F1C
:104FD00027D023E0016821F003010160416811F04E
:104FE000030F1CBF002A521EF8D1406810F0030FB7
:104FF00017D113E0016821F001010160016841F05F
:1050000002010160416811F0020F03D1002A18BFAC
:10501000521EF7D1406810F0020F02D0012318464B
:1050200070470023FBE7000002460020002908BF6C
:10503000704711F0010FA2F101020F4B03D012F8DB
:10504000010F33F81000490808BF704792F801C0FB
:10505000491E8CEA102C33F81CC08CEA002012F890
:1050600002CF80B28CEA102C33F81CC08CEA0020EE
:1050700080B2EBD170470000788A00080246002019
:10508000002908BF704711F0010FA2F101020E4B79
:1050900003D012F8010F53F82000490808BF7047E9
:1050A00092F801C0491E8CEA106C53F82CC08CEAAF
:1050B000002012F802CF8CEA106C53F82CC08CEA56
:1050C0000020EDD170470000788C000802494A6842
:1050D0001043486070470000002004E081B044F2B3
:1050E00030314843009001E000BF0846411E009166
:1050F000FAD201B0704700004B4800210180418086
:10510000818081719FED490A012280ED020A80EDC4
:10511000030A80ED040A80ED050A80ED060A80EDA1
:10512000070A80ED080A80ED090A80ED0A0A80ED81
:105130000B0A80ED0C0A80ED0D0A80ED0E0A80ED61
:105140000F0A80ED100A80F84420022280F84520E2
:1051500080F84620A0F84810A0F84A10C164016504
:1051600041658165C1650166F3EE0E0A4166C0EDD9
:105170001E0A9FED2F1AF7EE000A80ED1F1ADFEDD1
:105180002D1AC0ED200AC0ED211ADFED2B1A642282
:10519000C0ED231A80ED240A80ED271A9FED271A0F
:1051A000DFED2B1A80ED281A9FED251A42F21C53D1
:1051B00080ED291AB3EE021A80ED2A1A9FED211A0A
:1051C00080ED2B1A9FED201A80ED2C1A9FED1F1AEF
:1051D00080ED2D1AA0F8B820C0ED2F0AA0F8C0204D
:1051E000C0ED311AA0F8C82080ED331A4FF47A725E
:1051F000A0F8D02080F8D210A0F8D430A0F8D620A3
:10520000F2EE040AC0ED360AC0ED370AC0ED380AE6
:10521000C0ED391A80ED3A0A8822A0F8F02080F813
:10522000F21080F8F3107047F469002000000000CD
:10523000000020438BE1EA360000804620BCBE4CD3
:10524000000020420000AA42000016430AD7233C77
:10525000CDCCCC3DA0F18042B2F5013202D104297F
:1052600000D9FEE701EB810100EB8100816841F08C
:10527000010181607047A0F18042B2F5013202D194
:10528000042900D9FEE701EB810100EB8100816870
:1052900041F0200181607047A0F18042B2F50132F7
:1052A00002D1042900D9FEE701EB810200EB820262
:1052B000936823F00103936000239360D36013612C
:1052C0005361426889000F2303FA01F111434160E1
:1052D0007047A0F18043B3F5013302D1042900D90E
:1052E000FEE701EB810100EB810013680361916827
:1052F0004161118A89B2C1608168D2F80CC05368DB
:1053000021F47C5143EA0C03D2F814C04CEA0101A9
:1053100019438160117E012981680CBF41F0400171
:1053200021F040018160517E012981680CBF41F06C
:10533000800121F080018160917E002981680CBF8D
:1053400021F0100141F01001816070472DE9F05FFC
:10535000868881460789B0F804C0D0F800B0C388B9
:10536000A3EB0C04A4B2634503D2A7EB0C001844D2
:1053700084B2944288BF1446002C0DBF00208A4698
:105380004FF00008BDE8F09FB81B85B2A54288BF6A
:105390002546012D04BF1BF806000AF8080006D0B8
:1053A0000BEB06010AEB08002A46FAF720FF08EB90
:1053B00005001FFA80F8601B84B2701986B2BE42E5
:1053C00028BF0026002CDFD1A9F804604046BDE8C4
:1053D000F09F8288C1880389881A80B2914228BFD1
:1053E0007047981A084480B270470160002181809C
:1053F000C180028170472DE9F05FC7888146058929
:10540000D0F800B08088B9F806C0ACEB00039BB2BE
:10541000844502D2281A604483B2E81A401E84B23E
:10542000944288BF1446002C0DBF00208A464FF0DE
:105430000008BDE8F09FE81B86B2A64288BF26465A
:10544000012E04BF1AF808000BF8070006D00AEB7B
:1054500008010BEB07003246FAF7C9FE08EB06001D
:105460001FFA80F8A01B84B2B81987B2AF4228BFD8
:105470000027002CDFD1A9F806704046BDE8F09F58
:1054800084460E4830B400890023401E0C4C82B282
:105490009818410804EB0110058865453CBF481C7D
:1054A00083B204BF30BC704703D9002918BF491E1E
:1054B0008AB29342ECD930BC002070475842002099
:1054C000DC7C000810EE101A01700A0A42700A0C07
:1054D0008270090EC1700420704700000149C86045
:1054E00070470000002002400248016941F080013D
:1054F000016170470020024070B505464FF48010EE
:1055000000F018F8002818BF70BD094C206940F061
:10551000020020616561206940F0400020614FF485
:10552000801000F007F8216921F00201216170BDAF
:1055300000200240104902460020CB6813F0010F02
:1055400018BF012010D1CB6813F0100F18BF042032
:105550000AD1CB6813F0040F18BF022004D1CB6826
:1055600013F0080F18BF0320521E012818BF704700
:10557000002AE1D10520704700200240054801695A
:1055800011F0800F08BF7047034941600349416033
:10559000704700000020024023016745AB89EFCD32
:1055A00070B506460D464FF48010FFF7C3FF002884
:1055B00018BF70BD074C206940F0010020613560C4
:1055C0004FF48010FFF7B6FF216921F0010121613E
:1055D00070BD00000020024010B4144ADFF848C03B
:1055E00045F2555463461460D4685B1E04F0010410
:1055F00002D0002CF8D100E054B95160D168BCF160
:10560000010C01F0020102D00029F7D103E011B131
:1056100010BC00207047C0F30B0090604AF6AA202F
:10562000106010BC01207047FFFF0F0000300040E9
:1056300002494CF6CC400860704700000030004042
:1056400070B5414C05462DED028BA0789FED3F8A49
:1056500038B1A5800020A070B0EE480ABDEC028BE6
:1056600070BD00200146801A71EB0300A2BFB0EEAE
:10567000480ABDEC028B70BD10461946FAF74DFE84
:1056800001EE100A9FED320AA088C1EE000A281A26
:10569000B0F5005FC8BFA0F5804004DC10F5005FE6
:1056A000B8BF00F58040DFED2B1A2C4981EEA01A1F
:1056B00000EE900ADFED281AF8EEE00A60EEA10A8B
:1056C00061EE200A10EE900A8842C8BFF0EE400A50
:1056D00004DC10EE900A2249884232D82148217811
:1056E00000EB8102491CC2ED000A01F01F0121708C
:1056F000617820293CBF491C617011F0FF0216D06F
:10570000001F12F0010F04D090ED010A001D30EED1
:10571000088A51080BD000BF90ED010AD0ED020AB3
:10572000083030EE080A491E30EE808AF4D100EECF
:10573000102AA580F8EE400A88EE200ABDEC028B04
:1057400070BDDFED090AC9E7380000200000000045
:1057500000247449DB0FC9400000803800247449DC
:10576000002474C9F4680020002474C941617047A2
:10577000016170472DE9F00301F00F0C11F0100FDB
:1057800004D0042A18BF4CEA020C3FD000220F2696
:105790005FF0010404FA02F51D4012D0D0F8008039
:1057A000970006FA07F90CFA07F728EA090847EA0A
:1057B0000807282908BF456102D0482908BF0561AC
:1057C0000760521C92B2082AE4D3082204FA02F5B8
:1057D0001D4014D047684FEA8208A8F1200806FA55
:1057E00008F90CFA08F827EA090748EA0707282900
:1057F00008BF456102D0482908BF05614760521CB7
:1058000092B2102AE2D3BDE8F0037047C26B4CF0AD
:10581000030C1A43C263B9E741F4803282618161AB
:10582000826181698069704770B4194A10F0004F35
:1058300014BFD3695368C0F303444FF4401C3CEADF
:1058400000054FEA505C4FEA0C1C86B206FA0CFCCD
:1058500016D010F4801F08BF23EA0C0303D00325E1
:1058600005FA04F4A34343F0E063002918BF4CEAAF
:10587000030310F0004F14BFD361536070BC704736
:10588000546823F0E06324F0E0645460EDE7000026
:10589000000001400248018802480068FFF77CB818
:1058A0005E420020784200208CB072B64FF4C06097
:1058B00001F088F840F2026001F084F840F20360E1
:1058C00001F080F840F2046001F07CF840F20B60D7
:1058D00001F078F84FF4E06001F074F840F20960EC
:1058E00001F070F840F20A6001F06CF8012000F05D
:1058F0008BFF4FF4A06001F065F840F2197001F0E1
:1059000061F840F20C6001F05DF840F20F7001F0B8
:1059100059F8DFF82C844FF480514046FFF726FFFA
:105920004FF48053022210214046FFF723FF042149
:105930004046FFF71BFF0423022210214046FFF7D9
:1059400019FF012304220021FE4F3846FFF712FF02
:105950000223042200213846FFF70CFF04231A46D5
:1059600000213846FFF706FF0823042200213846AD
:10597000FFF700FF0123042200214046FFF7FAFE53
:105980000223042200214046FFF7F4FEBB15032248
:1059900018213846FFF7EEFE7B1503221821384602
:1059A000FFF7E8FE3B15032218213846FFF7E2FE19
:1059B0007B14032218214046FFF7DCFE4FF480439E
:1059C000032218214046FFF7D5FE4FF4004303227F
:1059D00018214046FFF7CEFEFB140322482138462B
:1059E000FFF7C8FEBB14032218213846FFF7C2FE9A
:1059F00010213846FFF7BCFE102303221946384613
:105A0000FFF7B8FEA023032218213846FFF7B2FEA5
:105A10004023032204213846FFF7ACFE0121CA4887
:105A2000FFF702FF40214046FFF7A2FE402303227A
:105A300010214046FFF79EFE2823032218214046EE
:105A4000FFF798FE1023032204214046FFF792FE41
:105A5000BE4801F090FA684601F0D4FA00244FF4F1
:105A60008270CDE90004F81402908010CDE903049F
:105A70004FF0030A1026CDE905A66946B34801F0A8
:105A8000AAFAB24801F06DFAB14D284601F073FA56
:105A9000684601F0B7FA4FF48270CDE90004E814CB
:105AA00002908010CDE90304CDE905A66946284699
:105AB00001F091FA284601F054FADFF8989200219B
:105AC0004846FFF7E9FBA4480090A44801258DF85B
:105AD000184002908DF81950280201908000039020
