:020000040800F2
:10000000886F0020650100084D300008C31B000800
:100010004930000825040008053D000800000000E4
:10002000000000000000000000000000613B00082C
:10003000C10B000800000000193500087D01000810
:100040007F0100087F0100087F0100087F01000890
:100050007F0100087F0100087F0100087F01000880
:100060007F0100087F0100087F0100087F01000870
:100070007F0100087F0100087F0100087F01000860
:100080007F0100087F010008110400087F010008BB
:10009000290400087F0100087F0100087F01000893
:1000A0007F0100087F0100087F0100087F01000830
:1000B000ED3C00087F0100087F0100087F01000877
:1000C0007F0100087F0100087F0100087F01000810
:1000D0007F0100087F0100087F0100087F01000800
:1000E0007F0100087F0100087F0100087F010008F0
:1000F0007F0100087F0100087F0100080000000068
:100100007F010008000000007F0100087F01000857
:100110007F0100087F0100087F0100087F010008BF
:100120007F0100087F0100087F0100087F010008AF
:100130007F01000800000000000000007F010008AF
:100140007F0100087F0100087F0100087F0100088F
:10015000DFF80CD000F01CF900480047955000086B
:10016000886F00200648804706480047FEE7FEE704
:10017000FEE7FEE7FEE7FEE7FEE7FEE7FEE7FEE757
:10018000F53B0008510100082DE9F0410024061B51
:10019000254671F1000605DA01240027D0EB07009F
:1001A00067EB0101161E73F1000605DA0027D2EB9A
:1001B0000702012567EB030300F072F886460E463E
:1001C00017469C46AC4204D00025D0EB050E65EBEB
:1001D000010624B10020D2EB000760EB030C70464F
:1001E00031463A466346BDE8F08140EA01039B0789
:1001F00003D009E008C9121F08C0042AFAD203E09C
:1002000011F8013B00F8013B521EF9D27047D2B2FF
:1002100001E000F8012B491EFBD270470022F6E7EF
:1002200010B513460A4604461946FFF7F0FF20466C
:1002300010BDF0B4CA17CB0F50405140C61841F161
:1002400000054FEAC372314628004FF0960303D0F1
:10025000B623F0BC00F06DB830460021F9E710B5C8
:1002600000F0004420F00040C20DC0F3160040F43E
:1002700000007F2A02DA0020014610BD0021962AE4
:1002800003DCC2F19602D04002E0963A00F039F861
:10029000002CF2D00023D0EB030063EB010110BD72
:1002A0002DE9F05F0546002092469B4688460646AB
:1002B000814640241BE0284641464746224600F03E
:1002C00079F853465A46C01A914110D31146184640
:1002D000224600F016F82D1A67EB01084F46224619
:1002E0000120002100F00DF817EB00094E41201EFF
:1002F000A4F10104DFDC484631462A464346BDE806
:10030000F09F202A04DB203A00FA02F10020704717
:100310009140C2F1200320FA03F319439040704743
:100320000029A8BF7047401C490008BF20F0010009
:10033000704710B4B0FA80FC00FA0CF050EA0104E7
:1003400004BF10BC704749B1CCF1200421FA04F479
:1003500011FA0CF118BF012121430843A3EB0C0152
:10036000CB1D4FEA00614FEA102042BF002010BCB5
:10037000704700EBC35010440029A4BF10BC704765
:10038000401C490008BF20F0010010BC704700006D
:10039000064C074D06E0E06840F0010394E80700D2
:1003A00098471034AC42F6D3FFF7D6FE4C7B0008DA
:1003B0006C7B0008202A04DB203A21FA02F000219D
:1003C000704721FA02F3D040C2F120029140084365
:1003D0001946704730B58C1810F8012B12F00F0336
:1003E00001D110F8013B120906D110F8012B03E0EE
:1003F00010F8015B01F8015B5B1EF9D101E001F827
:10040000013B521EFBD1A142E6D3002030BD0000CB
:100410000348016821F00401016001F0C1BC000043
:100420000024014001F03CBA00F0C2BA134910B5F3
:100430004FF48852A1F1240004F05FFC4FF488527D
:100440000F49104804F059FC4FF488620E490F48D8
:1004500004F053FC0E480F4990F844200A70B0F89D
:1004600048204A80B0F84A208A8090F8461090F8D8
:100470004500BDE8104003F01DB9000024400020F5
:10048000245100200C40002024620020184000204D
:10049000B86600201C0000202DE9F047A2B04422DD
:1004A0006946EF4804F0DAFBEE4EEF4CEF4F4FF0A9
:1004B00001094FF0080A4FF00008002800F04681BB
:1004C00000986D46C0F3C310C001C0110F2880F022
:1004D0003D81DFE800F0B208B3B26BB278B285B20A
:1004E00092B22AFD1000009810F07F4F08BF02F072
:1004F0003FFA00F02BB9A088002800F0278100986F
:1005000010F07F0F04BF0098B9EB106F40F01E8110
:100510009DF80400002800F0198138680028386828
:1005200008BF401CE06000F011B90098217800F08D
:100530007F00884204BF0098BAEB106F40F006813C
:100540009DF80400BDF805204FF0800305F1080177
:100550008DF80430402806D02F2808D02B281DD035
:1005600023281FD008E0104602F0A8FD02E0104644
:1005700002F0FEFD8DF80400207800F5B0610098CF
:1005800061F317000090284603F07EF9002854D04C
:1005900044222946B64804F0B6FBD7E0104602F0E4
:1005A0001DFEE7E7104602F04FFEE3E700982178D2
:1005B00000F07F00884240D1DDED020A9DED010A86
:1005C00002F0CAF8C2E00098217800F07F0088426B
:1005D00033D1DDED020A9DED010A02F017F9B5E015
:1005E0000098217800F07F00884226D1DDED020AD4
:1005F0009DED010A02F0D0F8A8E00098217800F003
:100600007F00884219D19DED010A02F095F820780B
:1006100000F59061009861F31700009006208DF8B6
:10062000030096ED050A8DED010A7088ADF808000B
:10063000284603F029F90028AAD187E000982178FC
:1006400000F07F00884241D18A489DED010A80ED8B
:100650003D0A9DED020A80ED160A9DED030A80ED2C
:100660003C0ABDF8102000EE102AF8EE400A9FED7B
:10067000820A80EE801A80ED3A1ABDF8122000EE50
:10068000902A01F5C872F8EE600A80EE801AF2EE48
:10069000080A80ED3B1A009962F3170100910921C5
:1006A0008DF8031090ED3E0A8DED010A90ED3F0AA2
:1006B00028468DED020A96ED070A20EE200A8DED00
:1006C000030A03F0E1F800287FF462AF3EE0FFE7A1
:1006D0000098217800F07F00884237D101F05AFB62
:1006E000012804D003F0CEF9012002F01DF9009892
:1006F0000421B1EB106F1ED10198B0F1DD3F03D0A2
:10070000B0F1FF3F0DD011E000F024FA002812BF35
:10071000CDF804804FF0DD3001904FF0DD300190D6
:1007200004E0284603F030F900F0E2F9284603F02F
:10073000ABF858B12CE7281D00F098F98DF803802C
:10074000284603F0A1F800287FF422AF484804F0BF
:10075000C8FA50B103F084F838B9442269464448D5
:1007600004F07CFA684603F08FF8444804F0B9FAC4
:1007700050B103F075F838B9442269463F4804F097
:100780006DFA684603F080F8A18800291CBFE06874
:10079000002833D03A68A2EB000088422ED3C4F878
:1007A0000C8001F0F7FA012804D003F06BF9012066
:1007B00002F0BAF8708840F004007080308810F0C1
:1007C000800F1BD1EFF3108572B640F080003080AF
:1007D0002178CDF8488001F180021199ADF84800E8
:1007E00062F3170111918DF847A0CDF84C80442297
:1007F00011A9224804F087FA85F310886088002840
:1008000004BF22B0BDE8F087A1683A68511A81425E
:100810003CBF22B0BDE8F08738680028386808BFC0
:10082000401CA060207811AC00F5E061119861F3E4
:100830001700119005208DF848008DF8479020464C
:1008400003F022F8002804BF22B0BDE8F08744225C
:100850002146074804F057FA22B0BDE8F0870000AF
:1008600000400020B86600201C000020040000208A
:100870000C400020E03E00200000C842184000204C
:1008800010B516482DED028B92B00078B0EE608A5C
:1008900000F5F06100986C4661F31700009001A824
:1008A00004F0A6FA04F10800B0EE480A04F0A0FA39
:1008B00008208DF80300204602F0E6FF002802BF62
:1008C00012B0BDEC028B10BD44222146044804F056
:1008D0001AFA12B0BDEC028B10BD00001C00002003
:1008E0000C4000200B4800B5007891B000F5E061A5
:1008F0000098442261F31700009001208DF8030056
:1009000000208DF804006946034804F0FCF911B09A
:1009100000BD00001C0000201840002030B591B040
:10092000054601F037FA012804D003F0ABF80120A6
:1009300001F0FAFF1349488840F004004880088815
:1009400028421CBF11B030BDEFF3108472B62843AB
:1009500008800D49097801F18002009962F31701BE
:10096000009108218DF80310002101910291ADF84A
:10097000040044226946054804F0C5F984F3108850
:1009800011B030BDB86600201C00002018400020C7
:10099000054A016812780A4462F3170101600146B2
:1009A0004422024804F0AFB91C0000201840002087
:1009B0002DE9F041294C92B06946206810F0030FF0
:1009C00004BF12B0BDE8F081254F386807F1040874
:1009D000420D009862F317000090D8F80000214DF6
:1009E00000F00F0008F10406285C8DF80300C01C1D
:1009F000800801F1040106D03268401E41F8042B42
:100A000010F0FF00F8D1206840F020002060442260
:100A10006946154804F077F92068694610F0030F1D
:100A200004BF12B0BDE8F0813868420D009862F34F
:100A300017000090D8F8000001F1040100F00F0049
:100A4000285C8DF80300C01C8008DCD03268401E92
:100A500041F8042B10F0FF00F8D1D4E70C640040FB
:100A6000B065004028680008004000202DE9F047EC
:100A7000DFF87880D8F8006006F10801B1F5204F62
:100A800031D8044604F010FA0227002506EB850051
:100A900000F1006909F520493C2004F0B5F954F84B
:100AA0002510484604F012FA10B104F0B3F915E02D
:100AB0006D1CBD42EAD304F0ADF90020002F0DD922
:100AC00006EB800101F1006101F5204154F820207E
:100AD00009688A4202D1401CB842F1D3D8F800001C
:100AE0000830C8F800000020BDE8F087EC3F002087
:100AF0004FF0E0214FF0FF30C1F88001C1F88002D3
:100B0000C1F88401C1F88402C1F88801C1F88802E3
:100B1000C1F88C01C1F88C02C1F89001C1F89002B3
:100B2000C1F89401C1F89402C1F89801C1F8980283
:100B3000C1F89C01C1F89C0204494FF48050086040
:100B40000348016881F3088840680047140C01409D
:100B5000004001082DE9F04104F0A6F9144D154FAD
:100B6000DFF854802C464AF6AA263C2004F04CF9C3
:100B7000204604F057F910B104F04CF90AE03E6049
:100B800004F580644445F0D304F044F92868B0F1DA
:100B9000FF3F03D04FF0FF30BDE8F0813E602D1DD8
:100BA0004545F3D3054900200860BDE8F081000009
:100BB00000A000080030004000400108EC3F002089
:100BC00000F06EBE2DE9F04165244FF0006600BFD5
:100BD00006EB842000F0CEFF042805D00B347B2CDC
:100BE000F6D30520BDE8F081651C04F10B07BD427A
:100BF00009D200BF06EB852000F0BCFF0428F0D12D
:100C00006D1CBD42F6D30B21204600F053FE002898
:100C10001CBF0120BDE8F08100F04AFE0020BDE8C5
:100C2000F08100002DE9F041054665244FF0006693
:100C3000B5B11020002206EB8423012103EB020C46
:100C4000DCF80070DCF804C0FF4377EA0C0C18BF36
:100C50000F20491C08328029F0DD0F280ED105E055
:100C60000121204600F026FE28B907E00121204698
:100C700000F020FE10B10120BDE8F081641C7B2C47
:100C8000D6D300F015FE0221652002F06BFF00288C
:100C90001CBF0220BDE8F08100210448418065218D
:100CA0000170202141600020BDE8F081F03F00206C
:100CB0002DE9F05F0027DFF85CC3834601203E4644
:100CC0003C46B946BA468CF8010065235FEAC06528
:100CD00005EB832100200A18CCF808200A18D2F866
:100CE000008052680830B0F5806FF4D35B1C7B2B1A
:100CF000EED3C849002048704FF0650805EB882006
:100D000000F038FF022814BF01287F1C01D00328FF
:100D10000AD008F10108B8F17B0FEFD33800BE4FBD
:100D2000DFF8F88248D105E0002E08BFC1464446EE
:100D3000761CEEE7002E08BF65241FD0A9F15000F5
:100D4000A8FB002109096FF00A02514300EB4100A2
:100D500007EB802000F00EFF04282DD1A4F16400E1
:100D6000A8FB002109096FF00A02514300EB410082
:100D70000121653002F0F6FE90B91DE00121204608
:100D800000F098FD10B10120BDE8F09F641C7B2CA1
:100D9000F4D300F08DFD0221652002F0E3FE10B1D6
:100DA0000220BDE8F09F9B490020652248800A7020
:100DB00020224A60BDE8F09F5FF0650605EB8620C3
:100DC00000F0D8FE012825D1652E18BF702E12D054
:100DD000A6F15000A8FB00214FEA11116FF00A02A2
:100DE00001FB02F100EB410007EB802000F0C2FEA6
:100DF000032821D00EE0A6F16400A8FB0021090918
:100E00006FF00A02514300EB410007EB802000F035
:100E1000B1FE88B1761C7B2ED0D300BF4FF0000905
:100E20005FF0650605EB862000F0A4FE022813D0D3
:100E3000032808BF34463CE07648002101220670B2
:100E4000084602F097FAB0F5807F16BF0C204FF0ED
:100E5000010ABDE8F09FE1E7652E18BF702E12D0A1
:100E6000A6F15000A8FB00214FEA11116FF00A0211
:100E700001FB02F100EB410007EB802000F07AFE5D
:100E800003280FD015E0A6F16400A8FB0021090992
:100E90006FF00A02514300EB410007EB802000F0A5
:100EA00069FE30B9B9F1000F4CD15A484FF0010931
:100EB0000670761C7B2EB5D3B9F1000F12D1A4F1C8
:100EC0006400A8FB002109096FF00A02514300EBFE
:100ED0004100504965300870022102F043FE0028AD
:100EE0007FF45EAF4B4E002070802020706096F83B
:100EF0000040014601EB84234FF00062D25803F119
:100F000000635B686FEA020C7CEA030207D0728818
:100F10000830521C08317280B1F5806FEAD37060DE
:100F200016E05038A8FB002109096FF00A0251436E
:100F300000EB410000F1650405EB842000F01AFE8F
:100F4000032802D00A20BDE8F09F70887C307080B2
:100F50002046652C18BF702CE3D13078A0F16400D6
:100F6000A8FB00214FEA11116FF00A0201FB02F108
:100F700000EB410000F1650605EB8622A64236D063
:100F8000BBF1000F14D010230021012002EB010C53
:100F9000DCF80070DCF804C0FF4377EA0C0C18BFE3
:100FA0000F23401C08318028F0DD0F2B0FD107E004
:100FB0000121304600F07EFC00287FF4E4AE06E01C
:100FC0000121304600F076FC00287FF4DCAEA6F16B
:100FD0006400A8FB002109096FF00A02514300EBED
:100FE000410000F1650605EB8622A642C8D100F05B
:100FF0005FFCBAF1000F08D10021084602F084FE20
:10100000002818BF11287FF4CBAE4FF00000BDE8D8
:10101000F09F0000F03F002000940108A38B2EBA3F
:1010200038B50C46002819BFA0F57F41B1F1FF018A
:10103000082038BD00210091694602F06FFA0028AF
:1010400004BF0099218038BD38B50C46002819BF6F
:10105000A0F57F41B1F1FF01082038BD00210091CA
:10106000694602F05BFA002804BF0099216038BD90
:1010700038B50C46002819BFA0F57F41B1F1FF013A
:10108000082038BD00210091694602F047FA002887
:1010900004BF0099217038BD70B5002819BFA0F5B4
:1010A0007F42B2F1FF02082070BD04460D4602F0F7
:1010B0002BFE112818BF70BD002229462046BDE82E
:1010C000704002F057B970B5002819BFA0F57F42F3
:1010D000B2F1FF02082070BD04460D4602F014FE76
:1010E000112818BF70BD002229462046BDE8704077
:1010F00002F040B970B5002819BFA0F57F42B2F1E7
:10110000FF02082070BD04460D4602F0FDFD1128C7
:1011100018BF70BD002229462046BDE8704002F08D
:1011200029B900002DE9F041174F40243C60174DCC
:101130004FF40341284605F00DF80121284605F03B
:1011400036F80028F9D0284605F001F8DFF840808D
:1011500060F30F06C8F800403C604FF40441284695
:1011600004F0F8FF0121284605F021F80028F9D005
:10117000284604F0ECFFC8F80040F1B261F31F20EC
:101180008008BDE8F0810000140C0140003C0040E4
:10119000100C0140704700002DE9F05FDFF89493D8
:1011A000DFEDE30A2DED028BB9F84C4001EE104A59
:1011B000B8EE411ADFEDE04AE201E04E21EE241ADA
:1011C000B6EE005AD6ED032AA6F1080821EE001A61
:1011D000C1EE201A01EE102AB8EE411A80EE814AC3
:1011E000F8EEE20AB0EE001A20EE808AD9ED140A79
:1011F00020EE813ADFEDD20A304600F5405590ED01
:10120000011AD6F808C0D5F82C1E61EE203ADFEDA1
:10121000CD0A436990ED042A002700EB8300BCF15E
:10122000090F80F07D81DFE80CF005091E4D6598FF
:10123000AEC6F800C6ED010A01208AE023EE080AD6
:1012400020EE050A01F02AF918EE100AB0F1804FDD
:10125000C0F26681D5F82C0EC8F80000B068401CBA
:10126000B06000F05DB931EE211AB0EE608AB0EEE8
:10127000430A86ED011A01F011F9B3497068814201
:1012800000F34E81D5F82C0ED8F80010401AB0F5B6
:10129000005FC8BFA0F5804004DC10F5005FB8BF58
:1012A00000F58040002808DAD5F8200C002812BF8D
:1012B000C5F8207C0120C5F8200C86ED018AB068B5
:1012C000401C6DE031EE211AF0EE608AB0EE430A68
:1012D00086ED011A01F0E2F89C4970688842C0F27C
:1012E0001F81C6ED018AF7607761C6ED048AB06898
:1012F000401C55E0B3EBC41F28D2B4EEC28AF1EE15
:1013000010FA17DB32EE040A86ED040A00EE104AEA
:10131000B8EE400A20EE240A83EE801ABDEEC10A20
:1013200010EE102A891ACA0F01EB823181617069AF
:10133000401C706196ED010A30EE211AB0EE430AAE
:1013400086ED011A01F0AAF800F0EAB8581E7061A3
:101350000520C6E9020700F0E3B885EE002AB8EEE2
:10136000E20AB4EEC02AF1EE10FA3CBF0620C6E94C
:10137000020750D331EE211AB0EE430A86ED011A6E
:1013800001F08CF8CCE085EE002AB8EEE20AB4EE6B
:10139000C02AF1EE10FA05D2F760C6ED040A072064
:1013A000B060BDE031EE611AB0EE430A86ED011A7D
:1013B00001F074F8B4E0002BB8BF0820F0DBB4EE05
:1013C000C82AF1EE10FA1CD232EE040A86ED040AA5
:1013D00000EE104AB8EE400A20EE240A83EE801A8E
:1013E000BDEEC10A10EE102A891ACA0F01EB823134
:1013F0008269114401EBD171491081617069401E0D
:10140000706196ED010A30EE611AB0EE430A86ED86
:10141000011A01F043F883E0FFE700200146BCB168
:10142000002306F114089C464FEA841AD8F804B049
:101430001BEB000041EBEB7158F808BF1BEB0303FB
:101440004CEBEB7CBAF1010AF0D1C01841EB0C0176
:101450000023FEF799FEC5F8240CB0690027C001EF
:10146000C11700EB91404FEAA03A781E00EBC41878
:10147000C4F10009002004FB07FC0146024680235A
:101480002CF07E4B0BEB020CBCF1400C48BF0CEB7C
:10149000C41C03D4E04538BF0CEBC91C06EB8C0C14
:1014A00002F10102DCF818C01CEB000041EBEC710A
:1014B0005B1EE7D18022FEF767FE0AEB07017F295A
:1014C000C8BF8039D5F8242C06EB8101801A01F5BC
:1014D000405107F10107C1F8280C802FCADB1548DD
:1014E00000210180418821F0040141800120C5F8DC
:1014F000180C642000F034FA15484FF404710446C7
:1015000003F02CFAC5F8280E4FF405722146114855
:1015100000F044FA012001F007FAB068401CB06006
:10152000F068401CF060BDEC028BBDE8F09F00004D
:101530000AD72341B8660020DB0FC94038000020DD
:101540000000804600000000DB0FC941DB0FC940EE
:10155000503C00200090010810B5084800244FF4CA
:101560000071C0F8184CC0F8204CC0F8244C00F6AC
:101570002840FEF753FE0248846010BD383000203A
:101580003800002010B510484FF405724FF4C831F0
:101590000446FEF72AFE4FF40471204603F0DEF9FC
:1015A0000A49D1F8282E824208BF10BD0020C1F898
:1015B000180CC1F81C0CC1F8240CBDE810404FF405
:1015C00000710348FEF72ABE503C0020383000204E
:1015D000603C00202DE9F041DFF8908210252DEDD0
:1015E000048BC8F80050A24E4FF40341304604F07B
:1015F000B1FD0121304604F0DAFD0028F9D0304673
:1016000004F0A5FD9B4F60F30F043D60C8F8005047
:101610004FF40441304604F09DFD0121304604F0B2
:10162000C6FD0028F9D0304604F091FD60F31F4458
:101630003D60E1B261F31F2081088F48C0F82C1E85
:10164000D0F8202C22B143F6FF72511AC0F82C1E9C
:101650008A4FCA1107EB820202F54052D2F8283CA9
:10166000012202EBE1124FEAE27C02EB5C6C2CF00F
:101670007F0CA2EB0C0207EB820243F6284C52F8D7
:101680000C2021F07F0CA1EB0C0CD21A0CFB02F207
:1016900003EBE212891AD0F8242C8D1AB5F5804F8D
:1016A0000BDDC5F10101CA1701EB924189134942D3
:1016B0000029C4BF494205EB8135002D03DA00BF84
:1016C00015F58045FCD4C0F8305E397839B1C0F8E2
:1016D000345E481E3870BDEC048BBDE8F081D0F854
:1016E000341EC0F8345E6E1AB6F5005F0BDD644937
:1016F000881BC11700EB9140801340420028C4BFF3
:10170000404206EB803616F5005F04DA06F58046A7
:1017100016F5005FFADB5B4C94ED939A94ED948A96
:10172000DFED598A08EE289A84ED939AB0EE490AC3
:1017300002F03AFB00EE905AF8EEE00A70EEC00AB2
:1017400010EE900A9FED511AB0F18C4F07DD00BFEB
:1017500070EEC10A10EE900AB0F18C4FF8DC10EE7A
:10176000900AB0F1464F06D970EE810A10EE900A49
:10177000B0F1464FF8D894ED950A20EE280A00EE15
:10178000209A19EE100A84ED939AB0F18D4F0ADD7C
:1017900094ED930A30EE410A10EE100A84ED930A9C
:1017A000B0F18D4FF4DC94ED930AB5EEC00AF1EE82
:1017B00010FA08D230EE010A84ED930AB5EEC00AA1
:1017C000F1EE10FAF6D394ED960A20EE280A00EE18
:1017D000208A84ED948AB5EEC08AF1EE10FAD8BF63
:1017E000B1EE488A94ED970AB4EEC08AF1EE10FA91
:1017F0003CBF9FED270A84ED940A43F6386043F618
:101800003C61C059C959801907F5405241EBE67156
:10181000C2F83C1EC2F8380E1F48D4ED930A9FED63
:101820001D0AB0F84C0020EE801A00EE900AF8EE87
:10183000600A21EE201ADFED190A21EE201A84ED4C
:10184000911A94ED941A84ED901A21EE001A00EE8C
:10185000100AB8EE400A21EE000A20EE200A84EDBC
:10186000920ABDEC048BBDE8F08100001408014031
:1018700000300140100801403830002038000020BE
:1018800001E0FFFF383C002017B7513800008046C8
:1018900000000000DB0FC940B8660020000080385F
:1018A00072B60021014804F0A2FFFEE7002C0140BF
:1018B000704700002DE9F05F0F1E82464FF00005D3
:1018C0001FDDDFF844804AF6AA264FF0006B00BF08
:1018D0000AEB0509EFF3108472B6C8F8006003F054
:1018E000E3FA3C2003F090FA0BEB892003F09AFA1C
:1018F00003F090FAC8F8006084F310886D1CBD42B4
:10190000E6DB0020BDE8F09F003000402DE9FF47F6
:10191000054602AE4FF00808EFF3108772B603F0E9
:10192000C3FADFF838A000244AF6AA29CAF80090C2
:101930003C2003F069FA3159281903F0C7FA10B1B5
:1019400003F068FA06E0241D4445EFD303F062FA81
:1019500087F3108804B00020BDE8F0870030004015
:101960002DE9F0410546EFF3108472B60A4F4AF6AE
:10197000AA263E6003F098FA3C2003F045FA4FF0A7
:10198000006000EB852003F04DFA03F043FA3E605F
:1019900084F31088BDE8F081003000402DE9F04765
:1019A000164688460746EFF3108572B603F07CFAB8
:1019B0000024002E84BF4AF6AA29DFF834A011D9EA
:1019C000CAF800903C2003F01FFA58F804103819A8
:1019D00003F07CFA18B1BDE8F04703F01BBA241DF0
:1019E000B442EDD303F016FA85F31088BDE8F08712
:1019F000003000402DE9F05F5C4F82464FF00066FA
:101A000097F8008006EB882000F0B4F80446584DA3
:101A1000A8F16400A5FB002109096FF00A025143F7
:101A200000EB410000F1650906EB892000F0A2F807
:101A30000146A8F15000A5FB003212096FF00A031D
:101A40005A4300EB42006530BAF1000F77D0BAF18B
:101A5000010F07D0BAF1020F02BF00294846BDE8C6
:101A6000F09F7BE04FF0200A022C02D0012C34D0F2
:101A700074E07868B0F5806F75D3042908BF6524D9
:101A800020D100BF06EB842000F074F8042803D0B6
:101A90000B347B2CF6D361E0651C04F10B0B5D4528
:101AA00009D200BF06EB852000F064F8042855D168
:101AB0006D1C5D45F6D30B212046FFF7FBFEE8BB0E
:101AC000FFF7F6FE0321404602F04CF8B0BB0221BE
:101AD000484602F047F888BB35E07868B0F5806F7B
:101AE00041D3042908BF652420D100BF06EB842020
:101AF00000F040F8042803D00B347B2CF6D32DE003
:101B0000651C04F10B0B5D4509D200BF06EB852077
:101B100000F030F8042821D16D1C5D45F6D30B216F
:101B20002046FFF7C7FE48B9FFF7C2FE0321404633
:101B300002F018F810B90121484601E00EE007E074
:101B400002F010F850B94846C7F804A0BDE8F09F6D
:101B5000022C08D0012C08BFBDE8F09F4FF0FF30E9
:101B6000BDE8F09FFFE74046BDE8F09FF03F002052
:101B7000A38B2EBA70B4046845688368D0F80CC093
:101B8000016942698669C069F64376EA00001EBFB2
:101B9000042070BC7047C84370EA02001EBF0320D7
:101BA00070BC7047D84370EA0C001EBF022070BCA6
:101BB0007047E04370EA050014BF0120002070BCAC
:101BC0007047FFF76DBE0000244930B4B1F804C07F
:101BD0000A460CF0FF04002321481288032C1AD077
:101BE00004DC012C0AD0022C11D031E0F12C04BF0E
:101BF0000422427009D0FF2C21D029E002243ABBF4
:101C00008A79002A18BF447022D0837020E0012214
:101C1000427083701CE0EFF3108072B60022114D09
:101C200013461446C5F8382EC5F83C2E0E4AC2E9B4
:101C30001C340023C2E9183380F3108808E03AB15D
:101C400012F47040088003D1488820F004004880D6
:101C50000CF47F40888030BC00207047B8660020BC
:101C60009B3E002038300020E03E002070B52DED76
:101C7000048BEFF3108572B63D4C9FED3E9A9FEDBD
:101C80003B8A94ED141A94ED150ADFED3B8A3B4E26
:101C9000C1EE000A20EE080AB0EE492AF0EE681AFA
:101CA000B0EE491A06F1900001F010FB94ED141A01
:101CB00094ED160AB0EE492AF0EE681AC1EE000A59
:101CC00020EE080AB0EE491A06F1AC0001F0FEFA67
:101CD00094ED1A0AD4ED1D0AB4F8B40042F2107162
:101CE00070EE208A081A00EE100A9FED251AB0EE59
:101CF000492AF8EEC00AB7EE000A06F1C80000EE65
:101D0000810AD4ED190A80EEA81A60EE001AC8EE16
:101D1000210A60EE801A81EE810ADFED1A1AB0EE18
:101D2000491A01F0D3FAB4F8B600DFED170A00EE55
:101D3000100A9FED171AA6F14800B8EE400A20EEEF
:101D4000200A86ED390A9FED110AD4ED190A28EE12
:101D5000800A60EE810A80EE201A80ED0E1A85F36B
:101D60001088BDEC048B002070BD000063149D45FD
:101D7000B86600200000000017B75138E03E002090
:101D80000AD7233C6F128339CDCCCC3DDB0FC94041
:101D90000000804601480078704700009B3E00200C
:101DA0002DE9F041D24C2DED048B2078002804BFA2
:101DB000BDEC048BBDE8F081CE4E4FF00008B0784A
:101DC000401CC0B2B0700A2828BF86F80280CA48FA
:101DD000008800EE100AB8EE400ADFEDC80A20EED7
:101DE000200ADFEDC70A20EE200AD4ED010A9FED9C
:101DF000C51A00EE810A84ED010A9FEDC31A20EE98
:101E0000010ADFEDC20AC24820EE200A84ED020A70
:101E10000068C04980B2B1F90010401A00EE100A03
:101E2000F8EEC00A9FEDBC0ABC4860EE801AC4ED13
:101E3000031A0068BA4980B2B1F90010401A00EEE6
:101E4000900AB848F8EEE00A60EE800AC4ED040A91
:101E50000068B54980B2B1F90010401A02EE100ACC
:101E6000B8EEC22A22EE000A84ED050A30EEC00A5E
:101E7000C4ED061A20EE010A84ED070AFFF7AAFB5B
:101E8000AA4F97ED910A02F0B3FAF0EE400A97EDEF
:101E9000910AB0EE608A02F069FAD4ED061A94ED68
:101EA000072A21EE801A22EE000A02EE081A01EE3D
:101EB000C80A84ED081A84ED090ADFED9D1A94ED35
:101EC0000A2A21EE211ADFED9B0A20EE210A9A4D03
:101ED00002EE201A84ED0A1A94ED0B1A01EE200A84
:101EE00084ED0B0AB078002847D1A7F54060D0F800
:101EF000380E00EE100AB8EEC00A9FED901A20EEE0
:101F0000010A84ED3E0A97ED900ABDEEC00AF8EE94
:101F1000C00AB8EEC00A60EE810A20EE010AC4EDE4
:101F20003F0A00EE900AD4ED3D1AF8EEE00A60EEAA
:101F3000810A71EEE00AC6ED100A94ED161A31EE30
:101F4000400A86ED110A94ED3A1A61EE200A94EDEA
:101F50003B1A41EE000A94ED3C0AB2EE081A30EE4C
:101F6000800A86ED0F0AD5ED190A60EE810A80EE2F
:101F7000201A84ED151A03F001FEB07801286CD107
:101F800094F88D0010F0010F67D06D4943F6386367
:101F9000D4E918025B5801F54051C01AD1F83C1E33
:101FA00062EB0101FEF745F901EE100AD4ED1B0AC0
:101FB00094ED390A41EE000A95ED170ADFED611A3A
:101FC00060EE211A9FED602A20EE020AF4EEC00AAC
:101FD000F1EE10FAD4BFB0EE402AB0EE602AF4EE73
:101FE000C21AF1EE10FA38BFB0EE610A06D3B4EEB1
:101FF000E00AF1EE10FA38BFB0EE600A84ED160A7E
:1020000096ED090A21EE000A85ED080A95F86C00A4
:1020100000281CBFB1EE400A85ED080AB5F8B010E3
:10202000D9B1B5EEC00AF1EE10FAD8BFB1EE400A50
:10203000D5ED2B0AB4EEE00AF1EE10FAD8BFC4F8E1
:1020400088800ADD4148D4F88820E2B30068801A0D
:10205000884224BF0420FEF761FC94F88D0010F044
:10206000040F39D094ED021A94ED0A0A9FED389AC4
:10207000F1EE411A94ED158AF0EE610AB1EE400AD4
:10208000F0EE492AB0EE412A04F1900001F02BF95C
:1020900094ED021AF0EE408A94ED0B0AF1EE411A2B
:1020A000F0EE492AF0EE610A38EE400AB0EE412A1D
:1020B00004F1AC0001F017F9F0EE400A97ED911A27
:1020C00097ED920A00E00BE0DFED221A00EE211AF4
:1020D000B0EE680A00F0E2F9BDEC048BBDE8F081D7
:1020E00001680068002908BF401CC4F88800B4E7F4
:1020F000E03E0020983E00201600002063A6CC3C65
:10210000226CF83EEFC9033F3ACD133F3333733FA0
:102110003C24014010000020C00DDC3C4024014064
:10212000120000203C28014014000020383C002010
:10213000CDCC4C3ECDCC4C3FB8660020920A063840
:102140003800002000008046000080C60400002007
:102150000000000017B75138104810B5104990ED35
:102160002E0A81ED0A0A90ED2F0A81ED0B0A90EDFF
:10217000300A81ED0C0A90ED310A81ED0D0AFFF76E
:1021800075FD09489FED070A80ED200A9FED070ABB
:1021900080ED1F0ABDE8104003F08ABBB86600203E
:1021A000983E00200000C842E03E002000401C4550
:1021B0002DE9F041AA4CAB482DED088BE16802688F
:1021C000521AA94901F5405701F570569FEDA79A9B
:1021D000A74D0A2A7DD301680029016808BF491C60
:1021E000E16096ED901AD4ED090A21EE200AB5EED1
:1021F000C00AF1EE10FAD8BF21EE600AD5ED290A27
:102200009B49F4EEC00A4988F1EE10FA7EDD62695E
:102210004AB10068801AB5F8A820904224BF41F066
:102220001000688004E00168002970D1CCE0606192
:10223000DFF84082B8F8040000EE100AB8EE400A59
:10224000DFED8D8A60EE280A9FED8CBA80EE8B0A56
:102250009FED8B8AF7EE009A20EE081A38EEC00A3E
:10226000C1EE000A9FED87AADFED87AA80EE880AFB
:1022700001F0D2FDF0EE4A0A4AEE800A89EEA00A89
:10228000DFED82BA30EE6B0A85ED0D0AD5ED230A3B
:10229000B4EEE00AF1EE10FAC4BF0820FEF73EFBF0
:1022A000B8F8020000EE100AB8EE400A60EE280A04
:1022B00080EE8B0A20EE081A38EEC00AC1EE000A42
:1022C00080EE880A01F0A8FD0AEE80AA89EE8A0A4B
:1022D00000E047E030EE6B0A85ED0E0AD5ED240AEA
:1022E000B4EEE00AF1EE10FAC4BF1020FEF716FBC0
:1022F00095ED070AB5EEC00AF1EE10FAD8BFB1EEBF
:10230000400AD5ED180A95ED191A01E055E059E09B
:1023100000EEC10AB5EEC00AF1EE10FAD8BF84EDA6
:10232000079A0FDDD4ED070A30EE800A84ED070A24
:10233000D5ED200AF4EEC00AF1EE10FA3CBF4020C1
:10234000FEF7ECFAD7F8300E00EE100AB8EEC00A2D
:1023500085ED0F0AFEF7E6FE00EE100AB8EEC00AA1
:1023600085ED100A95F8CF10002904BFBDEC088B4D
:10237000BDE8F0814FF0E02220699369C01A44BFA4
:102380006FF07F431844DFF808C10023CCFB003016
:102390008311A3EBE070B0F5FA7F5DD39069F0EEA6
:1023A000490A20610D2947D2DFE801F046111418CF
:1023B0001C1F2225282B2E313C0021F010016980A2
:1023C000016809B1006832E70068401C2FE7D5EDCD
:1023D000070A31E02F48D0ED160A2DE02D48D0ED48
:1023E0003D0A29E0D4ED100A26E0D4ED110A23E0DD
:1023F000D5ED0A0A20E0D5ED0B0A1DE0D5ED0C0A5B
:102400001AE0D4ED020A17E0D5ED190A14E0D7F866
:10241000380EDFED210A00EE100AB8EEC00A60EEB9
:10242000200A09E096ED900ADFED1B0ABDEEC00A16
:10243000B8EEC00A60EE200A607848B100206070F3
:1024400094ED060ABDEC088BBDE8F041FEF718BA22
:1024500001206070C4ED060ABDEC088BBDE8F08178
:10246000983E0020040000203800002000000000FA
:10247000B8660020160000203333534000F07F453B
:1024800000401C460FCF5B3B2CBB84393393884301
:1024900089888888E03E0020920A063810B59B4C57
:1024A000F7EE082A2DED048BF0EE401AB0EE418ACB
:1024B00094ED012A82EE820A61EE801A20EE800AF3
:1024C000C4ED0C1A84ED0D0AB0EE480A01F090FF3D
:1024D000F0EE408AB0EE480A01F048FFD4ED0C1A45
:1024E000F0EE400A94ED0D1A21EEA08A08EEC18AA2
:1024F00061EEA88A40EE818A9FED859A28EE080A4F
:1025000008EEA80AF0EE400AB1EEE00AB4EE400A86
:10251000F1EE10FA1CBFB0EE600A01F033FDB5EE2B
:10252000C09AF1EE10FA98BF9FED7A9A10EE100A59
:10253000794988427EDB00BFB4EEC90AF1EE10FA99
:1025400005DDC9EE000A28EE208A68EEA08A9FED1C
:10255000731A9FED730A40F6B830DFED720AF5EE9C
:10256000C08AF1EE10FA46DBDFED6F1AB5EEC08AD5
:10257000F1EE10FA1EDB28EEA01AB4EEC18AF1EEDD
:1025800010FA7DD308EEE08A68EE000AFCEEE00A5D
:1025900010EE901A68EEA10A401A20EE800ABCEEF6
:1025A000C00A10EE103AC01AC0F34F02501881B2A0
:1025B000C81883E028EE811AB4EEC18AF1EE10FA51
:1025C00063D228EEA11A21EE001ABCEEC11A11EE58
:1025D000103AB1EE481A08EEE01AC01A21EE000ACD
:1025E000BCEEC00A10EE102A801AC0F34F01C818C2
:1025F00080B2024447E0DFED4D1AB5EEC08AF1EE3D
:1026000010FA20DB28EE811AB4EEC18AF1EE10FA3E
:1026100056D328EEA11A08EEA08A21EE001A28EE61
:10262000000ABCEEC11ABCEEC00A11EE101A10EE80
:10263000103A00E067E0401AC01AC0F34F02D01809
:1026400080B2014455E028EEA01AB4EEC18AF1EE42
:1026500010FA35D218EEA08A68EE000AFCEEE00A05
:1026600010EE902A68EEA10A801A20EE800ABCEED5
:10267000C00A10EE101A401AC0F34F00014400E0E7
:1026800003E089B20A4492B234E0B0EE481A18EE80
:10269000A08A08EEA01A21EE001A28EE000ABCEE6D
:1026A000C11ABCEEC00A11EE103A10EE102AC01A80
:1026B000801AC0F34F01881882B2D01880B219E096
:1026C000B1EE481A08EEE08A08EEE01A21EE001A90
:1026D00028EE000ABCEEC11ABCEEC00A11EE101AB8
:1026E00010EE103A401AC01AC0F34F0001448AB2EB
:1026F000D11889B20E4B1A601A1F1160111F0860A1
:10270000BDEC048B10BD9FED0B0A15E7E03E0020E9
:102710000C9E523F0C9E52BFFFE6DB2E3ACD13BFFC
:1027200000803B453ACD133F3ACD933F3ACD93BF1E
:102730003C2C0140FFE6DB2E054890F86C00002899
:1027400018BFB1EE400A034880ED140A704700003C
:10275000B8660020E03E00200D4880ED020A90F8A7
:102760006C10002918BFB1EE400A0A49012200236B
:10277000C1ED0A0A0A704831C1F88430438823F059
:102780000803438081ED140A81F84420704700005B
:10279000B8660020983E00201948D0ED1E1AB1EE10
:1027A000611AB4EEC01AF1EE10FA34BFB0EE402A4E
:1027B000B0EE412AF4EEC21AF1EE10FA38BFB0EED4
:1027C000610A06D3B4EEC01AF1EE10FA28BFB0EEDB
:1027D000410A80ED040A90F86C10002918BFB1EE90
:1027E000400A084A0121C2ED0D0A1170428822F008
:1027F00008024280044880ED120A80F844107047B5
:10280000B8660020983E0020E03E00202048DFED22
:10281000211A214990ED171A21EE211AD1ED091A3A
:1028200061EE211AB1EE611AB4EEC10AF1EE10FAAE
:10283000CCBFB0EE402AB0EE412AB4EEE12AF1EE70
:1028400010FAC8BFB0EE610A06DCB4EEC10AF1EEC0
:1028500010FAD8BFB0EE410A80ED030A90F86C2060
:10286000002A18BFB1EE400AC1ED0B0AC1ED0C0AF7
:1028700001220A7009490023C1F88430438823F0FB
:102880000803438081ED130A81F84420704700005B
:10289000B866002000008046983E0020E03E002000
:1028A000124890F86C1090ED020A002918BFB1EEA2
:1028B000400AD0ED2E0A0E49C1ED0A0AD0ED2F0ACA
:1028C000C1ED0B0AD0ED300AC1ED0C0AD0ED310A92
:1028D000C1ED0D0A418821F0080141800548012120
:1028E00080ED140A80F8441000207047B86600207C
:1028F000983E0020E03E002009480A4990ED2E0A4B
:1029000081ED0A0A90ED2F0A81ED0B0A90ED300A55
:1029100081ED0C0A90ED310A002081ED0D0A70471F
:10292000B8660020983E002000220F49012816D0EA
:10293000022805D0042818BF6FF009000FD0704797
:102940000A4BB3F800C0BCF1000F1CBF4FF0FF30C2
:1029500070479B79002B04BF6FF0010070474870EF
:102960008A700020704700009B3E0020B86600205F
:102970000249012081F8440070470000E03E002039
:10298000214890ED1E1AD0ED040AB1EE410AF4EE92
:10299000C00AF1EE10FACCBFF0EE601AF0EE401A69
:1029A000F4EEC11AF1EE10FAC8BFB0EE410A06DC2F
:1029B000F4EEC00AF1EE10FAC8BFB0EE600A80ED86
:1029C000040A90F86C10002918BFB1EE400AD0ED4F
:1029D0002E0A0E49C1ED0A0AD0ED2F0AC1ED0B0AED
:1029E000D0ED300AC1ED0C0AD0ED310AC1ED0D0A6F
:1029F000418821F0080141800548012180ED120A3B
:102A000080F8441000207047B8660020983E0020EF
:102A1000E03E00202548DFED260A264990ED170A02
:102A200020EE200AD1ED090A20EE201AD0ED030A8B
:102A3000B1EE410AF4EEC00AF1EE10FACCBFF0EEAE
:102A4000601AF0EE401AF4EEC11AF1EE10FAC8BFA7
:102A5000B0EE410A06DCF4EEC00AF1EE10FAC8BF8F
:102A6000B0EE600A80ED030A90F86C20002A18BFCF
:102A7000B1EE400AD0ED2E0AC1ED0A0AD0ED2F0AC0
:102A8000C1ED0B0AD0ED300AC1ED0C0AD0ED310AD0
:102A9000C1ED0D0A418821F008014180064801215D
:102AA00080ED130A80F8441000207047B8660020BB
:102AB00000008046983E0020E03E0020014890F84B
:102AC0004C007047646600200248002180F84C10DA
:102AD000016570476466002000B52DED088BF0EEAF
:102AE000428A30EE602AB0EE438A30EEC03AB0EE51
:102AF000629AB5EEC02A95B0F1EE10FAD8BFB0EEEA
:102B0000432A12EE100A7C498842BFBF4FF0FF30C3
:102B100015B0BDEC088B00BD13EE100AC00F14BF3A
:102B2000FFEE002AF7EE002ACDED002A22EE802AE1
:102B300022EE810A22EEA11A22EEA03A8DED012AA0
:102B4000B5EEC01A8DED023AF1EE10FA8DED030AE2
:102B50008DED041A3FBF6FF0010015B0BDEC088B7E
:102B600000BDDFED661AF0EE000AB5EEC00A68EEB1
:102B7000209AF1EE10FA18D260EE403A8DED088AF4
:102B8000C3EEA92AF1EE403A83EE884ACDED092A38
:102B90008DED0A4A8DED0B2A8DED0C0A32EE220ADC
:102BA0008DED010ACDED031A23E0B4EEE80AF1EE53
:102BB00010FAD8BFCDED0A1A1BDD60EE002AF1EE47
:102BC000481ACDED081A48EEE82AC2EEA91A70EEAE
:102BD000682AC2EE883ACDED091ACDED0A3A8DED9C
:102BE0000B2A8DED0C0A32EE210A8DED010ACDED96
:102BF000038A9DED030A69EE20BA21EE01AA20EEB8
:102C000000BA9DED010A39EE081A73EE40AA2BEEC8
:102C1000880A20EE2A0A09EE0A0A08EE0B0AC0EE1C
:102C2000010AF5EEC00AF1EE10FA3FBF6FF00200A4
:102C300015B0BDEC088B00BDB1EEE00AB4EE400A61
:102C4000F1EE10FA1CBFB0EE600A01F09BF9B4EE91
:102C5000E80AF1EE10FA4CDCDDED031AF4EEC01ACE
:102C6000F1EE10FADDBF9DED041AB4EEC01AF1EEDC
:102C700010FA6FF00300C2BF15B0BDEC088B00BDA9
:102C800060EE000A70EE611A30EE411A002070EE1C
:102C9000CB2A5422694682EEAB2A70EECA2AC2EED3
:102CA000A90A8DED0D2A3AEEC22ACDED0F0A72EE79
:102CB000600A81EE892ACDED0E0AC1EE081A8DED6B
:102CC000102A80EE801ACDED121A8DED111A8DEDBD
:102CD000070A8DED059A8DED068A149001208DF876
:102CE0004C000748FDF781FA15B00020BDEC088BB9
:102CF00000BDB0EE680AAFE7BD37863500000000C2
:102D000064660020534B93F84CC0BCF1000F08BF21
:102D1000704710B4D3F850C000EE10CA0CF1010493
:102D2000B8EE400ADFED4C0A1C6593ED0A2A60EE0E
:102D3000201AF6EE002AB4EEE12AF1EE10FA10DDC8
:102D400093ED0B0AD3ED0C0A93ED081A00EEA10ADD
:102D500021EE222A61EEA12A41EE210A02EE220A88
:102D600063E093ED103ADFF8ECC072EE030A9CEDDD
:102D7000010AF4EEE10AF1EE10FA10DD71EEC21A6A
:102D8000D3ED030A93ED051A00EEA10A21EE222AE3
:102D900061EEA12A41EE210A02EE220A45E093EDFE
:102DA000114ADFF8B0C09FED2D1A70EE843A9CED09
:102DB0000D0ADCED010AF4EEE13A30EE800ADCEDBA
:102DC000070AF1EE10FA06DD71EEC21A71EEC31AAF
:102DD00000EEA10A29E0D3ED124A73EEA43AF4EE14
:102DE000E13AF1EE10FA18DD31EEC21AD3ED0E1A07
:102DF00031EE431A30EE210AD3ED061A31EE441AB1
:102E000021EEA22A00EE810A61EE012A41EEC10AFA
:102E1000B1EE611A02EE620A07E093ED020AD3ED09
:102E2000040A4FF0000C83F84CC0D3ED001A21EED9
:102E3000800A80ED000A93ED000A20EE200A81ED61
:102E4000000A93ED000A20EE010A82ED000A10BC90
:102E500070470000646600206F12033A0000000013
:102E600030EEC02AF4EEC00AF1EE10FA02DDC2EE36
:102E7000011A09E024BF9FED0C1AF0EE411A03D2AB
:102E8000B1EE411AC2EE011A084800210165012184
:102E900080F84C1080ED051AC0ED101A80ED030A81
:102EA000C0ED040A704700000000000064660020C6
:102EB000134991F84C20002A08BF70470A6D00EEB4
:102EC000102A531CDFED0F0AB8EE400A0B6520EE06
:102ED000200AD1ED100AF4EEC00AF1EE10FADDBFBF
:102EE000D1ED040A002281F84C20D1ED030AC4BFC1
:102EF00091ED051A41EE000AC0ED000A704700008E
:102F0000646600206F12033A30EEC04A9FED2A2A11
:102F1000F4EEC00AB1EE403AF1EE10FA0ADDB5EE79
:102F2000C00AF1EE10FA1DDAF5EEC00AF1EE10FA61
:102F300008D920E026D2F5EEC00AF1EE611AF1EED2
:102F400010FA08DBC4EE212AB0EE421AF0EE603A25
:102F5000B0EE413A1EE0B5EEC00AB1EE411AF1EE14
:102F600010FA08D884EE013AF0EE421AF0EE403A38
:102F7000F0EE612A0EE0C3EE212AF0EE423A80EE36
:102F8000813A07E0F0EE421AF0EE612AB0EE611AE3
:102F9000B0EE613A094800210165012180F84C102A
:102FA000C0ED122A80ED103AC0ED073A00F10C0195
:102FB00081EC040A704700000000000064660020F5
:102FC0001E4A92F84C30002B08BF7047136D00EE7C
:102FD000103A03F1010CDFED1A0AB8EE400AC2F80C
:102FE00050C060EE200A92ED120AB4EEE00AF1EE53
:102FF00010FAC4BF92ED031A92ED060A0EDC92EDB0
:10300000101A30EE011AB4EEE01AF1EE10FA08DDF3
:1030100070EEC00A92ED071A92ED050A00EE201A32
:1030200006E092ED041A9FED070A002382F84C3067
:1030300080ED001A81ED000A7047000064660020F0
:103040006F12033A00000000FEF72ABCFEF728BC0E
:1030500070B5184E3D20308001F0BEFC0020FDF719
:1030600027FE308800240028CCBF134D70BD00BF60
:1030700005EB0410417A11F0040F15D0017A0129F3
:1030800004D0022907D004290AD00DE04168008845
:10309000FDF7EEFF08E041680088FDF7C1FF03E09F
:1030A00041680088FDF7D0FF3088641C8442DFDB74
:1030B00070BD0000E83F00203868000830B50C46BD
:1030C0000146002020608025084601F061FE0028AE
:1030D0001CBF417A11F0010F2ED0017A012906D0D0
:1030E000022909D003290FD0042918D024E0406810
:1030F0004F25007820701FE041684B25097821702A
:1031000040684078607017E0416847250978217071
:1031100041684978617040688078A0700CE041682F
:103120004325097821704168497861704168897840
:10313000A1704068C078E070284630BD0B4810B5DB
:1031400090F8CE00EE281CBF4FF0FF3010BDFEF708
:1031500021FE01281CBF0120FFF7E6FB01F03CFC2B
:103160000020FDF75FFD002010BD0000B8660020C4
:1031700070B50E46802501F00BFE04001CBF607A7E
:1031800010F0020F26D0207A012823D16068317810
:1031900002788A4217D00170607A10F0040F12D0C2
:1031A0002088FDF7A7FF10F0FF0F05D010F4807FF7
:1031B00018BFFDF707FD0DE0602510F4807F18BFF4
:1031C000FDF700FD00E06025E06818B180470028A9
:1031D00018BF802500203060284670BD70B50E46AF
:1031E000802501F0D5FD04001CBF607A10F0020FAD
:1031F00026D0207A022823D16068318802888A424A
:1032000017D00180607A10F0040F12D02088FDF7EB
:1032100043FF10F0FF0F05D010F4807F18BFFDF7BB
:10322000D1FC0DE0602510F4807F18BFFDF7CAFCCB
:1032300000E06025E06818B18047002818BF8025AD
:1032400000203060284670BD70B50E46802501F024
:103250009FFD04001CBF607A10F0020F26D0207A78
:10326000042823D16068316802688A4217D001605F
:10327000607A10F0040F12D02088FDF724FF10F0C0
:10328000FF0F05D010F4807F18BFFDF79BFC0DE009
:10329000602510F4807F18BFFDF794FC00E06025E6
:1032A000E06818B18047002818BF802500203060F2
:1032B000284670BD9FED040A80ED040A80ED050AE2
:1032C00080ED060A704700000000000080ED000A53
:1032D00020EEA10A80ED010A81EE210A80ED020AAA
:1032E00080ED032A7047B0EE403A90ED000A90ED71
:1032F000014AF6EE004A60EE033A20EE044A90EDF1
:10330000050A31EE631A30EE030A60EE244A90EDAE
:10331000040A04EE240A80ED040AB4EEC10AF1EEB8
:1033200010FAC4BF80ED041AB0EE410A0ADC70EE58
:10333000E30AB4EEE00AF1EE10FAD8BFB0EE600A8C
:1033400080ED040A30EE230A30EE220AB4EEC20AFF
:10335000F1EE10FAC8BFB0EE420A04DCB4EEE10AA6
:10336000F1EE10FA02D380ED053A7047B0EE610A33
:10337000F9E700002DE9F84F4FF000075FEA020976
:103380008A46054600970CBF02200120FEF732FB5B
:103390000446B0F1FF3F04BF0420BDE8F88F5C4E47
:1033A0002020B9F1000F77803470706005D10121C1
:1033B000204600F0D7FB002843D1564FA4F150001F
:1033C000A7FB002109096FF00A02514300EB4100FD
:1033D00000F165044FF0006808EB8420FEF7CAFB9B
:1033E000022809D004280ED0B9F1010F0CBF032820
:1033F0000A2027D0BDE8F88F4FF00401204600F0E6
:10340000B1FB002878D1A4F15000A7FB00210909E5
:103410006FF00A02514300EB410000F1650408EB34
:103420008420FEF7A7FB032805D00428EBD0B9F1D0
:10343000010F07D03CE00421204600F093FB002858
:10344000E1D059E03478D6F80430202000EB842213
:103450004FF00061895802F100625268C94371EA75
:10346000020107D071880830491C08337180B0F51B
:10347000806FEBD34FF00009C6F80430A4F1500080
:10348000A7FB002109096FF00A02514300EB41003C
:1034900000F1650408EB8420FEF76CFB032807D1DC
:1034A000708809F101097C307080B9F1160FE5D3FD
:1034B0005146284600F028FCF0B9708803282ABF3E
:1034C000841E0124652C0DD2AC4208D0A0B26946FE
:1034D00000F024F898B1072818BFBDE8F88F641CE5
:1034E000652CF1D30221307800F03CFB002804BFAA
:1034F0004FF48070BDE8F88F0220BDE8F88FA0B2CD
:10350000009900F001FC0028E9D0BDE8F88F000028
:10351000F03F0020A38B2EBAFEF7C2B92DE9F34F7E
:10352000824683B00020FEF765FA0746B0F1FF3F00
:1035300002BF032005B0BDE8F08F4FF0006B0BEB2E
:1035400087284046FEF716FB4FF0000942E000BF17
:1035500008EB060005684468E84370EA040024D0DC
:10356000A8B2504521D18DF80040210A8DF80110F4
:10357000210C8DF802108DF80400210E000A8DF840
:1035800003108DF805000621684601F0BDF96FF3C0
:103590000F052A0C42EA094189B2814205D10498FB
:1035A000046005B00020BDE8F08F083E202ECFD289
:1035B0000E49A7F15000A1FB002109096FF00A0292
:1035C000514300EB410000F165070BEB87284046B3
:1035D000FEF7D0FA02281ABF032804284FF47E769B
:1035E000B6D005B04FF00700BDE8F08FA38B2EBA20
:1035F0002DE9F05F0024DFF8AC80274626462546FB
:103600000121404603F083F80121404603F082F88F
:103610000028F9D00121404603F079F8DFF88890BE
:10362000DFF888B009F1040A0121404603F072F87E
:10363000012810D10121404603F069F8D9F80000B3
:1036400017FA80F7DAF8000016FA80F6DBF80000C7
:1036500015FA80F5641C402CE6DB97FBF4F096FB32
:10366000F4F102B295FBF4F3114809B21BB20280E7
:10367000418083800020A2F25152B2F57A7F88BF48
:103680004FF0FF30A1F25151B1F57A7F88BF4FF072
:10369000FF30A3F25151B1F57A7F88BF4FF0FF3070
:1036A000BDE8F09F002C01403C2401403C28014033
:1036B000100000202DE9F04F99B0B8B1012803BFE8
:1036C00005204FF0090A814604201CBF4FF00A0A6A
:1036D000814681B1012914D0022901D0032916D0D5
:1036E0000A2704264FF00108354615E008208246D7
:1036F0004FF00609EDE74FF004080A274646454615
:103700000AE00A2704264FF00208354604E008279D
:1037100003264FF001080225129004204D4C0D9015
:103720000221204601F07DF8204600F0B9FE206815
:1037300040F400402060206810F4004FFBD146495F
:10374000086810F0020FFBD00121424801F093F805
:103750004FF0010B00248DF820B08DF821B00D98AA
:103760008DF81840401E8DF81900AAF101008DF85F
:103770001A00A9F101008DF81C408DF81B008DF88E
:103780001DB012988DF81E40ADF822008DF81FB0C4
:1037900006A9304800F08EFF04208DF800B08DF8A7
:1037A00045008DF801B08DF844008DF802B01094FA
:1037B00010A8CDE90104781E8DF81100701E8DF857
:1037C0001200681E8DF810000394ADF8148069464D
:1037D000204800F07FFEADF85440ADF85AB01C20F0
:1037E00000F046FE0A20ADF85600ADF84C40ADF8AA
:1037F00050408DF85CB0ADF85840ADF84E40ADF893
:10380000524013A800F0DCFE0021124801F012F82B
:103810000121104801F00EF802210E4801F00AF8CB
:103820000E48016811F0030F07D0016841F0200134
:103830000160016811F0030FF7D10221054800F083
:10384000F5FF00221146142001F0CCFF19B0002032
:10385000BDE8F08F00640040046400400C64004048
:103860000848016811F0806F04BF016811F0006F13
:1038700005D1006810F0805F04BF01207047002070
:1038800070470000086400403D490A6812F0806FEC
:1038900018BF002164D0090101F1804303F5C04342
:1038A000D3F8801501F00101C3F8801502880021CA
:1038B00041EA4251C3F88015026800214FF0080C1C
:1038C000BCEB126F28BF110E2FD24FF00C0CBCEBCB
:1038D000126F28BF092128D24FF0100CBCEB126FD9
:1038E00028BF0A2121D24FF0140CBCEB126F28BF65
:1038F0000B211AD24FF0180CBCEB126F28BF0C2111
:1039000013D24FF0200CBCEB126F28BF0D210CD24C
:103910004FF0300CBCEB126F28BF0E2105D24FF0D8
:10392000400CBCEB126F28BF0F2141F0A002C3F87E
:103930008425144A00F10400515CC91C890807D091
:1039400050F8042BC3F88825491E11F0FF01F7D168
:10395000D3F8800540F00100C3F8800500207047CF
:103960000A6812F0006F18BF012194D1096811F0A4
:10397000805F14BF02214FF0FF308CD170470000F0
:10398000086400401868000810B5FFF77DFF0028A4
:1039900018BF10BD012001F011F8002010BD00007B
:1039A00010B54FF0E0206FF07F414161002181614F
:1039B000052101612F4C0421204600F0FCFB04216D
:1039C000204600F026FC204600F07FFB0A2000F095
:1039D000F5FF204600F020FB0121204600F089FC85
:1039E0000421204600F015FC0421204600F0FAFBDB
:1039F000214C204600F069FB0A2000F0DFFF204642
:103A000000F00AFB201500F0D1FF1C4C204602F00C
:103A100079FE0121204602F0F3FE194840F2DC5104
:103A20000160001F0160001F016000221146204656
:103A300002F06EFD00220121204602F069FD002205
:103A40000221204602F064FD00221146204602F0C9
:103A5000ECFB00220121204602F0E7FB00220221BC
:103A6000204602F0E2FB2046BDE81040012102F0B2
:103A7000BEBE00000024014000280140002C01408F
:103A80003C2C014010B5174C00221146204602F094
:103A90003FFD00220121204602F03AFD00220221D2
:103AA000204602F035FD00221146204602F0BDFB03
:103AB00000220121204602F0B8FB0022022120460C
:103AC00002F0B3FB0121204602F021FE0121204635
:103AD00002F020FE0028F9D02046BDE81040012168
:103AE00002F015BE002C01401B4910B540F2DC501D
:103AF0000860091F0860091F0860184C0121204652
:103B000002F005FE0121204602F004FE0028F9D053
:103B10000121204602F0FBFD01220021204602F097
:103B2000F7FC01221146204602F0F2FC012202219C
:103B3000204602F0EDFC04220021204602F075FB35
:103B400004220121204602F070FB20460422BDE839
:103B50001040022102F069BB3C2C0140002C0140C6
:103B6000FDF79EBE2DE9F0414FF0006202EB802C84
:103B70001C4A1F4D02EB80281B4AC4B202EB80276F
:103B80001A4A012902EB802606D002290DD003290A
:103B900013D0042919D022E04FF0AA321346604610
:103BA000FDF7B4FEC0B92C7019E04FF0AA321346ED
:103BB0004046FDF7ABFE78B9F5E74FF0AA32134661
:103BC0003846FDF7A3FE38B909E04FF0AA32134694
:103BD0003046FDF79BFE10B10220BDE8F0810020C9
:103BE000BDE8F08108000008100000081800000877
:103BF000F03F00203948016841F470010160384805
:103C0000016841F00101016000214160C162016869
:103C100021F4102121F0A85101604FF47F0181604F
:103C2000016821F4802101600268002142F48032A1
:103C300002604FF6FF730268491C12F4003F01D185
:103C40009942F8D1016811F4003F45D025490A682E
:103C500022F0070242F003020A60416841604168B5
:103C60004160416841F480614160416821F4701114
:103C700021F000514160416841F4541141F000517C
:103C80004160C16A184A1140C162C16A41F019011C
:103C900041F48431C162016841F0806101600168D2
:103CA00011F0006FFBD0016841F080710160016884
:103CB00011F0007FFBD0416821F0030141604168B1
:103CC00041F002014160416811F0080FFBD0002172
:103CD0004FF0006001F0E2BDFEE7000088ED00E07B
:103CE000001002400020024000F0FEBF4FF0804173
:103CF0006FF00100086102480168491C01607047CB
:103D000004000020FDF7CCBD2DE9F041254E05460D
:103D10000C467088002740F2545182B0884222BF7E
:103D2000112002B0BDE8F0810120FDF763FEB0F183
:103D3000FF3F02BF032002B0BDE8F0814FF00061F9
:103D400001EB802854EA050014D08DF80040200AC9
:103D50008DF80100200C8DF80200200E8DF8030074
:103D60008DF80450280A8DF805000621684600F0F9
:103D7000CBFD0746706845EA074240442346FDF7FD
:103D8000C5FD00281EBF022002B0BDE8F0817068AA
:103D9000083070607088401C708002B00020BDE860
:103DA000F0810000F03F002010EE100AC0F3C75170
:103DB0007F391729A8BF7047DFED140A002970EE7C
:103DC000200A0DDAF5EEC00AF1EE10FA1ADD00282D
:103DD000A8BF002016DAB0F1004F18BF0C4811E060
:103DE0000C4ACA40104208BF7047F5EEC00AF1EE17
:103DF00010FA07DD002804DA4FF4000323FA01F17A
:103E00000844904300EE100A70470000CAF249715E
:103E1000000080BFFFFF7F0010EE100A10B50023E6
:103E2000A0F50001B1F1FE4F67D200BF00F50021FF
:103E30006FF07E0202EBE15CC1F302524FF07E5163
:103E400001EB025100EE901AA0EBCC5003EB0C01F9
:103E500000EE100A51EA020036D030EE601A70EE21
:103E6000200A9FED3D2A3E4881EE200A9FED3B1A35
:103E700060EE000A00EE821A60EE201A61EE810AFE
:103E8000784401EE101A00EB82009FED362AB8EE5E
:103E9000C11AD0ED001A344841EE021A784401EEFE
:103EA000101A00EB8200B8EEC11A90ED002ADFED87
:103EB0002F2A01EE222AB0EE001A72EE200A40EEFE
:103EC000010A31EEA00A10BDF7EE000A9FED291A93
:103ED00030EE600ADFED260A00EE201ADFED260A3A
:103EE00060EE001A40EE010A9FED241A00EE201A3F
:103EF00061EE810A30EE200A10BD4FF07F41B1EB38
:103F0000400F03D2BDE8104000F064B8B0F1FF4F9D
:103F100008BF10BDB5EEC00AF1EE10FA06D20120BE
:103F200000F074F8BDE8104000F058B8B5EEC00AD3
:103F3000F1EE10FA07D1022000F068F800F040F826
:103F4000B1EE400A10BDDFED0E0A6FF0160320EE51
:103F5000200A10EE100A69E766F1CC3EAAAA2A3FB1
:103F6000883C00000070313F8C3C0000F4FD0538B7
:103F700021ED423E0A1180BEC1ABAA3EFFFFFFBE4B
:103F80000000004B10B52DED028BB1EEC08A18EE8B
:103F9000100A20F00040C0F1FF40C00F0AD010EE20
:103FA000100A20F00040C0F1FF40C00F04BF012004
:103FB00000F02CF8B0EE480ABDEC028B10BD0000FA
:103FC000DFED030AB7EE001A81EE200A7047000009
:103FD0000000000030EE000A70470000DFED020A2A
:103FE00080EEA00A704700000000000002E008C850
:103FF000121F08C1002AFAD170477047002001E063
:1040000001C1121F002AFBD170470000014908605E
:1040100070470000FC3F0020816841F0080181608A
:10402000816811F0080FFBD1816841F004018160C3
:10403000816811F0040FFBD170471205A2F58012C0
:1040400001290CD0022918BF7047816B21F440115F
:10405000816302F44011826B114381637047C16A2E
:1040600021F47001C16202F47001C26A1143C1629D
:1040700070470029816814BF41F4006121F4006198
:104080008160704710B5A0F59230B0F180400DD03E
:10409000B0F5806F18BF10BD40F20A3001F05FFD2F
:1040A000BDE8104040F20A3001F04ABD40F209304C
:1040B00001F055FDBDE8104040F2093001F040BD6F
:1040C000816841F4807181607047816811F0010F4F
:1040D00018BF7047816841F0010181607047002A74
:1040E00001F001020DD01AB1826842F480128260A0
:1040F00011F0020F1ABF816841F4004170478160DE
:1041000070471AB1826822F48012826011F0020FA7
:104110001CBF816821F40041F1D1704701290AD008
:10412000022918BF7047816821F4E04181608168ED
:10413000114381607047816821F46021816081684A
:1041400011438160704710B4D0F838C0846BCCF351
:10415000015CA1EB0C01C91C01EB81014FF01F0CAC
:104160000CFA01FC24EA0C0C02FA01F141EA0C0100
:10417000816307210A2A0CD2D0F810C002EB420258
:1041800091402CEA010103FA02F21143016110BCD3
:104190007047122A24BF10BC7047D0F80CC00A3AEE
:1041A00002EB420291402CEA010103FA02F21143B0
:1041B000C16010BC704711F0010F03D0426822F0BB
:1041C0004002426011F0020F03D0426822F0200248
:1041D000426011F0040F08BF7047416821F0800170
:1041E0004160704711F0010F03D0426842F0400275
:1041F000426011F0020F03D0426842F02002426098
:1042000011F0040F08BF7047416841F08001416020
:104210007047026822EA01010160704704490A6898
:1042200022F470220A600A68104308607047000098
:104230000424014010B44FF01F0C06290CD2446B2B
:1042400001EB81010CFA01FC24EA0C0C02FA01F1E9
:1042500041EA0C0141631EE00C290DD2046B891F59
:1042600001EB81010CFA01FC24EA0C0C02FA01F1C9
:1042700041EA0C0101630EE010290CD2C46A0C392A
:1042800001EB81010CFA01FC24EA0C0C02FA01F1A9
:1042900041EA0C01C16207210A2A0CD2D0F810C0F1
:1042A00002EB420291402CEA010103FA02F21143AF
:1042B000016110BC7047122A24BF10BC7047D0F8AF
:1042C0000CC00A3A02EB420291402CEA010103FAC7
:1042D00002F21143C16010BC7047D0F8802022F474
:1042E0004052C0F88020D0F880201143C0F88010E0
:1042F000704711F0010F03D0826842F4800282609F
:1043000011F0020F08BF7047816841F4001181600D
:104310007047002A01F4807214D01AB1426842F446
:104320008072426011F4806F03D0426842F4806270
:10433000426011F0020F1ABF816841F0020170471C
:10434000816070471AB1426822F48072426011F4B1
:10435000806F03D0426822F48062426011F0020F45
:104360001CBF816821F00201EAD170479FED1D1A40
:10437000F5EE000A40EE010ABDEEE00AF5EEC00AD5
:1043800010EE100AF1EE10FA38BF401E00EE100ACF
:10439000B8EEC00A30EEC00ADFED130A20EE200AA4
:1043A000BCEEC01A11EE100A80B2B0F5007F24BF37
:1043B000002030EE600A00EE900A0C49F7EE001A79
:1043C000F8EE600A01EB800090ED011A70EE600AD1
:1043D00090ED000A71EEE01A21EE800A00EE810AEB
:1043E0007047000083F9223E00000044086C00087A
:1043F000DFED1C0AB5EEC00A60EE200ABDEEE01A41
:1044000011EE100AF1EE10FA38BF401E00EE100A4D
:10441000B8EEC00A30EEC00ADFED130A20EE200A23
:10442000BCEEC01A11EE100A80B2B0F5007F24BFB6
:10443000002030EE600A00EE900A0C49F7EE001AF8
:10444000F8EE600A01EB800090ED011A70EE600A50
:1044500090ED000A71EEE01A21EE800A00EE810A6A
:104460007047000083F9223E00000044086C0008F9
:104470000A490A6842F001020A600A6822F47C5282
:104480000A600A684FF47C5303EA00201043086076
:10449000086820F0010008607047000000660040D6
:1044A00010B5A0F18041B1F5C84109D040F21A40E1
:1044B00001F055FBBDE8104040F21A4001F040BB4E
:1044C00040F2194001F04BFBBDE8104040F21940AA
:1044D00001F036BB10B44FF6FF7200296DD00368AF
:1044E00023F002030360036843F0010303604368A1
:1044F00013F0010F03D1002A18BF521EF7D14268F2
:1045000012F0010F59D00A7C4FF0E06303EA026217
:104510004B7C4FF4702C0CEA03431A438B7C4FF412
:10452000E00C0CEA03531A438B8A5B1EC3F30903A6
:104530001A43C262D1E902321A434B78012B0CBFF5
:1045400022F0040242F004028B78012B18BF22F003
:10455000100316D0097801290CBF43F0010123F0A4
:1045600001010162016821F0010101604FF6FF7154
:10457000426812F0010F1BD0002918BF491EF7D165
:104580001BE042F010034A68BAB192F800C04FF441
:10459000FE440CF0200C4CEA030392F804C052795C
:1045A0000CF07F0C04EA02224CEA02028262D1E79C
:1045B00000291EBF012010BC7047002010BC7047AE
:1045C00030B4817A364B012202FA01F11A6842F0C6
:1045D00001021A60DFF8CCC0DCF800208A43CCF876
:1045E0000020C489304AE4B914688C431460C4883C
:1045F00045882404C5EA04044589ED0005F1804599
:1046000005F5C045C5F84046848805882404C5EAF8
:1046100004044589ED0005F1804505F5C045C5F860
:104620004446C489012C1CD114680C4314600288D0
:1046300044881204C4EA02024489E40004F180447C
:1046400004F5C044C4F840268288C4881204C4EA31
:1046500002024489E40004F1804404F5C044C4F833
:1046600044268489114A002C14680CBF8C430C43E7
:10467000146004890E4A002C14680CBF8C430C4350
:104680001460007C012804D1DCF800000843CCF859
:104690000000186820F00100186030BC704700006E
:1046A000006600401C6600400C6600400466004046
:1046B000146600402DE9F00103684FF6FF724FF0D9
:1046C000000C23F002030360036843F0010303605E
:1046D000436813F0010F03D1002A18BF521EF7D10F
:1046E000426812F0010F08BF4FF0000C6CD0036A53
:1046F0004FF0F85713F0010F4FF470264FF4E055C8
:104700004FF4E0044FF4C0425FD04B7807EA0363F4
:104710000F7843EA87778B7806EA034605EA831326
:10472000334347EA0305CB7804EA035402EA8322C1
:104730004B8922435B1E2A43C3F309031A43C26118
:104740000A79012A02680CBF42F0800222F080023E
:1047500002604A79012A02680CBF42F0400222F04E
:10476000400202608A79012A02680CBF42F02002EE
:1047700022F020020260CA79012A02680CBF22F0EE
:10478000100242F0100202600A7A012A02680CBF8D
:1047900042F0080222F008020260497A0129016809
:1047A0000CBF41F0040121F004010160016821F017
:1047B000010101604FF6FF71426812F0010F28D02D
:1047C000002918BF491EF7D127E043F00103036217
:1047D00091F8018007EA086791F8008047EA887835
:1047E0008F7806EA074605EA8715354348EA050645
:1047F000CD7804EA055402EA852222434C893243EB
:10480000641EC4F309042243C26123F00102026260
:1048100096E7002918BF4FF0010C6046BDE8F00193
:104820007047426922EA01014161704742691143C0
:104830004161704769B1012914D0022918BF70473E
:10484000816841F400018160816811F4000FFBD19F
:104850007047816841F080018160816811F0800FAC
:10486000FBD17047816841F400418160816811F497
:10487000004FFBD1704700234FF6FF72012904D08F
:10488000022917D0042925D039E0016821F002015E
:104890000160016841F001010160416811F0010F00
:1048A00003D1002A18BF521EF7D1406810F0010F43
:1048B00027D023E0016821F003010160416811F075
:1048C000030F1CBF002A521EF8D1406810F0030FDE
:1048D00017D113E0016821F001010160016841F086
:1048E00002010160416811F0020F03D1002A18BFD4
:1048F000521EF7D1406810F0020F02D00123184673
:1049000070470023FBE7000002460020002908BF93
:10491000704711F0010FA2F101020F4B03D012F802
:10492000010F33F81000490808BF704792F801C022
:10493000491E8CEA102C33F81CC08CEA002012F8B7
:1049400002CF80B28CEA102C33F81CC08CEA002015
:1049500080B2EBD1704700000C75000802460020C1
:10496000002908BF704711F0010FA2F101020E4BA0
:1049700003D012F8010F53F82000490808BF704710
:1049800092F801C0491E8CEA106C53F82CC08CEAD6
:10499000002012F802CF8CEA106C53F82CC08CEA7D
:1049A0000020EDD1704700000C77000802494A68EA
:1049B0001043486070470000002004E081B044F2DA
:1049C00030314843009001E000BF0846411E00918D
:1049D000FAD201B0704700005348002101804180A5
:1049E000818081719FED510A012280ED020A80EDE4
:1049F000030A80ED040A80ED050A80ED060A80EDC9
:104A0000070A80ED080A80ED090A80ED0A0A80EDA8
:104A10000B0A80ED0C0A80ED0D0A80ED0E0A80ED88
:104A20000F0A80ED100A80F84420022280F8452009
:104A300080F84620A0F84810A0F84A100822DFEDC0
:104A40003C0AA0F84C20C0ED140ADFED3A0AB3EEA0
:104A50000E1AC0ED150ADFED380A6422C0ED160A01
:104A6000DFED360A80ED171AC0ED180ADFED340AC3
:104A7000F7EE001AC0ED190ADFED320AC0ED1A0A8E
:104A8000DFED310A80F86C10C0ED1C0A80ED1D0AC4
:104A9000F2EE040AC0ED1E0A80ED1F1A9FED2B1ADC
:104AA00080ED201A9FED2A1A80ED211AB3EE021A2A
:104AB00080ED221A9FED271A80ED231A9FED261A0A
:104AC00080ED241A9FED251A80ED251AA0F8982074
:104AD000C0ED271ADFED221AA0F8A020C0ED291A98
:104AE000A0F8A82080ED2B1A4FF47A72A0F8B0201D
:104AF00080F8B21042F21C53A0F8B430A0F8B620EF
:104B0000C0ED2E0AC0ED2F0AC0ED300AC0ED311AFB
:104B100080ED320A40F20512A0F8CC2080F8CE10C9
:104B200080F8CF1070470000B86600200000000039
:104B30009A99993E282C71399C5088393333E34037
:104B4000EC51B83D8BE1EA36000080460000C842D7
:104B5000000020420000B4420000A0420AD7233CDB
:104B6000CDCCCC3DA0F18042B2F5013202D1042976
:104B700000D9FEE701EB810100EB8100816841F083
:104B8000010181607047A0F18042B2F5013202D18B
:104B9000042900D9FEE701EB810100EB8100816867
:104BA00041F0200181607047A0F18042B2F50132EE
:104BB00002D1042900D9FEE701EB810200EB820259
:104BC000936823F00103936000239360D360136123
:104BD0005361426889000F2303FA01F111434160D8
:104BE0007047A0F18043B3F5013302D1042900D905
:104BF000FEE701EB810100EB81001368036191681E
:104C00004161118A89B2C1608168D2F80CC05368D1
:104C100021F47C5143EA0C03D2F814C04CEA0101A0
:104C200019438160117E012981680CBF41F0400168
:104C300021F040018160517E012981680CBF41F063
:104C4000800121F080018160917E002981680CBF84
:104C500021F0100141F01001816070472DE9F05FF3
:104C6000868881460789B0F804C0D0F800B0C388B0
:104C7000A3EB0C04A4B2634503D2A7EB0C001844C9
:104C800084B2944288BF1446002C0DBF00208A468F
:104C90004FF00008BDE8F09FB81B85B2A54288BF61
:104CA0002546012D04BF1BF806000AF8080006D0AF
:104CB0000BEB06010AEB08002A46FBF796FA08EB15
:104CC00005001FFA80F8601B84B2701986B2BE42DC
:104CD00028BF0026002CDFD1A9F804604046BDE8BB
:104CE000F09F8288C1880389881A80B2914228BFC8
:104CF0007047981A084480B2704701600021818093
:104D0000C180028170472DE9F05FC788814605891F
:104D1000D0F800B08088B9F806C0ACEB00039BB2B5
:104D2000844502D2281A604483B2E81A401E84B235
:104D3000944288BF1446002C0DBF00208A464FF0D5
:104D40000008BDE8F09FE81B86B2A64288BF264651
:104D5000012E04BF1AF808000BF8070006D00AEB72
:104D600008010BEB07003246FBF73FFA08EB0600A1
:104D70001FFA80F8A01B84B2B81987B2AF4228BFCF
:104D80000027002CDFD1A9F806704046BDE8F09F4F
:104D9000154930B409880022491E0904DFF84CC0C7
:104DA000090C13D053185B080CEB031425888542BB
:104DB0003CBF5A1C92B202D1204630BC704703D986
:104DC000002B18BF5B1E99B28A42EBD38A4207D1EF
:104DD0000CEB02110A88824202BF084630BC7047C1
:104DE000002030BC70470000E83F00203868000811
:104DF00010EE101A01700A0A42700A0C8270090E35
:104E0000C1700420704700000149C860704700006D
:104E1000002002400248016941F0800101617047B1
:104E20000020024070B505464FF4801000F018F8DD
:104E3000002818BF70BD094C206940F002002061B5
:104E40006561206940F0400020614FF4801000F05F
:104E500007F8216921F00201216170BD00200240A4
:104E6000104902460020CB6813F0010F18BF012043
:104E700010D1CB6813F0100F18BF04200AD1CB68F3
:104E800013F0040F18BF022004D1CB6813F0080FF1
:104E900018BF0320521E012818BF7047002AE1D115
:104EA00005207047002002400548016911F0800F7D
:104EB00008BF7047034941600349416070470000E3
:104EC0000020024023016745AB89EFCD70B506464F
:104ED0000D464FF48010FFF7C3FF002818BF70BDC8
:104EE000074C206940F00100206135604FF48010CC
:104EF000FFF7B6FF216921F00101216170BD0000BB
:104F00000020024010B4144ADFF848C045F255545E
:104F100063461460D4685B1E04F0010402D0002CC8
:104F2000F8D100E054B95160D168BCF1010C01F036
:104F3000020102D00029F7D103E011B110BC00201A
:104F40007047C0F30B0090604AF6AA20106010BCB6
:104F500001207047FFFF0F000030004002494CF66F
:104F6000CC4008607047000000300040416170474D
:104F7000016170472DE9F00301F00F0C11F0100FE3
:104F800004D0042A18BF4CEA020C3FD000220F269E
:104F90005FF0010404FA02F51D4012D0D0F8008041
:104FA000970006FA07F90CFA07F728EA090847EA12
:104FB0000807282908BF456102D0482908BF0561B4
:104FC0000760521C92B2082AE4D3082204FA02F5C0
:104FD0001D4014D047684FEA8208A8F1200806FA5D
:104FE00008F90CFA08F827EA090748EA0707282908
:104FF00008BF456102D0482908BF05614760521CBF
:1050000092B2102AE2D3BDE8F0037047C26B4CF0B5
:10501000030C1A43C263B9E741F4803282618161B3
:10502000826181698069704770B4194A10F0004F3D
:1050300014BFD3695368C0F303444FF4401C3CEAE7
:1050400000054FEA505C4FEA0C1C86B206FA0CFCD5
:1050500016D010F4801F08BF23EA0C0303D00325E9
:1050600005FA04F4A34343F0E063002918BF4CEAB7
:10507000030310F0004F14BFD361536070BC70473E
:10508000546823F0E06324F0E0645460EDE700002E
:10509000000001408CB072B64FF4C06000F042FDD9
:1050A00040F2026000F03EFD40F2036000F03AFD85
:1050B00040F2046000F036FD40F20B6000F032FD7B
:1050C0004FF4E06000F02EFD40F2096000F02AFD90
:1050D00040F20A6000F026FD012000F045FC4FF48C
:1050E000A06000F01FFD40F2197000F01BFD40F2BF
:1050F0000C6000F017FD40F20F7000F013FDDFF8B8
:105100000C854FF480514046FFF730FF4FF4805339
:10511000022210214046FFF72DFF04214046FFF7F1
:1051200025FF0423022210214046FFF723FFDFF86A
:10513000E0940123042200214846FFF71BFF0223CD
:10514000042200214846FFF715FF04231A460021D8
:105150004846FFF70FFF0823042200214846FFF7C7
:1051600009FF0123042200214046FFF703FF022329
:10517000042200214046FFF7FDFE4FF48073032216
:1051800018214846FFF7F6FE4FF40073032218215A
:105190004846FFF7EFFE4FF480630322182148468C
:1051A000FFF7E8FE4FF40053032218214046FFF7B3
:1051B000E1FE4FF48043032218214046FFF7DAFE58
:1051C0004FF40043032218214046FFF7D3FE4FF46B
:1051D0000063032248214846FFF7CCFE4FF480537A
:1051E000032218214846FFF7C5FE10214846FFF765
:1051F000BFFE1023032219464846FFF7BBFEA0233B
:10520000032218214846FFF7B5FE4023032204215C
:105210004846FFF7AFFE0121FE48FFF705FF40219A
:105220004046FFF7A5FE4023032210214046FFF72A
:10523000A1FE2823032218214046FFF79BFE1023DE
:10524000032204214046FFF795FEF34800F084FF57
:10525000684600F0C8FF00244FF48270CDE90004D6
:105260004FF40060029003AA03268010102782E802
:10527000D1006946E84800F09FFFE74800F062FF70
:10528000E64D284600F068FF684600F0ACFF4FF49A
:105290008270CDE90004E814029003AA801082E82D
:1052A000D1006946284600F087FF284600F04AFFF3
:1052B000DFF86CA300215046FFF776FCD948009038
:1052C000D94801258DF8184002908DF81950280210
:1052D000019080000390C000CDE904608DF81A4071
:1052E0006A4600215046FFF77CFC00215046FFF73C
:1052F0004AFC00215046FFF735FCCC4E3046FEF705
:10530000C1FE4FF4A020FEF789FF012211023046B2
:10531000FEF7FFFF012202213046FEF7FAFF0022CE
:10532000A9023046FEF7F5FF00213046FEF7D5FF13
:1053300000213046FEF79DFE3046FEF7C1FE0222F8
:1053400011463046FEF779FE002201231146304611
:10535000FEF7F9FE01231A4619463046FEF7F3FE22
:105360002A0302213046FEF7D9FE012202213046EF
:10537000FEF7B5FE032201213046FEF75EFE012353
:10538000032200213046FEF755FF0123082219466B
:105390003046FEF74FFF0123092202213046FEF777
:1053A00049FF4FF4602201213046FEF7B7FE01228B
:1053B00011463046FEF793FE9D4E3046FEF762FEE4
:1053C000002229023046FEF7A4FF002202213046C7
:1053D000FEF79FFF0022A9023046FEF79AFF002148
:1053E0003046FEF77AFF00213046FEF742FE0122EA
:1053F00002213046FEF721FE012302220021304621
:10540000FEF7A1FE4FF4E04202213046FEF786FE91
:10541000012202213046FEF762FE864801F0A8F81C
:1054200008A801F0EFF9ADF820404020ADF82200C7
:1054300040F6B8300A90ADF82C40ADF824408DF815
:105440002E4008A97B4801F06BF9684601F088F806
:10545000ADF800500420ADF80200ADF80440ADF8FE
:105460000840ADF80640ADF80A406A460021714890
:1054700000F0FAFE6A4601216E4800F0F5FE6A4629
:1054800002216C4800F0F0FE6A460321694800F0F2
:10549000EBFE00221146674801F002F8602200216D
:1054A000644800F0D5FF08220021624801F008F8A6
:1054B000002201215F4800F0F3FF602201215D48D6
:1054C00000F0C6FF082201215A4800F0F9FF00222F
:1054D0000221584800F0E4FF60220221554800F004
:1054E000B7FF08220221534800F0EAFF40F6B3322A
:1054F0000321504800F0D4FF702203214D4800F0F2
:10550000A7FF002203214B4800F0DAFF03A800F0B8
:1055100083FEADF80C40ADF81040ADF81440ADF886
:105520000E40ADF81240ADF81640ADF8184003A992
:10553000404800F060FEA80701F01AF8684601F044
:1055400061F94EF65F20ADF800500290ADF80240D0
:10555000ADF80440ADF80C406946A80701F0E0F84A
:105560000121880701F040F90121880701F038F98D
:10557000A80701F0C7F829034046FFF74DFD0121B8
:105580004846FFF749FD02214846FFF745FD042143
:105590004846FFF741FD08214846FFF73DFD012140
:1055A0004046FFF739FD02214046FFF735FD29024D
:1055B0004846FFF731FD69024846FFF72DFDA90275
:1055C0004846FFF729FD69034046FFF725FDA9037B
:1055D0004046FFF721FDE9034046FFF71DFDE902C4
:1055E0004846FFF719FD29034846FFF715FD10212E
:1055F0004846FFF711FD20214846FFF70DFD4021E9
:105600004846FFF709FD8021484615E0000C01409F
:10561000000801400002300000300140003C004022
:10562000000002404C2401401600002000240140EC
:1056300000280140002C0140FFF7EEFC0821404605
:10564000FFF7EAFC10214046FFF7E6FC2021404628
:10565000FFF7E2FC40214046FFF7DEFC4FF44070CC
:1056600000F012F9554880F800444FF0E020A904FA
:10567000C0F80011524981F800742907C0F80011E0
:10568000504A202182F80014C903C0F800114FF4D9
:10569000106000F093F900BF4FF4106000F09CF927
:1056A0000128F9D101213220FFF72CFCFEF778F90F
:1056B000FDF7CEFCFCF750FDFAF7B8FEFBF762FFF2
:1056C0004148009001E000BF0846411E0091FAD217
:1056D00062B6FDF78DFF00281CBF4FF40040FBF7BA
:1056E0001DF93A48D0F8180C002804BF4FF4804048
:1056F000FBF714F9FFF732FCFBF7F4F83448364EA9
:10570000DFF8D0B00570B514344CDFF8D4A0371DE5
:105710004FF6FF784AF6AA29E1686068401A0A281D
:1057200035D360680028606808BF401CE060FCF763
:1057300031FB012804D0022813D004281CD023E018
:10574000BBF800000028208805D090B3052833D08E
:105750000A2819D916E060B30A282DD0642813D975
:1057600010E0208828B30A2826D0142822D01E282A
:1057700022D0642808D905E02088D0B164281BD045
:10578000C82801D9A4F800802088401C2080FAF79E
:1057900083FEFCF70DFD6168A068081A0228BBD3E0
:1057A00060680028606808BF401CA060CAF80090CC
:1057B000B2E7FFE73560E7E73D60E5E712E000E0CC
:1057C0001CE000E014E000E0C03983003830002025
:1057D000E03E0020B8660020100C014000000020D0
:1057E0000030004030B4264C4FF0000C6346256872
:1057F00005F4E065B5F5A06F04BF4FF0020C6346F9
:105800001FD00DDCB5F5407F08BF4FF0040C18D059
:10581000B5F5806F04BF4FF0030C012311D00BE0EE
:10582000B5F5C06F04BF4FF0010C032309D0B5F5E7
:10583000E06F08BF042304D0124B23604FF0020C2A
:105840006346CCF1040C01FA0CF1C3F104034FF0F0
:105850000F0C2CFA03F31A40114300F1E022090166
:1058600082F8001400F01F01012202FA01F1400940
:10587000800000F1E020C0F8001130BC704700004B
:105880000CED00E00005FA05034940F0FD7040F022
:1058900080600860704700000CED00E021F07F019F
:1058A00021F06041084301490860704708ED00E0BD
:1058B0002DE9F041284FF7EE000A264897ED1C0A23
:1058C00043F6386180EE801A0D5800F54050D0F84C
:1058D0003C6E224880ED080A80ED091AFDF7F4F8C5
:1058E0001F4C00209FED1F0A84F8440084ED150A28
:1058F00084ED160AC4E9185684ED1A0A84ED1B0AD1
:10590000C4E91C5684ED1E0AC4F88400C4F888005B
:10591000B97984F88C1084F88D0084ED0A0A84ED3E
:105920000B0A84ED0E0A84ED0F0A84ED100A04F1CF
:10593000C800FDF7BFFC04F19000FDF7BBFC04F1CB
:10594000AC00FDF7B7FC788820F008007880BDE84F
:10595000F081000038000020B8660020983E00204A
:10596000E03E002000000000134A5168D26A21F492
:10597000404121F0805122F000520C2817D2DFE87C
:1059800000F006060606160916091010101041EA66
:1059900080310CE020F0040041EA803040F080517A
:1059A00005E020F00C0041EA803142F0005202484C
:1059B0004160C2627047000000100240810901F19D
:1059C000804101F504310A6800F01F00012303FA49
:1059D00000F0104308607047844600214C4B4D4A4C
:1059E0000846BCF11C0F76D00FDCBCF1000F3AD09A
:1059F000BCF1100F08BF4FF6FF7C19D0BCF1180F97
:105A00005BD0BCF11A0F68D07047BCF5006F04BFC3
:105A1000414B6FF07C4C19D0BCF5106F08BF3F4B69
:105A20003DD0ACF54053103B08BF3D4B29D07047EB
:105A30001A6812F4003F02D1491C6145F8D1196877
:105A400011F4003F08BF7047012070471A6812F038
:105A5000020F02D1491C6145F8D1196811F0020FFB
:105A600008BF7047F0E71A6812F0020F03D1491C13
:105A7000B1F5A06FF7D1196811F0020F08BF704798
:105A8000E2E7D3F800C01CF4003F02D1491C914268
:105A9000F7D1196811F4003F08BF7047D4E7D3F875
:105AA00000C01CF0020F02D1491C9142F7D11968C5
:105AB00011F0020F08BF7047C6E7D3F800C01CF012
:105AC000007F02D1491C9142F7D1196811F0007F83
:105AD00008BF7047B8E70EE0FFE7D3F800C01CF03E
