:020000040801F1
:106800000008002069690108B1690108AD69010843
:10681000AF690108A9690108B76901080000000013
:10682000000000000000000000000000B569010841
:10683000AB69010800000000B36901087D69010827
:106840007F6901087F6901087F6901087F69010884
:106850007F6901087F6901087F6901087F69010874
:106860007F6901087F6901087F6901087F69010864
:106870007F6901087F6901087F6901087F69010854
:106880007F6901087F6901087F6901087F69010844
:106890007F6901087F6901087F6901087F69010834
:1068A0007F6901087F6901087F6901087F69010824
:1068B0007F6901087F6901087F6901087F69010814
:1068C0007F6901087F6901087F6901087F69010804
:1068D0007F6901087F6901087F6901087F690108F4
:1068E0007F6901087F6901087F6901087F690108E4
:1068F0007F6901087F6901087F69010800000000C5
:106900007F690108000000007F6901087F690108B4
:106910007F6901087F6901087F6901087F690108B3
:106920007F6901087F6901087F6901087F690108A3
:106930007F69010800000000000000007F69010875
:106940007F6901087F6901087F6901087F69010883
:10695000DFF810D000F016F800480047D56A0108AB
:10696000AFF300800008002005480047FEE7FEE77F
:10697000FEE7FEE7FEE7FEE7FEE7FEE7FEE7FEE7EF
:1069800051690108064C074D06E0E06840F001033C
:1069900094E8070098471034AC42F6D3FFF7DCFFC9
:1069A000B86B0108C86B0108FEE7FEE7FEE7FEE7EB
:1069B000FEE7FEE7FEE7FEE702E008C8121F08C197
:1069C000002AFAD170477047002001E001C1121F70
:1069D000002AFBD1704700000149C86070470000E1
:1069E000002002400248016941F0800101617047C6
:1069F0000020024070B505464FF4801000F018F8F2
:106A0000002818BF70BD094C206940F002002061C9
:106A10006561206940F0400020614FF4801000F073
:106A200007F8216921F00201216170BD00200240B8
:106A3000104902460020CB6813F0010F18BF012057
:106A400010D1CB6813F0100F18BF04200AD1CB6807
:106A500013F0040F18BF022004D1CB6813F0080F05
:106A600018BF0320521E012818BF7047002AE1D129
:106A700005207047002002400548016911F0800F91
:106A800008BF7047034941600349416070470000F7
:106A90000020024023016745AB89EFCD70B5064663
:106AA0000D464FF48010FFF7C3FF002818BF70BDDC
:106AB000074C206940F00100206135604FF48010E0
:106AC000FFF7B6FF216921F00101216170BD0000CF
:106AD000002002403349324808604FF0000B4AF66C
:106AE000AA26314CFFF7C8FF304D4FF000672660F3
:106AF0003C20FFF771FF3846FFF77CFF20BB07F50E
:106B00008067AF42F3D3FFF76DFF4FF00060266060
:106B10000168B1F1FF3F3CD1001DA842F7D34FF00F
:106B20000009FFF7A9FF4FF434580027266009EB4E
:106B3000870000F1006A3C20FFF74EFF55F8271050
:106B40005046FFF7ABFF10B1FFF74CFF21E07F1C71
:106B5000B845EBD8FFF746FF0020B8F1000F0CD97D
:106B6000266009EB800101F1006155F820200968D9
:106B70008A420ED1401C4045F2D3BFF34F8F0C48E0
:106B800001680C4A01F4E06111430160BFF34F8FCB
:106B9000FEE70BF1010BBBF1050FA3DB2660FDE760
:106BA0000068010808ED00E00030004000B4000873
:106BB0000CED00E00400FA05C86B0108000000209D
:086BC00000080000C86901088B
:040000050801695134
:00000001FF
